:020000040800F2
:100000000000022089170008D1170008D117000846
:10001000D1170008D1170008D11700080000000010
:10002000000000000000000000000000D1170008E0
:10003000D117000800000000D1170008D1170008F0
:10004000D1170008D1170008D1170008D1170008F0
:10005000D1170008D1170008D1170008D1170008E0
:10006000D1170008D1170008D1170008D1170008D0
:10007000D1170008D1170008D1170008D1170008C0
:10008000D1170008D1170008D1170008D1170008B0
:10009000D1170008D1170008D1170008D1170008A0
:1000A000D1170008D1170008D1170008D117000890
:1000B000D1170008D1170008D1170008D117000880
:1000C000D1170008D1170008D1170008D117000870
:1000D000D1170008D1170008D1170008D117000860
:1000E000D1170008D1170008D1170008D117000850
:1000F000D1170008D1170008D1170008D117000840
:10010000D1170008D1170008D1170008D11700082F
:10011000D1170008D1170008D1170008D11700081F
:10012000D1170008D1170008D1170008D11700080F
:10013000D1170008D1170008D1170008D1170008FF
:10014000D1170008D1170008D1170008D1170008EF
:10015000D1170008D1170008D1170008D1170008DF
:10016000D1170008D1170008D1170008D1170008CF
:10017000D1170008D1170008D1170008D1170008BF
:08018000D1170008D117000897
:1001880010B5054C237833B9044B13B10448AFF3C9
:1001980000800123237010BD5C04002000000000D3
:1001A800DC17000808B5064B1BB106480649AFF333
:1001B80000800648036813B1054B03B1984708BD92
:1001C80000000000DC17000860040020580400202C
:1001D80000000000154B002B08BF134B9D46A3F5EC
:1001E800803A4FF000018B460F461348134AA2EBA2
:1001F800000201F09BF90E4B002B00D098470D4BE5
:10020800002B00D098474FF000004FF00001044643
:100218000D460B4801F038F901F062F920462946ED
:1002280001F092FA01F036F9000008000000000021
:1002380000000000000000005C0400208004002092
:10024800BD14000870B504209CB00121C0F2400024
:1002580000F0E2FC01214FF4806000F015FD42F24D
:100268004C23C4F20103029340F27843C2F2000324
:1002780003934FF40063089346F210454FF400537C
:10028800C4F2020509934FF48073002601244FF04D
:100298008062284601A90A934FF4003301920B9318
:1002A80004960594069607960C960D940E960F964E
:1002B80000F00CFA2846214600F064FA04234FF4B3
:1002C80000601AA91A93C4F2020003234FF40855D8
:1002D800C4F201058DF86C308DF86F6001F020F8DC
:1002E80016A8169617961896199600F0E9FD10A903
:1002F800284610968DF844608DF84540129614965D
:100308008DF8544000F0A8FD2246334628460C21BB
:1003180000F02AFE2846214600F0B2FE2846214673
:1003280000F0A4FE2846214600F0E6FD1CB070BD92
:100338004FF46053C4F202030022196841F001012E
:1003480019609A60186843F2100120F08470C2F2B4
:10035800004120F4803018605960196882B021F497
:1003680080211960DA60009201921A6842F48032A2
:100378001A601A4603E0009BB3F5A06F09D0136812
:1003880003F400330193009B01330093019B002B7E
:10039800F1D04FF46053C4F202031B6813F4003326
:1003A80008BF019301D001230193019B012B08D0C1
:1003B8004FF46D43CEF200034FF000629A6002B032
:1003C80070474FF46053C4F202034FF4E042196CD3
:1003D800C4F2000241F080511964116841F480416F
:1003E80011609A689A609A6842F400429A60996823
:1003F80044F6080241F4A051C0F2406299605A6084
:100408001A6842F080721A6019460A684FF46053FD
:100418009201C4F20203F8D54FF47052C4F20202FA
:1004280040F2056111609A6822F003029A609A68A6
:1004380042F002029A609A6802F00C02082AFAD185
:10044800B6E700BF4FF46053C4F202039A6802F0A3
:100458000C02042A04BF47F64001C0F27D1106D001
:10046800082A1CBF4FF41051C0F2F4010BD04FF40E
:100478006052C4F20202154B9268C2F303129A5CEE
:10048800D1401961704758685A6810F4800F58684D
:1004980015BF47F640034FF41053C0F27D13C0F266
:1004A800F40302F03F02B3FBF2F14FF46053C4F2DD
:1004B8000203C0F388105B68C3F30143013301FBF7
:1004C80000F15B00B1FBF3F1D1E700BF04000020AD
:1004D8000818000800000020580400205C040020D0
:1004E80080040020016846F21002002321F0010177
:1004F800C4F202020160036043608360C360036169
:100508002123904243616BD046F22803C4F20203D0
:1005180098426CD046F24003C4F2020398426ED06F
:1005280046F25803C4F20203984270D046F27003B0
:10053800C4F20203984272D046F28803C4F202035E
:10054800984275D046F2A003C4F2020398423ED006
:1005580046F2B803C4F20203984273D046F210433D
:10056800C4F20203984275D046F22843C4F202034B
:10057800984276D046F24043C4F20203984278D0BB
:1005880046F25843C4F2020398427AD046F27043C6
:10059800C4F2020398427CD046F28843C4F20203B4
:1005A80098427FD046F2A043C4F20203984200F07A
:1005B800838046F2B843C4F20203984201BF4FF465
:1005C800C843C4F202034FF03D52DA6070474FF45B
:1005D800C043C4F202030022C2F23D02DA6070474F
:1005E8004FF4C043C4F202033D229A6070474FF4AF
:1005F800C043C4F202034FF474629A6070474FF428
:10060800C043C4F202034FF474129A6070474FF467
:10061800C043C4F202034FF074629A6070474FF40B
:10062800C043C4F202033D22C2F20002DA607047FE
:100638004FF4C043C4F202034FF47462C2F20002E2
:10064800DA6070474FF4C043C4F202034FF03D52E2
:10065800DA6070474FF4C843C4F202033D229A603F
:1006680070474FF4C843C4F202034FF474629A60AF
:1006780070474FF4C843C4F202034FF474129A60EF
:1006880070474FF4C843C4F202034FF074629A6093
:1006980070474FF4C843C4F202033D22C2F200027D
:1006A800DA6070474FF4C843C4F202034FF474622F
:1006B800C2F20002DA6070474FF4C843C4F2020382
:1006C8000022C2F23D02DA60704700BF2DE9F00F48
:1006D800D1F80CA0D1F80090D1F81480D1F818C046
:1006E800CF6903680E6A4D6A8C6A4A6BD1F838B0D4
:1006F8004AEA090949EA080986B049EA0C0949EAB7
:100708000709019349EA06090B6B49EA05052C43D9
:100718000493CB6A049D0593224348F23F08019C49
:100728000B69CFF21C0804EA080842EA0B0202939C
:1007380042EA08024B68896802600393059C436992
:1007480045EA040223F0070313434361029D039B18
:1007580045608360C16006B0BDE8F00F704700BF18
:100768000023036043608360C36003614361836166
:10077800C361036243628362C36203634363836347
:10078800704700BF036819B923F00103036070477D
:1007980043F0010303607047036819B923F4004369
:1007A8000360704743F4004303607047036819B956
:1007B80023F020030360704743F020030360704771
:1007C80041607047406880B2704700BF036822B933
:1007D80023F4002303600161704743F4002303609E
:1007E80001617047036819B923F4802303607047D7
:1007F80043F48023036070470AB9C1607047016100
:10080800704700BF0068C0F3C0407047006800F040
:1008180001007047406900F03800704710B44FF489
:10082800C84246F20F444FF4C043C4F20202C4F275
:100838000204C4F20203A04288BF13468A004CBFD8
:100848005B681B6821F0F02121F0821119420CBF6E
:100858000020012010BC704710B44FF4C84246F283
:100868000F444FF4C043C4F20204C4F20202C4F2BB
:100878000203A04288BF134611F0005F21F0F02167
:1008880021F0821114BFD960996010BC704700BF75
:100898000B0604D543697AB143F08003436180298C
:1008A80006D0036801F01E011AB923EA01010160AC
:1008B800704719430160704723F080034361EEE7F6
:1008C80070B44FF4C04246F20F454FF4C84421F0CB
:1008D800F023C4F20205C4F20204C4F2020223F0B7
:1008E800C316A84288BF2246AEB1006800F01E00B9
:1008F80000EAD12089004CBF5268126823F08213A5
:1009080013420CBF0023012300280CBF002003F072
:10091800010070BC7047406900F08000EAE700BF42
:1009280010B44FF4C84246F20F444FF4C043C4F227
:100938000204C4F20202C4F20203A04288BF1346B2
:1009480011F0005F21F0F02121F0821114BFD9606D
:10095800996010BC704700BF4FF46053C4F20203A3
:100968000022196841F0010119609A60186843F281
:10097800100120F08470C2F2004120F48030186029
:100988005960196821F480211960DA60704700BF46
:1009980043F60203C4F2020300221A70187070476B
:1009A80082B04FF4605100230193C4F202010A6837
:1009B800019B01330193019BB3F5A06F01D0930311
:1009C800F5D54FF46053C4F202031868C0F34040F1
:1009D80002B070474FF46053C4F202031A6822F061
:1009E800F80242EAC0021A60704700BF0023C4F24E
:1009F80047231860704700BF43F67003C4F2020330
:100A0800002201281A701A7004D0042801D1052286
:100A18001A707047187070474FF46863C4F2472320
:100A280018607047014341EA821200995B084FF44D
:100A3800605042EA0162013BC4F2020042EA03420A
:100A4800426070476023C4F247231860704700BFB4
:100A58004FF460538001C4F2020340EA0171C3F805
:100A6800841070476823C4F247231860704700BF9A
:100A78004C23C4F247231860704700BF4FF46053FB
:100A8800C4F202039A6822F0EC6202430A439A60B5
:100A9800704700BF4FF46053C4F202039A6822F013
:100AA800784202430A439A60704700BF4FF460538C
:100AB800C4F202039A6822F0030202439A60704764
:100AC8004FF46053C4F20203986800F00C007047BA
:100AD8004FF46053C4F202039A6822F0F002024312
:100AE8009A6070474FF46053C4F202039A6822F484
:100AF800E05202439A6070474FF46053C4F2020315
:100B08009A6822F4604242EAC0029A60704700BFC5
:100B18004FF46053C4F2020310B49A6802F00C0256
:100B2800042A02BF47F64002C0F27D12026006D0D6
:100B3800082A1ED04FF41052C0F2F40202604FF49B
:100B48006053C4F202031C499C68C4F303140C5D8F
:100B5800E24042609C68C4F382240C5D32FA04F4DB
:100B680084609B68C3F34233CB5CDA40C26010BC3C
:100B780070475C68596814F4800F5C6815BF47F6C5
:100B880040034FF41053C0F27D13C0F2F40301F098
:100B98003F01B3FBF1F24FF46053C4F20203C4F314
:100BA80088145B68C3F30143013302FB04F25B0062
:100BB800B2FBF3F20260C2E71800002000F44073B1
:100BC800B3F5407F0CD14FF46053C4F2020320F018
:100BD80070419A6821F4407122F4F8120A439A602D
:100BE8004FF46053C4F2020300051A6F000D10435E
:100BF8001867704740F63C63C4F247231860704793
:100C08004FF46463C4F24723186070474FF4AE731F
:100C1800C4F24723186070474FF46053C4F20203CC
:100C28001A6B19B922EA0000186370471043186359
:100C3800704700BF4FF46053C4F202035A6B19B9EE
:100C480022EA00005863704710435863704700BF9A
:100C58004FF46053C4F202039A6B19B922EA0000F8
:100C68009863704710439863704700BF4FF4605310
:100C7800C4F202031A6C19B922EA0000186470471A
:100C880010431864704700BF4FF46053C4F2020366
:100C98005A6C19B922EA0000586470471043586426
:100CA800704700BF4FF46053C4F202031A6919B9C0
:100CB80022EA00001861704710431861704700BFAE
:100CC8004FF46053C4F202035A6919B922EA0000CA
:100CD8005861704710435861704700BF4FF4605324
:100CE800C4F202039A6919B922EA000098617047B0
:100CF80010439861704700BF4FF46053C4F2020379
:100D08001A6A19B922EA000018627047104318627B
:100D1800704700BF4FF46053C4F202035A6A19B90E
:100D280022EA00005862704710435862704700BFBB
:100D38004FF46053C4F202031A6D19B922EA000095
:100D48001865704710431865704700BF4FF460532B
:100D5800C4F202035A6D19B922EA000058657047B7
:100D680010435865704700BF4FF46053C4F2020344
:100D78009A6D19B922EA0000986570471043986582
:100D8800704700BF4FF46053C4F202031A6E19B9DA
:100D980022EA00001866704710431866704700BFC3
:100DA8004FF46053C4F202035A6E19B922EA0000E4
:100DB8005866704710435866704700BF43F60D03E6
:100DC800C4F202031A7819B922EA000018707047B1
:100DD80010431870704700BF4309012B0ED0022B37
:100DE8004FF46053C4F202030CBF1B6F5B6F00F03B
:100DF8001F0033FA00F000F0010070474FF4605311
:100E0800C4F202031B68F2E74FF46053C4F2020312
:100E18005A6F42F080725A67704700BF4FF46053B0
:100E2800C4F20203DB6818420CBF0020012070479F
:100E380043F60E03C4F202031870704708B5012187
:100E48004FF48070FFF766FF4FF480700021BDE813
:100E58000840FFF75FBF00BFD0F804C00B684A79AD
:100E68002CF0407CF0B42CF4807C0D79CF680C69B0
:100E78008E684CEA030343EA0523436085684FF212
:100E8800FD733C43CCF2FF0334432B40234343EA36
:100E9800420383600B7DC26A013B22F47002DBB21D
:100EA80042EA0353C362F0BC704700BF00230360EB
:100EB800037143718360C360036101230375704745
:100EC80070B44FF40C5290E84200C4F201028568F5
:100ED8005468C06843F2E0033143CFF6FC732943FA
:100EE800234001430B43536070BC704700230360E9
:100EF80043608360C3607047836819B923F00103B6
:100F08008360704743F0010383607047436823F4AC
:100F1800400323F400730B434360704741628262CD
:100F2800704700BF436823F01F030B4343607047BB
:100F38004FF40C53C4F201035A6818B922F40002A2
:100F48005A60704742F400025A6070474FF40C53DD
:100F5800C4F201035A6818B922F480025A60704733
:100F680042F480025A607047092970B41ED901EB17
:100F780041041E3CC6680725A54026EA050513FA64
:100F880004F445EA0403062AC3601DD90C2A02EBBF
:100F9800820226D9413AC46A1F23934024EA0303F4
:100FA800914043EA0102C26270BC7047066901EBD6
:100FB80041040725A54026EA050513FA04F445EA85
:100FC8000403062A0361E1D8013A02EB8202446B6A
:100FD8001F23934024EA0303914043EA010242633A
:100FE800E2E7233A046B1F23934024EA030391406A
:100FF80043EA01020263D7E7836843F080438360D2
:10100800704700BF8068C0F380507047836819B983
:1010180023F480638360704743F480638360704780
:10102800836819B923F002038360704743F0020311
:10103800836070474368013923F4604343EA4131D0
:1010480041607047436819B923F4006343607047EF
:1010580043F4006343607047C06C80B2704700BFC0
:1010680042F20833C4F2010318687047836819B95B
:1010780023F480738360704743F480738360704700
:10108800836819B923F400738360704743F40073CD
:10109800836070474FF40C53C4F201035A6818B9BF
:1010A80022F400525A60704742F400525A60704766
:1010B800092970B41CD8066901EB41040725A5402D
:1010C80026EA050513FA04F445EA04030361836B71
:1010D800C3F30154121B0232D2B202EB82021F2464
:1010E800944023EA040391400B43836370BC704728
:1010F80001EB4104C6681E3C0725A54026EA050504
:1011080013FA04F445EA0403C360E0E7836B01398A
:1011180023F4401343EA01518163704782B00023EE
:1011280001930190019BCB180193019B1A6002B0B7
:10113800704700BF836823F470230B4383607047B4
:10114800836823F440130B4383607047836843F438
:1011580080038360704700BF8068C0F38050704789
:10116800436819B923F480634360704743F480638C
:1011780043607047436819B923F48053436070474C
:1011880043F480534360704782B000230193019079
:10119800019B28335B180193019B186880B202B049
:1011A800704700BF0123C9B213FA01F143681AB9A5
:1011B80023EA01014160704719434160704700BF4D
:1011C800036819420CBF002001207047C943016021
:1011D800704700BF4368006810EA112007D0012259
:1011E800C9B212FA01F119420CBF00200120704760
:1011F8006FEA11210160704708B50023C4F20203A9
:1012080098423CD04FF48063C4F20203984240D025
:101218004FF40063C4F20203984244D04FF4406391
:10122800C4F20203984248D04FF48053C4F2020338
:1012380098424CD04FF4A053C4F20203984250D0C5
:101248004FF4C053C4F20203984254D04FF4E05311
:10125800C4F20203984258D04FF40053C4F2020378
:10126800984200D008BD01214FF48070FFF71AFDA5
:101278004FF480700021BDE80840FFF713BD01203E
:101288000146FFF70FFD01200021BDE80840FFF7E8
:1012980009BD02200121FFF705FD02200021BDE85C
:1012A8000840FFF7FFBC04200121FFF7FBFC0420E6
:1012B8000021BDE80840FFF7F5BC08200121FFF731
:1012C800F1FC08200021BDE80840FFF7EBBC102026
:1012D8000121FFF7E7FC10200021BDE80840FFF7D7
:1012E800E1BC20200121FFF7DDFC20200021BDE822
:1012F8000840FFF7D7BC40200121FFF7D3FC40206E
:101308000021BDE80840FFF7CDBC80200121FFF790
:10131800C9FC80200021BDE80840FFF7C3BC00BF1E
:1013280000232DE9F0070A681C4601274FF003083F
:1013380003E001340233102C2BD017FA04F505EA28
:101348000206AE42F5D1D0F8009091F804C008FA30
:1013580003F5ED4305EA0909C0F80090D0F80090BC
:101368000CFA03FA0CF1FF3C4AEA0909BCF1010F37
:10137800C0F8009010D9C66891F807C03540C5601C
:10138800C6680CFA03F5013435430233102CC560E6
:10139800D3D1BDE8F0077047D0F808A091F80590C0
:1013A80091F806C005EA0A0AC0F808A0D0F808A013
:1013B80009FA03F949EA0A09C0F80890D0F8049034
:1013C80029EA0606466046680CFA04FC1FFA8CFCFB
:1013D8004CEA06064660CEE700234FF6FF7202602D
:1013E800037143718371C371704700BF82B04FF4BA
:1013F80080330193019B0B430193019BC361C1613E
:10140800019BC361C3690193C369019302B070472B
:10141800036919420CBF002001207047006980B29F
:10142800704700BF436919420CBF00200120704774
:10143800406980B2704700BF01837047418370479D
:101448000AB9418370470183704700BF4161704703
:1014580043694B4043617047CB08083301F00701EB
:1014680030B4890050F823500F248C4025EA040436
:1014780040F8234050F8234012FA01F10C4340F899
:10148800234030BC704700BF014600200246034697
:1014980000F096B808B50021044600F0E9F8044BBE
:1014A8001868C36B03B19847204600F0A2E900BF53
:1014B800D417000838B5084D084C641BA41006D092
:1014C80005EB840555F8043D9847013CFAD1BDE881
:1014D800384000F087B900BF041800080818000851
:1014E80070B50E4D0E4E761BB61007D0043D002485
:1014F80055F8043F01349847A642F9D1094D0A4EE0
:10150800761B00F069F9B61007D0043D002455F8A1
:10151800043F01349847A642F9D170BD001800086D
:1015280000180008001800080418000810F0030F3D
:1015380070B4034642D0002A3ED0013ACDB203E04F
:10154800541E002A38D0224603F8015B13F0030F1B
:101558001C46F5D1032A29D9CDB20F2A45EA05251B
:1015680045EA054584BF2346164611D9103E1D603D
:101578005D609D60DD6010330F2EF7D8A2F1100377
:1015880023F00F0302F00F021033032A1C440DD975
:1015980026461346043B032B46F8045BFAD8131F70
:1015A80023F00303043302F00302E418C9B21AB1AA
:1015B800013A04F8011BFBD170BC70470446C9E727
:1015C8002DE9F041284C2568D5F8484184B00646F5
:1015D800002C43D060681F281DDD244810B94FF047
:1015E800FF301FE04FF4C870039102920193AFF3EC
:1015F80000800399029A019B04460028EFD0D5F891
:101608004801002784E88100C5F848413846C4F8F5
:101618008871C4F88C7146B9831C013044F82310D2
:101628006060002004B0BDE8F08104EB800801256B
:101638008540022ED4F888C1C8F8083108BFD4F80C
:101648008C31C8F888204CEA050C08BF1D43474672
:10165800C4F888C108BFC4F88C51DDE705F5A67445
:10166800C5F84841B6E700BFD417000800000000DD
:101678002DE9F04F334B83B01B68019000930E4661
:101688004FF0010B009BD3F84871BFB103F5A47963
:101698007D686C1E0CD407F1880A1F350AEB850596
:1016A8007EB12B68B3420CD0013C043D631CF7D1DA
:1016B80040F20003C0F20003002B30D103B0BDE8B4
:1016C800F08F7968CAEB0502BA180139A14252F8BD
:1016D800783C08BF7C6002D0002142F8781C002BBF
:1016E800E2D0D7F88811D7F804800BFA04F20A423E
:1016F8000FD0D7F88C110A420DD1019855F8801CEB
:1017080098477B684345BDD1D9F80030BB42CBD060
:10171800B8E79847F5E755F8800C9847F1E77B68F4
:101728005BB93B6853B13846C9F80030AFF3008065
:10173800D9F80070002FABD1C0E73B68B9461F4607
:10174800F8E700BFD417000838B5FEF77BFD4FF463
:101758000850C4F20100FFF74FFC8120074A40F609
:10176800E444C8F2080013889BB204FB03F380FB2F
:101778000351CB18DB125360F5E700BF7804002053
:10178800002103E00B4B5B58435004310A480B4BD4
:1017980042189A42F6D30A4A02E0002342F8043B70
:1017A800084B9A42F9D3FEF7C3FDFFF799FEFFF7FE
:1017B800CBFF7047081800080000002058040020DC
:1017C8005C04002080040020FEE7000030000020B8
:1017D8004300000000000000F8B500BFF8BC08BCDA
:1017E8009E467047F8B500BFF8BC08BC9E467047D7
:0817F800E4E9FF7F010000009D
:04180000AD0100082E
:04180400890100084E
:1018080000000000000000000000000001020304C6
:1018180006070809004495080000000001020304B7
:101828000102030406070809300000200000000038
:10183800000000001C03002084030020EC030020AB
:101848000000000000000000000000000000000090
:101858000000000000000000000000000000000080
:1018680000000000D8170008000000000000000079
:101878000000000000000000000000000000000060
:101888000000000000000000000000000000000050
:101898000000000000000000000000000000000040
:1018A8000000000000000000000000000000000030
:1018B8000000000000000000000000000000000020
:1018C8000000000000000000000000000000000010
:1018D80000000000000000000100000000000000FF
:1018E8000E33CDAB34126DE6ECDE05000B000000C4
:1018F80000000000000000000000000000000000E0
:1019080000000000000000000000000000000000CF
:1019180000000000000000000000000000000000BF
:1019280000000000000000000000000000000000AF
:041C60000000000080
:04000005080017894F
:00000001FF
