:020000040800F2
:1000000000000220011100081F050008210500085A
:10001000230500082505000827050008000000004A
:10002000000000000000000000000000290500089A
:100030002B050008000000002D0500082F05000812
:1000400055110008551100085511000855110008F8
:1000500055110008551100085511000855110008E8
:1000600055110008551100085511000855110008D8
:1000700055110008551100085511000855110008C8
:1000800055110008551100085511000855110008B8
:1000900055110008551100085511000855110008A8
:1000A0005511000855110008551100085511000898
:1000B0005511000855110008551100085511000888
:1000C0005511000855110008551100085511000878
:1000D0005511000855110008551100085511000868
:1000E0005511000855110008551100085511000858
:1000F0005511000855110008551100085511000848
:100100005511000855110008551100085511000837
:100110005511000855110008551100085511000827
:100120005511000855110008551100085511000817
:100130005511000855110008551100085511000807
:1001400055110008551100085511000855110008F7
:1001500055110008551100085511000855110008E7
:1001600055110008551100085511000855110008D7
:1001700055110008551100085511000855110008C7
:0801800055110008551100089B
:1001880010B5054C237833B9044B13B10448AFF3C9
:1001980000800123237010BD7404002000000000BB
:1001A8008811000808B5064B1BB106480649AFF38D
:1001B80000800648036813B1054B03B1984708BD92
:1001C8000000000088110008780400207004002056
:1001D80000000000154B002B08BF134B9D46A3F5EC
:1001E800803A4FF000018B460F461348134AA2EBA2
:1001F800000200F079F80E4B002B00D098470D4B09
:10020800002B00D098474FF000004FF00001044643
:100218000D460B4800F016F800F040F82046294635
:1002280000F01EFF00F014F80000080000000000B5
:100238000000000000000000740400209C0400205E
:1002480079020008014600200246034600F096B8ED
:1002580008B50021044600F0E9F8044B1868C36BA0
:1002680003B19847204600F0F9FE00BF5811000876
:1002780038B5084D084C641BA41006D005EB84055E
:1002880055F8043D9847013CFAD1BDE8384000F0E4
:100298007FBF00BFB0110008B411000870B50E4D43
:1002A8000E4E761BB61007D0043D002455F8043FC7
:1002B80001349847A642F9D1094D0A4E761B00F041
:1002C80061FFB61007D0043D002455F8043F0134FF
:1002D8009847A642F9D170BDAC110008AC110008CE
:1002E800AC110008B011000810F0030F70B40346F9
:1002F80042D0002A3ED0013ACDB203E0541E002A73
:1003080038D0224603F8015B13F0030F1C46F5D1E1
:10031800032A29D9CDB20F2A45EA052545EA05451C
:1003280084BF2346164611D9103E1D605D609D604E
:10033800DD6010330F2EF7D8A2F1100323F00F035E
:1003480002F00F021033032A1C440DD92646134627
:10035800043B032B46F8045BFAD8131F23F003036E
:10036800043302F00302E418C9B21AB1013A04F8DE
:10037800011BFBD170BC70470446C9E72DE9F04169
:10038800284C2568D5F8484184B00646002C43D04F
:1003980060681F281DDD244810B94FF0FF301FE0AA
:1003A8004FF4C870039102920193AFF30080039950
:1003B800029A019B04460028EFD0D5F8480100278F
:1003C80084E88100C5F848413846C4F88871C4F803
:1003D8008C7146B9831C013044F8231060600020FA
:1003E80004B0BDE8F08104EB800801258540022EA9
:1003F800D4F888C1C8F8083108BFD4F88C31C8F8D7
:1004080088204CEA050C08BF1D434746C4F888C13C
:1004180008BFC4F88C51DDE705F5A674C5F8484156
:10042800B6E700BF58110008000000002DE9F04FA2
:10043800334B83B01B68019000930E464FF0010BBD
:10044800009BD3F84871BFB103F5A4797D686C1E91
:100458000CD407F1880A1F350AEB85057EB12B6895
:10046800B3420CD0013C043D631CF7D140F20003B9
:10047800C0F20003002B30D103B0BDE8F08F7968DB
:10048800CAEB0502BA180139A14252F8783C08BFF4
:100498007C6002D0002142F8781C002BE2D0D7F80B
:1004A8008811D7F804800BFA04F20A420FD0D7F863
:1004B8008C110A420DD1019855F8801C98477B6829
:1004C8004345BDD1D9F80030BB42CBD0B8E79847F7
:1004D800F5E755F8800C9847F1E77B685BB93B680E
:1004E80053B13846C9F80030AFF30080D9F800702E
:1004F800002FABD1C0E73B68B9461F46F8E700BFFD
:100508005811000882B00190019B5A1E0192002BDD
:10051800FAD102B070477047FEE7FEE7FEE7FEE754
:100528007047704770477047334B1A6842F00102B2
:100538001A6000229A60196821F0847121F48031D0
:1005480019602E495960196882B021F48021196018
:10055800DA60009201921A6842F480321A601A68CE
:1005680002F400320192009A01320092019A1AB9FB
:10057800009AB2F5A06FF2D11F4B1B6813F4003339
:1005880018BF01230193019B012B2ED11A4B1A6C22
:1005980042F080521A641A4A116841F4804111608D
:1005A8009A689A609A6842F400429A609A6842F49B
:1005B800A0529A60134A5A601A6842F080721A6010
:1005C80019680D4A8901FBD50F4B40F20561196086
:1005D800936823F003039360936843F002039360E6
:1005E800936803F00C03082BFAD1084B4FF0006214
:1005F8009A6002B0704700BF0038024010300024F3
:100608000070004008544007003C024000ED00E044
:10061800184B194A996801F00C01042903D00829DC
:1006280003D0164B19E0164B17E059685A6811F4B5
:10063800800F596814BF124B104B02F03F02B3FBF6
:10064800F2F30C4A5268C2F30142C1F38811013235
:1006580052004B43B3FBF2F3074A1360054B9A6809
:10066800054BC2F303129A181968127931FA02F28B
:100678001A60704700380240380400200024F40053
:1006880000127A0037B50E4D044655F8200005EBE8
:100698004405012100F05AFB2B8A009301238DF8B1
:1006A80004308DF8073002238DF80530054B002201
:1006B80053F824008DF80620694600F089F93EBDFC
:1006C8005C1100084C040020044A054B53F8203004
:1006D80002EB4000028A1A83704700BF5C110008D1
:1006E8004C040020044A054B53F8203002EB40002C
:1006F800028A5A83704700BF5C1100084C0400202E
:100708000549064B53F8203001EB40005A69018A2D
:100718004A405A61704700BF5C1100084C04002031
:1007280070B50646012086B00D46014600F00EFB66
:1007380001214FF4804000F039FB06A9012341F85C
:10074800143D154B03EB8606002430698DF80840EC
:100758008DF80B4000F03CF9012D1BD120462146B5
:1007680000F03AF8082303A88DF8113003958DF8A6
:1007780010408DF8125000F0F9FB06238DF8143064
:1007880005A80F238DF815308DF816308DF8175001
:1007980000F05AF806B070BD4C04002008B5044BB0
:1007A80003EB80030121186900F071F908BD00BF4F
:1007B8004C04002008B501214FF4804000F032FBC2
:1007C8004FF480400021BDE8084000F02BBB014BEE
:1007D800186070470038014001F0030289080A4B8D
:1007E800023130B5920053F821500F24944025EA85
:1007F800040443F8214053F8214010FA02F214434C
:1008080043F8214030BD00BF00380140014B18605B
:10081800704700BFDC002742014B1860704700BFDB
:1008280000042742024B186AC0F30020704700BF3B
:100838000038014040F0BF60024B40F40030D860FF
:10084800704700BF00ED00E0C37810B50BB3174B3D
:100858004278DB688478DB43C3F30223C3F10401E5
:10086800C9B212FA01F10F221A410378C9B2224023
:100878000A4303F1604303F561431201D2B283F8DE
:10088800002303780122590903F01F0312FA03F326
:1008980007E003780122590903F01F0312FA03F352
:1008A8002031034A42F8213010BD00BF00ED00E0BE
:1008B80000E100E021F0604121F07F01014B01439C
:1008C8009960704700ED00E0044B1A6909B11043C4
:1008D80001E022EA00001861704700BF00ED00E067
:1008E800044B1A6804280CBF42F0040222F00402E8
:1008F8001A60704710E000E008B52C4B984205D10B
:100908000120014600F05EFA012048E0284B984299
:1009180005D10220012100F055FA02203FE0254BC5
:10092800984205D10420012100F04CFA042036E059
:10093800214B984205D10820012100F043FA0820F4
:100948002DE01E4B984205D11020012100F03AFA03
:10095800102024E01A4B984205D12020012100F0F4
:1009680031FA20201BE0174B984205D14020012185
:1009780000F028FA402012E0134B984205D180205D
:10098800012100F01FFA802009E0104B98420BD19A
:100998004FF48070012100F015FA4FF480700021A7
:1009A800BDE8084000F00EBA08BD00BF00000240D4
:1009B8000004024000080240000C024000100240FF
:1009C8000014024000180240001C024000200240AF
:1009D8002DE9F0470023D1F800801A464FF0010CAA
:1009E80003270CFA02F404EA0805A5422ED106688A
:1009F80017FA03F4E443264006600E79D0F8009015
:100A080006FA03FA013E4AEA0909012EC0F80090E5
:100A180014D8866891F8059026408660866809FA99
:100A280003F949EA06068660466826EA0505456030
:100A38008D7946689540ADB235434560C5682C4010
:100A4800C460CC79C5689C402C43C4600132023331
:100A5800102AC6D1BDE8F0874FF6FF730360002364
:100A6800037143718371C371704782B04FF480334F
:100A78000193019B0B430193019BC361C161019BDE
:100A8800C361C3690193C369019302B070470369E5
:100A980019420CBF002001207047006980B27047DE
:100AA800436919420CBF002001207047406980B299
:100AB800704701837047418370470AB101837047CB
:100AC800418370474161704743694B4043617047B8
:100AD80001F00703C908083130B59B0050F82150D0
:100AE8000F249C4025EA040440F8214050F8214096
:100AF80012FA03F31C4340F8214030BD0A4B1A6830
:100B080042F001021A6000229A60196821F084718B
:100B180021F48031196005495960196821F4802150
:100B28001960DA60704700BF0038024010300024B6
:100B3800024B00221A701870704700BF023802403A
:100B4800034B1A6822F0F80242EAC0021A607047A2
:100B580000380240014B1860704700BF0000474250
:100B6800064B002201281A701A7002D0042804D1FA
:100B780001E01870704705221A70704770380240FB
:100B8800014B1860704700BF800E4742014341EA9D
:100B9800821200995B08013B42EA016141EA034184
:100BA800014B5960704700BF00380240014B186084
:100BB800704700BF600047428001034B40EA017163
:100BC800C3F88410704700BF00380240014B18601A
:100BD800704700BF68004742014B1860704700BF6C
:100BE8004C004742034B9A6822F0EC6202430A43E6
:100BF8009A60704700380240034B9A6822F07842A6
:100C080002430A439A60704700380240034B9A68CF
:100C180022F0030202439A60704700BF0038024086
:100C2800024B986800F00C00704700BF0038024083
:100C3800034B9A6822F0F00202439A60704700BFA3
:100C480000380240034B9A6822F4E05202439A604B
:100C5800704700BF00380240034B9A6822F4604294
:100C680042EAC0029A607047003802401E4B9A68F8
:100C780002F00C02042A10B503D0082A03D01B4B3B
:100C880018E01B4B16E059685A6811F4800F596830
:100C980014BF174B154B02F03F02B3FBF2F3124A95
:100CA8005268C2F30142C1F3881101324B4352002A
:100CB800B3FBF2F30C4903608B680E4A0468C3F374
:100CC8000313D35C34FA03F343608C68C4F38224BF
:100CD800145D33FA04F484608968C1F34231525CCC
:100CE800D340C36010BD00BF003802400024F400A8
:100CF80000127A006004002000F44073B3F5407FCE
:100D0800084B08D1996820F0704221F4F81122F4B8
:100D180040720A439A601A6F000542EA1050186739
:100D2800704700BF00380240014B1860704700BF91
:100D38003C0E4742014B1860704700BF400E4742C7
:100D4800014B1860704700BF5C014742044B1A6BA7
:100D580009B1104301E022EA00001863704700BFA0
:100D680000380240044B5A6B09B1104301E022EAF3
:100D780000005863704700BF00380240044B9A6B6C
:100D880009B1104301E022EA00009863704700BFF0
:100D980000380240044B1A6C09B1104301E022EA02
:100DA80000001864704700BF00380240044B5A6CBA
:100DB80009B1104301E022EA00005864704700BFFF
:100DC80000380240044B1A6909B1104301E022EAD5
:100DD80000001861704700BF00380240044B5A6990
:100DE80009B1104301E022EA00005861704700BFD2
:100DF80000380240044B9A6909B1104301E022EA25
:100E080000009861704700BF00380240044B1A6A1E
:100E180009B1104301E022EA00001862704700BFE0
:100E280000380240044B5A6A09B1104301E022EA33
:100E380000005862704700BF00380240044B1A6D2A
:100E480009B1104301E022EA00001865704700BFAD
:100E580000380240044B5A6D09B1104301E022EA00
:100E680000005865704700BF00380240044B9A6D77
:100E780009B1104301E022EA00009865704700BFFD
:100E880000380240044B1A6E09B1104301E022EA0F
:100E980000001866704700BF00380240044B5A6EC5
:100EA80009B1104301E022EA00005866704700BF0C
:100EB80000380240044B1A7809B1104301E022EAD5
:100EC80000001870704700BF0D3802404309012B1D
:100ED800074A01D1136803E0022B0CBF136F536F4D
:100EE80000F01F0033FA00F000F00100704700BF67
:100EF8000038024007B5002301933120FFF7E6FFD1
:100F0800019B01330193019BB3F5A06F01D0002829
:100F1800F3D03120FFF7DAFF003018BF01200EBDF3
:100F2800024B5A6F42F080725A677047003802408D
:100F3800034BDB6818420CBF00200120704700BF3C
:100F480000380240014B1870704700BF0E3802404D
:100F5800044B00221A605A609A60DA60024A5A61A9
:100F6800704700BF003C0140FFFF7F00837910B548
:100F7800002B29D01A4B01681C68CA4314401C6016
:100F88005C6822405A60027902F1804202F59E3282
:100F980014682143116002689C68D1430C409C602E
:100FA800DC682140D9604179102906D1996811433C
:100FB8009960D9680A43DA6010BD01F1804303F5EE
:100FC8009E3319680A4308E00379016803F18043F6
:100FD80003F59E331A6822EA01021A6010BD00BFA9
:100FE800003C014000230C220360037142718371AD
:100FF8007047024B1A6902431A617047003C01406E
:10100800034B5B6918420CBF00200120704700BFEA
:10101800003C0140014B5861704700BF003C014053
:10102800054B1A685B69034004D010420CBF0020CE
:101038000120704718467047003C0140014B586139
:10104800704700BF003C0140B411000800000020B8
:1010580070040020740400209C040020FEE700BFF8
:1010680008B5214BD3F8882042F47002C3F88820D1
:1010780008200121FFF76AFE1C491D484FF4704300
:101088000B6001230B71032200238B714A71CB7112
:10109800FFF79EFC4FF480411548FFF70AFD1548FD
:1010A800FFF730FA4FF400511148FFF702FD1148DD
:1010B800FFF728FA4FF480510D48FFF7FAFC0D4866
:1010C800FFF720FA4FF400410948FFF7F2FC0948FE
:1010D800FFF718FA06484FF47041FFF7ECFC054893
:1010E800FFF710FAD6E700BF00ED00E090040020FB
:1010F800000C0240FFFF3F00002103E00D4B5B584E
:10110800435004310C480D4B42189A42F6D30C4A0E
:1011180002E0002342F8043B0A4B9A42F9D30A48FA
:10112800016841F470010160FFF7FEF9FFF798FFCD
:1011380070470000B411000800000020700400206F
:10114800740400209C04002088ED00E0FEE7000005
:10115800100000200800000008000000080000003F
:101168000800000000100020004000800600000079
:101178000100000001000000010000004300000021
:1011880000000000F8B500BFF8BC08BC9E467047D8
:0C119800F8B500BFF8BC08BC9E467047CC
:0811A40038F0FF7F010000009C
:0411AC00AD01000889
:0411B00089010008A9
:1011B40000000000000000001000002000000000FB
:1011C40000000000FC02002064030020CC03002087
:1011D400000000000000000000000000000000000B
:1011E40000000000000000000000000000000000FB
:1011F400000000008411000800000000000000004E
:1012040000000000000000000000000000000000DA
:1012140000000000000000000000000000000000CA
:1012240000000000000000000000000000000000BA
:1012340000000000000000000000000000000000AA
:10124400000000000000000000000000000000009A
:10125400000000000000000000000000000000008A
:101264000000000000000000010000000000000079
:101274000E33CDAB34126DE6ECDE05000B0000003E
:10128400000000000000000000000000000000005A
:10129400000000000000000000000000000000004A
:1012A400000000000000000000000000000000003A
:1012B400000000000000000000000000000000002A
:1015E4000000000000000000007A030A0000000070
:1015F400000000000102030406070809000C024071
:10160400000C0240000C0240000C024000000240AA
:101614000000000001020304010203040607080994
:0416240000000000C2
:0400000508001101DD
:00000001FF
