:020000040800F2
:1000000000000220DD4B02082D4C02082D4C020896
:100010002D4C02082D4C02082D4C02080000000057
:100020000000000000000000000000002D4C02084D
:100030002D4C0208000000002D4C02082D4C020837
:100040002D4C02082D4C02082D4C02082D4C0208A4
:100050002D4C02082D4C02082D4C02082D4C020894
:100060002D4C02082D4C02082D4C02082D4C020884
:100070002D4C02082D4C02082D4C02082D4C020874
:100080002D4C02082D4C02082D4C02082D4C020864
:100090002D4C02082D4C02082D4C02082D4C020854
:1000A0002D4C02082D4C02082D4C02082D4C020844
:1000B000AD020008F90B0008690300082D4C020886
:1000C0002D4C02082D4C02082D4C02082D4C020824
:1000D0002D4C02082D4C02082D4C02082D4C020814
:1000E0002D4C02082D4C02082D4C02082D4C020804
:1000F0002D4C02082D4C02082D4C02082D4C0208F4
:100100002D4C02082D4C02082D4C02082D4C0208E3
:100110002D4C02082D4C0208D90300082D4C020872
:100120002D4C02082D4C02082D4C02082D4C0208C3
:100130002D4C02082D4C02082D4C02082D4C0208B3
:100140002D4C02082D4C02082D4C02082D4C0208A3
:100150002D4C02082D4C02082D4C02082D4C020893
:100160002D4C02082D4C02082D4C02082D4C020883
:100170002D4C02082D4C02082D4C02082D4C020873
:080180002D4C02082D4C020871
:1001880010B5054C237833B9044810B10448AFF3CF
:1001980000800121217010BDA4040020000000008F
:1001A800088A020808B5064B1BB106480649AFF392
:1001B80000800648016811B1054A02B1904708BDA0
:1001C80000000000088A0208A8040020A0040020FB
:1001D80000000000154B002B08BF134B9D46A3F5EC
:1001E800803A00218B460F461348144A121A24F00D
:1001F800F3FD0F4B002B00D098470E4B002B00D07F
:1002080098470020002104460D4600200C49002292
:10021800002324F009FD24F095FD2046294624F00A
:1002280057FC24F057FD00BF000008000000000044
:100238000000000000000000A4040020FC7C002056
:10024800FD4C02080000000082B00190019B5A1E7C
:100258000192002BFAD102B0704700BF4FF46143FE
:10026800CEF200034FF460521968C4F2020241F062
:1002780080501860116C4FF0804341F00100106409
:10028800FF221A85998988B240F001024FF6FF7162
:100298009A81D962188882B242F0810101201980BE
:1002A800988270474FF08043188AC30707D54FF4E8
:1002B8004061C4F202014A6982F400534B614FF075
:1002C80080410020088270474FF46143CEF200035A
:1002D8004FF460521968C4F2020241F000501860ED
:1002E800116C4FF48063C4F2000341F00200106403
:1002F80010221A85998988B240F001024FF47F4193
:100308009A81D962188882B242F08101012019804D
:10031800988270474FF46143CEF200034FF4605265
:100328001968C4F2020241F080401860116C4FF461
:100338000063C4F2000341F00400106400221A852F
:10034800998988B240F00102FF219A81D962188800
:1003580082B242F08101012019809882704700BF63
:100368004FF40063C4F200031A8A00221A8270470D
:100378004FF46143CEF200034FF46052C4F202021C
:100388004FF480015960106C4FF48053C4F200039D
:1003980040F0100111644FF480700222DA6218856F
:1003A80099898AB242F00100988119888AB242F08C
:1003B80081001880998821F070021004010C99803E
:1003C8009A8890B240F02001012299809A82704761
:1003D8002DE9F84F4FF480532DED048BC4F2000340
:1003E800188AC20740F18D814FF44063C4F20203BA
:1003F800DFF88C935A69DFF88C8382F480425A6163
:10040800D94BB9F80610186808EE101A23F09EFFA9
:10041800D9F8083044F6D352C1F262020F4682FB83
:100428000312D917C1EBE2124FF4FA6101FB123340
:1004380041F6FC52C2F2000202EB8303064618683A
:1004480023F084FFC6A3D3E9002304460D463046B3
:10045800394623F01DFE22462B4623F0CBFFB8F881
:1004680002B0B8F80630B8F800A0B8F804705B44D9
:100478009BB2B3FBFAF20AFB123303FB07F341F218
:1004880007229BB2C8F230020D46A2FB0312D20A21
:1004980040F6FA7606FB12339EB207EE906AFBEE40
:1004A800EA7AF7EE008ABBEECA8A77EEE87A044663
:1004B80067EE887A17EE900A23F048FF22462B460B
:1004C80023F0E6FD24F078FA00EE100AB4EEE80A0C
:1004D800F1EE10FA40F31F819FEDA40A06EB0B0121
:1004E8008EB2B6FBFAF20AFB126303FB07F041F285
:1004F800072186B2C8F23001A1FB0612D30A40F6E2
:10050800FA7000FB13618EB200EE906AFBEEEA0A05
:10051800F7EE008A30EEE81A09EE106A61EE081A62
:10052800934E11EE900A86ED000A23F00FFF224643
:100538002B4623F0ADFD24F03FFA00EE100AB4EE8E
:10054800E80AF1EE10FA40F37A819FED880A19EE75
:10055800102A02EB0B0398B2B0FBFAF10AFB110266
:1005680002FB07F341F207209BB2C8F23000A0FB60
:100578000312D00A40F6FA7101FB10339AB202EE68
:10058800902AFBEEEA2AF7EE008A32EEE83A86ED88
:10059800010A23EE080A09EE102A10EE100A23F0C9
:1005A800D5FE22462B4623F073FD24F005FA00EE13
:1005B800100AB4EEE80AF1EE10FA40F336819FED26
:1005C8006B0A19EE100A83441FFA8BFBBBFBFAF186
:1005D8000AFB11BC0CFB07F741F20723BAB2C8F2B9
:1005E8003003A3FB0210C10A40F6FA7707FB112378
:1005F8009FB204EE107ABBEEEA4AF7EE008A74EE78
:10060800684A86ED020A24EE885A15EE100A23F08D
:100618009DFE22462B4623F03BFD24F0CDF900EE4B
:10062800100AB4EEE80AF1EE10FA40F3F4809FEDF8
:100638004F0A504C50484E49A8F8067022460423E9
:1006480086ED030A44F6D3550AF0E4FDD9F80860AC
:1006580094ED000AC1F26205B7EE008A85FB062018
:10066800B4EEC80AF217C2EBE0114FF4FA63F1EEE8
:1006780010FA03FB116740F3B9809FED3C0A40F67E
:100688001C6094ED011AB7EE008A3C4DB4EEC81A0E
:10069800F1EE10FA84ED000A288040F390809FED77
:1006A800330A40F61C6194ED024AB7EE008AB4EEB4
:1006B800C84AF1EE10FA84ED010A698068DD9FED01
:1006C8002B0A40F61C60D4ED036AB7EE008AF4EEFC
:1006D800C86AF1EE10FA84ED020AA88026DD9FEDC3
:1006E800230A40F61C6341F6FC51C2F2000101EBFB
:1006F800870A013684ED030A8AED000AEB80C9F8FF
:1007080008604FF48050C4F2000000220282BDEC61
:10071800048BBDE8F88FFFEE007AB4EEE70AF1EE3D
:1007280010FA00F1968024F0FFFDD7E6BFEE007ABC
:10073800F4EEC76AF1EE10FA00F1A680B0EE660A90
:1007480024F0F2FDDFED107A70EE080A20EEA71A09
:10075800BCEEC18A18EE102A93B2C4E7AFF300804A
:100768009A9999999999A93F3C3D002092D6433F7F
:100778007C7C0020BC3D0020B03D0020F07C0020A7
:10078800C0040020947C002000E0FF4492D643BFC0
:10079800BFEE000AB4EEC04AF1EE10FA6FD4B0EE24
:1007A800440A24F0C1FD1FED085A70EE084A64EEB1
:1007B800855ABCEEE56A16EE103A98B283E7FFEE6A
:1007C800001AB4EEE11AF1EE10FA53D4B0EE410A71
:1007D80024F0AAFD5FED142A30EE082A22EE223A10
:1007E800FCEEC33A13EE902A91B25CE7BFEE006AC2
:1007F800B4EEC60AF1EE10FA37D424F095FD1FEDD9
:100808001E7A70EE086A66EE877AFCEEE70A10EE4A
:10081800905AA8B235E7FFEE005AB4EEE50AF1EEB9
:1008280010FA1FD424F080FD03E7FFEE003AB4EE7F
:10083800E30AF1EE10FA12D424F076FDC1E6BFEE19
:10084800002AB4EEC20AF1EE10FA05D424F06CFDC9
:100858007DE61FED320A41E61FED340A77E61FED0B
:10086800350AAEE61FED370AE3E61FED380A40F217
:10087800E11006E71FED3B0A40F2E11113E71FED17
:100888003D0A40F2E1101EE71FED400A40F2E11375
:1008980029E700BF38B50120014600F051FE43F6B4
:1008A800F453C2F200030020024603243025C4F2A8
:1008B800020019461D601C715C719A71DA71BDE8FD
:1008C800384023F091BA00BF38B50420012100F068
:1008D80037FE43F6F453C2F200034FF400600324DA
:1008E80000220F25C4F2020019461D601C715C71BC
:1008F800DA719A71BDE8384023F076BA10B508204D
:10090800012100F01DFE43F6F453C2F200034FF438
:1009180070441C604FF44060012400221C71C4F232
:100928000200032419465C719A71DA71BDE810401F
:1009380023F05ABA70B501214FF4806000F038FEF8
:1009480047F6E043C2F20003002418461C605C60CE
:100958009C60DC6000F0EAFF40F20402C2F2000290
:1009680043F6CC534FF40855C2F20003C4F2010514
:1009780012681C600126194628461E715E719C602B
:100988001C611A75DC6000F09FFF28460A21324678
:10099800234601F021F828460B210222234601F0C4
:1009A8001BF828460C210322234601F015F80422DF
:1009B800234628460D2101F00FF82846314601F05C
:1009C8009DF82846314601F08FF828463146BDE8A3
:1009D800704000F0C9BF00BFF8B546F2A00401217D
:1009E800C4F202044FF4001000F0AAFD204601F002
:1009F8004BFA47F69C43C2F2000347F21446C4F28E
:100A080000065E6047F6F046C2F200069E60402689
:100A1800DE6004261E614FF480669E614FF4006616
:100A2800DE614FF400561E624FF4807600220125E5
:100A3800204619465E624FF060674FF400361F602B
:100A48005A619E62DA621D635A639A6301F012FB6F
:100A580020462946BDE8F84001F052BBF8B501210F
:100A68004FF4800000F06CFD47F69C43C2F200038F
:100A780042F24C26C4F201065E6040F2C046C2F261
:100A8800000640F204029E60C2F200024FF4806643
:100A98009E614FF400661068DE6146F210444FF420
:100AA8000056C4F202041E624FF4807600221861D8
:100AB8000125204619465E624FF080674FF40036E4
:100AC8001F60DA605A619E62DA621D635A639A6334
:100AD80001F0D0FA20462946BDE8F84001F010BBE5
:100AE80010B501214FF0005000F054FD43F6E453D7
:100AF800C2F2000300221946102004241C605A6028
:100B0800DA6001F0C9F81020012101F0E7F810209F
:100B18000121BDE8104001F065B900BF2DE9F041A1
:100B28002DED048B8046006C23F010FC41EC100B7B
:100B380041EC180B24F03CFB57EC106BB0EE480A64
:100B4800F0EE680A24F090FB51EC100B23F034FF10
:100B580023F0FCFB00230022C3F6E07323F04AFCD9
:100B68000446D8F860000D4623F0F0FB02460B4619
:100B78002046294623F03EFC23F01EFF08EE900A8B
:100B8800B7EE009A39EE688A3046394688ED088A09
:100B980023F012FF07EE900AB8EE007A27EE870AD4
:100BA80078EE890AB1EE406AF1EE486AC8EE204A4A
:100BB80080EE205AC0EEA05A86EE201AC6EEA01A81
:100BC80088ED090AC8ED0A0AC8ED0B0A88ED0C0A77
:100BD80088ED0D8AC8ED114A88ED125AC8ED135AEE
:100BE80088ED141AC8ED151ABDEC048BBDE8F08128
:100BF8002DE9F04F4FF480632DED028BC4F2000312
:100C080083B0188AC10740F1A5814FF44061C4F24E
:100C18000201854E4A69DFF8208282F400444C6163
:100C280035680027C8F80C70002D40D0B8F800309F
:100C38007E4A07EE103AA8F10200DFED7D7AB8EEA1
:100C4800470A00EB4504211A60EE270A8F1EA045CB
:100C5800C2ED000AC7F34000434626D070B14346B0
:100C680033F8021F01EE101AF8EE411AA34221EEE2
:100C7800A72A12EE10CA42F804CF16D09F1C588833
:100C88007B8806EE900A02EE903AB8EE663AF8EEE5
:100C9800623A23EE274A63EEA74ABB1C82ED014A5B
:100CA800C2ED024A0832A342E8D1C8F80C505F4CA2
:100CB800DFF888916268A168C9F840204846C9F8F9
:100CC8006010FFF72BFFD9F8440023F03FFB52A335
:100CD800D3E9002323F08EFB074670680D4623F006
:100CE80035FB4FA3D3E9002323F084FB02460B46D0
:100CF8003846294623F0CCF923F05EFE0746D9F89A
:100D08004800B76123F022FB43A3D3E9002323F073
:100D180071FB0446B0680D4623F018FB40A3D3E9E5
:100D2800002323F067FB02460B462046294623F0A2
:100D3800AFF923F041FE8246D9F84C00C6F81CA052
:100D480023F004FB34A3D3E9002323F053FB044628
:100D5800F0680D4623F0FAFA31A3D3E9002323F013
:100D680049FB02460B462046294623F091F923F019
:100D780023FE8346D9F85000C6F820B023F0E6FADF
:100D880025A3D3E9002323F035FB044630690D463B
:100D980023F0DCFA22A3D3E9002323F02BFB02463D
:100DA8000B462046294623F073F923F005FE8446B6
:100DB800D9F85400C6F824C0CDF804C023F0C6FA08
:100DC80015A3D3E9002323F015FB044670690D46EB
:100DD80023F0BCFA12A3D3E9002323F00BFB02464D
:100DE8000B462046294623F053F923F0E5FDDDF8AC
:100DF8000490B06246F267640E497760C6F808A0AE
:100E0800C6F80CB0C6F8109070610022C6F266648D
:100E180022E000BFAFF300809A9999999999B93F58
:100E2800CDCCCCCCCCCCEC3F040000203C3D002009
:100E380000008039F83D0020C00400204C3D00200F
:100E48000050C347551BDCF8187080698F6006EBAB
:100E5800850341F80C0F9F69531C581C84FB005CE8
:100E680084FB03594FEAE37EC5170332C5EB6C05D3
:100E7800CEEB690909EB890E05EB850584FB02C9F0
:100E88004FEAE27C401BCEEB030ECCEB69054F60CA
:100E98000F1DB3F57A6F06EB8E0C06EB800005EBA1
:100EA8008505CFD198ED028A1FED1B5AB8EEC88A86
:100EB800C8F80C30C8EE055A2F4C15EE900A23F0EE
:100EC80045FA41EC100B24F0CFF929A3D3E900230C
:100ED80051EC100B23F08EFA25A3D3E9002323F05D
:100EE800D7F823F049FD9FED256A88EE067A6080E1
:100EF80017EE100A23F02AFA41EC100B24F0B4F98B
:100F08001BA3D3E9002351EC100B23F073FA18A3A9
:100F1800D3E9002323F0BCF823F02EFDDFED187A87
:100F280088EE270AA08010EE100A23F00FFA41EC91
:100F3800100B24F099F90EA3D3E9002351EC100B00
:100F480023F058FA0AA3D3E9002323F0A1F823F0E9
:100F580013FD20804FF48061C4F2000100230B824E
:100F680003B0BDEC028BBDE8F08F00BFAFF300808B
:100F780000000000004CDD40947C0020801AC4472B
:100F88008015CD47032310B4C418C8F200032340CA
:100F980001EB8002002BF0EE407A82ED040A2EDB92
:100FA8000322841CC8F200022240002A32DB01EB33
:100FB8008304D4ED046A91ED120A91ED117A20EEC2
:100FC800260A01EB820407EE870AD1ED130A94ED95
:100FD800041A01EB830300EE810AD1ED141A93ED94
:100FE800002A01EE820AD1ED152A94ED003A02EEAC
:100FF800830A01EB800181ED000A10BC7047013BB8
:1010080063F003040322631CC8F20002841C22401C
:10101800002ACCDA013A62F00304621CC7E700BF79
:101028000C49032310B40024CB6000EB8302146046
:101038001461CA68531ECB60002AF6D14BF6C20170
:101048004DF20A72C3F6B261C3F623420164026626
:1010580010BC7047C004002030B44288C58804889A
:101068008388AD18ADB2B5FBF4F204FB125202FB53
:1010780003F341F207219AB2C8F23001A1FB023111
:10108800C90A40F6FA7303FB112291B200EE101A56
:10109800BBEEEA0AF7EE007AC18030EE670A30BC90
:1010A800704700BFAFF300804FF46D43CEF20003EA
:1010B80082B0D3F8882042F47000C3F88800BFF3E8
:1010C8004F8FBFF36F8F4FF46053C4F202030022B7
:1010D800196841F0010018609A60186843F210011D
:1010E80020F0847020F48030C2F20041186059600A
:1010F800196821F480201860DA60009201921A6859
:1011080042F480311960184603E00099B1F5A06FE8
:1011180009D0036803F40032019200994B1C009334
:10112800019A002AF1D04FF46050C4F2020003681B
:1011380013F400320DD001210191019801280CD03F
:101148004FF46D43CEF200034FF00061996002B096
:101158007047019201980128F2D14FF46053C4F20C
:1011680002034FF4E042196CC4F2000241F08050CF
:101178001864116841F4804010609A689A60996810
:1011880041F400409860996847F6085241F4A0502D
:10119800C0F6400298605A60196841F080721A607F
:1011A800184601684FF460538A01C4F20203F8D567
:1011B8004FF47052C4F2020240F205601060996860
:1011C80021F003029A60986840F0020199609A68D9
:1011D80002F00C000828FAD1B2E700BF4FF46053C0
:1011E800C4F202039A6802F00C00042812D00828FE
:1011F80015D04FF41051C0F2F4014FF46050C4F20E
:101208000200184B8268C2F303101A5C21FA02F13B
:101218001961704747F64001C0F27D11EDE7586843
:101228005A6810F4800F586802F03F0114BF47F65F
:1012380040034FF41053C0F388124FF4605014BFAA
:10124800C0F27D13C0F2F403C4F20200B3FBF1F361
:1012580003FB02F14268C2F30143581C4200B1FB90
:10126800F2F1CAE7340000204FF46053C4F20203DD
:101278000022196841F0010018609A60186843F26A
:10128800100120F0847020F48030C2F20041186010
:101298005960196821F480201860DA60704700BF2F
:1012A80043F60203C4F2020300221A701870704752
:1012B80082B04FF4605200230193C4F20202106816
:1012C80083030CD5019A511C0191019B4FF4605383
:1012D800C4F202031868C0F3404002B07047019995
:1012E8004B1C01930198B0F5A06FE8D1EEE700BF61
:1012F8004FF46053C4F202031A6822F0F80141EA7D
:10130800C0001860704700BF0023C4F2472318606C
:10131800704700BF43F67003C4F20203002201289D
:101328001A701A7004D0042801D10520187070476B
:10133800187070474FF46863C4F247231860704709
:1013480030B40143029D41EA82125B084FF46054B5
:1013580042EA0565591EC4F2020445EA014060608C
:1013680030BC70476023C4F247231860704700BF41
:101378004FF460538001C4F2020340EA0171C3F8DC
:10138800841070476823C4F247231860704700BF71
:101398004C23C4F247231860704700BF4FF46053D2
:1013A800C4F202039A6822F0EC6210430143996088
:1013B800704700BF4FF46053C4F202039A6822F0EA
:1013C8007842104301439960704700BF4FF460535F
:1013D800C4F202039A6822F0030108439860704738
:1013E8004FF46053C4F20203986800F00C00704791
:1013F8004FF46053C4F202039A6822F0F0010843E4
:10140800986070474FF46053C4F202039A6822F45C
:10141800E0510843986070474FF46053C4F20203E8
:101428009A6822F4604141EAC0009860704700BFA2
:1014380010B44FF46053C4F202039A6802F00C012E
:10144800042922D0082926D04FF41052C0F2F40201
:1014580002604FF46053C4F2020321499C68C4F34C
:1014680003140C5D22FA04F242609C68C4F38224DF
:101478000C5D22FA04F484609B68C3F34233C95CB0
:1014880022FA01F2C26010BC704747F64002C0F26F
:101498007D120260DDE75C68596814F4800F5C68AF
:1014A80001F03F0214BF47F640034FF41053C4F352
:1014B80088114FF4605414BFC0F27D13C0F2F403D6
:1014C800C4F20204B3FBF2F303FB01F26168C1F357
:1014D80001435C1C6100B2FBF1F20260B9E700BF96
:1014E8004800002000F44073B3F5407F0CD14FF45E
:1014F8006053C4F2020320F070419A6821F44071ED
:1015080022F4F812114399604FF46053C4F20203B5
:1015180000051A6F010D11431967704740F63C63C7
:10152800C4F24723186070474FF46463C4F247233A
:10153800186070474FF4AE73C4F2472318607047C1
:101548004FF46053C4F202031A6B19B922EA00007F
:101558001863704710431863704700BF4FF4605317
:10156800C4F202035A6B19B922EA000058637047A3
:1015780010435863704700BF4FF46053C4F202032E
:101588009A6B19B922EA0000986370471043986370
:10159800704700BF4FF46053C4F202031A6C19B9C4
:1015A80022EA00001864704710431864704700BFAF
:1015B8004FF46053C4F202035A6C19B922EA0000CE
:1015C8005864704710435864704700BF4FF4605325
:1015D800C4F202031A6919B922EA000018617047B7
:1015E80010431861704700BF4FF46053C4F2020300
:1015F8005A6919B922EA00005861704710435861C6
:10160800704700BF4FF46053C4F202039A6919B9D6
:1016180022EA00009861704710439861704700BF44
:101628004FF46053C4F202031A6A19B922EA00009F
:101638001862704710431862704700BF4FF4605338
:10164800C4F202035A6A19B922EA000058627047C4
:1016580010435862704700BF4FF46053C4F202034E
:101668001A6D19B922EA0000186570471043186509
:10167800704700BF4FF46053C4F202035A6D19B9A2
:1016880022EA00005865704710435865704700BF4C
:101698004FF46053C4F202039A6D19B922EA0000AC
:1016A8009865704710439865704700BF4FF46053C2
:1016B800C4F202031A6E19B922EA000018667047CC
:1016C80010431866704700BF4FF46053C4F202031A
:1016D8005A6E19B922EA00005866704710435866D6
:1016E800704700BF43F60D03C4F202031A7819B914
:1016F80022EA00001870704710431870704700BF46
:101708004309012B0ED04FF46051C4F20201022BA1
:101718000CBF096F496F00F01F0021FA00F303F0B6
:10172800010070474FF46052C4F202021168F2E7F8
:101738004FF46053C4F202035A6F42F08070586746
:10174800704700BF4FF46053C4F20203D9680842DF
:101758000CBF00200120704743F60E03C4F20203B9
:101768001870704730B547F20C04C0F6020483B015
:101778000546012154F82000FFF7E2FE04EB45047A
:1017880040F25803C2F20003228A53F8250000925F
:1017980001238DF8043000228DF8073069460223B2
:1017A8008DF806208DF8053022F01EFB03B030BD01
:1017B80047F20C03C0F6020340F2580203EB400163
:1017C800C2F200020B8A52F820000383704700BF60
:1017D80047F20C03C0F6020340F2580203EB400143
:1017E800C2F200020B8A52F820004383704700BF00
:1017F80040F25803C2F2000347F20C02C0F602029C
:1018080053F8203002EB40005969028A4A405A6175
:10181800704700BF30B50446012087B00D46014629
:10182800FFF78EFE01214FF48040FFF7C1FE1848F4
:1018380006A900EB84030122002441F8102D186941
:101848008DF80C408DF80F4022F0CEFA012D01D012
:1018580007B030BD2046214622F08EFB04A808219F
:1018680004958DF814408DF815108DF8165022F057
:10187800B3F90F23062201A88DF804208DF805304E
:101888008DF806308DF8075022F02EF9E0E700BFFA
:101898005800002008B540F25803C2F2000303EBD9
:1018A80080000121006922F017FB08BD08B501215D
:1018B8004FF48070FFF7C2FE4FF480700021BDE83E
:1018C8000840FFF7BBBE00BFF0B444680B680A7954
:1018D80024F0407525F4807646EA030747EA022497
:1018E8004460CD680C6987688A684E794FF2FD7349
:1018F8002C43CCF2FF0322433B40134343EA460206
:101908008260097DC26A4B1E22F47001DAB241EA94
:101918000253C362F0BC70470023012103600371C6
:1019280043718360C36003610175704770B44FF4FD
:101938000C5290E84200C4F2010285685468C068FD
:1019480043F2E0033143CFF6FC73294323400143BC
:1019580041EA0300506070BC704700BF0023036079
:1019680043608360C3607047836819B923F001013D
:101978008160704743F0010282607047436823F436
:10198800400222F400731943416070474162826249
:10199800704700BF436823F01F021143416070473E
:1019A8004FF40C53C4F201035A6818B922F400002A
:1019B8005860704742F40001596070474FF40C5367
:1019C800C4F201035A6818B922F4800058607047BD
:1019D80042F4800159607047092970B420D901EB9D
:1019E80041041E3CC668072505FA04F526EA0505E4
:1019F80003FA04F345EA0304062AC4601FD90C2A33
:101A080002EB820229D9C46A413A1F2303FA02F37E
:101A180024EA030301FA02F11943C16270BC70475A
:101A280001EB41040669072505FA04F526EA0505D0
:101A380003FA04F345EA0304062A0461DFD8531EB7
:101A480003EB8302446B1F2303FA02F324EA030324
:101A580001FA02F119434163E0E7233A046B1F23BB
:101A680003FA02F324EA030301FA02F143EA01024A
:101A78000263D3E7836843F080418160704700BF09
:101A88008068C0F380507047836819B923F4806177
:101A98008160704743F4806282607047836819B937
:101AA80023F002018160704743F0020282607047B0
:101AB8004368013923F4604242EA4131416070478A
:101AC800436819B923F400614160704743F4006228
:101AD80042607047C06C80B2704700BF42F2083362
:101AE800C4F2010318687047836819B923F4807138
:101AF8008160704743F4807282607047836819B9C7
:101B080023F400718160704743F40072826070476B
:101B18004FF40C53C4F201035A6818B922F4005068
:101B28005860704742F4005159607047092970B4F1
:101B38001FD801EB41040669072505FA04F526EAD2
:101B4800050503FA04F345EA03040461846BC4F34E
:101B58000153D21A931CDAB202EB82031F2202FA53
:101B680003F224EA020401FA03F12143816370BC01
:101B7800704701EB41041E3CC668072505FA04F5C9
:101B880026EA050503FA04F345EA0304C460DDE721
:101B9800836B013923F4401242EA01518163704793
:101BA80082B0002301930190019809180191019BCB
:101BB8001A6002B0704700BF836823F47022114393
:101BC80081607047836823F4401211438160704735
:101BD800836843F480018160704700BF8068C0F368
:101BE80080507047436819B923F480614160704799
:101BF80043F4806242607047436819B923F4805106
:101C08004160704743F480524260704782B00023BD
:101C1800019301900198283041180191019A1368A5
:101C280098B202B0704700BF0123C9B203FA01F1AC
:101C380043681AB923EA01024260704719434160B8
:101C4800704700BF036819420CBF0020012070478D
:101C5800C9430160704700BF4368006810EA11205B
:101C680007D00122C9B202FA01F018420CBF0020C5
:101C7800012070476FEA11210160704708B5012102
:101C88004FF00050FFF7CCFC4FF000500021BDE8AA
:101C98000840FFF7C5BC00BF70B491E860004FF47E
:101CA800E8438C68CA68C4F2000346EA05010C439D
:101CB8001E6840F6FE7505FA00F5224326EA05057A
:101CC80002FA00F045EA0001196070BC704700BFD5
:101CD8000023036043608360C36070474FF4E843A8
:101CE800C4F200031A6831B9012101FA00F022EAAE
:101CF80000021A607047012101FA00F010431860D1
:101D0800704700BF4FF4E843C4F2000300095A6863
:101D180031B9012101FA00F022EA00025A60704745
:101D2800012101FA00F01043586070474FF4E8436E
:101D3800C4F200035A6818B922F0030058607047CB
:101D480042F00301596070474FF4E843C4F20003BE
:101D580001FA00F122B91A6822EA010119607047F4
:101D6800186801431960704782B04FF4E843C4F221
:101D78000003002201920193019B08331818019077
:101D8800019A116002B0704782B04FF4E843C4F280
:101D98000003002201920193019B1433181801904B
:101DA800019A116002B0704747F220430828C4F234
:101DB80000030CBF42EA012142EA0141C1507047C9
:101DC80082B04FF4E8430022C4F200030192019369
:101DD80001992C3101EB90000190019B1A6890B297
:101DE80002B070474FF4E843C4F200031A6839B9E7
:101DF8004FF4805101FA00F022EA00021A6070479D
:101E08004FF4805101FA00F010431860704700BF8A
:101E18004FF4E843C4F2000301FA00F122B91A684A
:101E280022EA010119607047186801431960704778
:101E38004FF4E843C4F2000301FA00F1586B014281
:101E48000CBF0020012070474FF4E843C4F20003A0
:101E580001FA00F1596370474FF4E843C4F20003F4
:101E680001FA00F11A68586B084003D011420CBF00
:101E780000200120704700BF4FF4E843C4F200037C
:101E880001FA00F159637047016846F21002002315
:101E980021F00101C4F20202016003604360836023
:101EA800C360036121239042436165D046F2280252
:101EB800C4F20202904266D046F24001C4F2020126
:101EC800884268D046F25803C4F2020398426AD0A6
:101ED80046F27002C4F2020290426CD046F28801C7
:101EE800C4F2020188426FD046F2A003C4F2020392
:101EF800984238D046F2B802C4F20202904275D035
:101F080046F21041C4F20201884277D046F22843D3
:101F1800C4F20203984278D046F24042C4F2020268
:101F280090427AD046F25841C4F2020188427CD0ED
:101F380046F27043C4F2020398427ED046F28842C9
:101F4800C4F20202904200F0818046F2A041C4F23D
:101F58000201884200F0848046F2B843C4F20203CA
:101F680098423BD070474FF4C041C4F202010023AD
:101F7800C2F23D03CB6070474FF4C041C4F2020186
:101F88003D238B6070474FF4C040C4F202004FF409
:101F98007462826070474FF4C041C4F202014FF48A
:101FA80074138B6070474FF4C040C4F202004FF0C6
:101FB8007462826070474FF4C041C4F202013D234D
:101FC800C2F20003CB6070474FF4C040C4F2020075
:101FD8004FF47462C2F20002C26070474FF4C84006
:101FE800C4F202004FF03D52C260BBE74FF4C0405C
:101FF800C4F202004FF03D52C26070474FF4C8412E
:10200800C4F202013D238B6070474FF4C840C4F20C
:1020180002004FF47462826070474FF4C841C4F202
:1020280002014FF474138B6070474FF4C840C4F238
:1020380002004FF07462826070474FF4C841C4F2E6
:1020480002013D23C2F20003CB6070474FF4C84041
:10205800C4F202004FF47462C2F20002C260704718
:102068004FF4C841C4F202010023C2F23D03CB6021
:10207800704700BF2DE9F001CA680B684F698E6987
:10208800CD690C6AD0F800C042EA030848EA07079D
:102098003E434A6A35432C4344EA02038C6A4A6B3E
:1020A800234348F23F078C6B1343CFF21C072343AB
:1020B8000CEA07071F430760CB6A0A6B44691A4397
:1020C80024F00704224342610B6943604A68826036
:1020D8008968C160BDE8F001704700BF0023036054
:1020E80043608360C360036143618361C3610362CA
:1020F80043628362C362036343638363704700BFC1
:10210800036819B923F001010160704743F0010227
:1021180002607047036819B923F4004101607047F1
:1021280043F4004202607047036819B923F02001A4
:102138000160704743F020020260704741607047B9
:10214800406880B2704700BF036822B923F40022B8
:1021580002600161704743F4002303600161704726
:10216800036819B923F480210160704743F4802281
:10217800026070470AB9C16070470161704700BFCB
:102188000068C0F3C0407047006800F00100704765
:10219800406900F03800704710B44FF4C84246F266
:1021A8000F444FF4C043C4F20202C4F20204C4F262
:1021B8000203A0428CBF104618468A004CBF4268F2
:1021C800026821F0F02121F0821313420CBF002095
:1021D800012010BC704700BF10B44FF4C84246F24B
:1021E8000F444FF4C043C4F20202C4F20204C4F222
:1021F8000203A0428CBF1046184611F0005F21F080
:10220800F02121F0821214BFC260826010BC7047B6
:102218000B060CD54369AAB143F0800380294361BA
:102228000FD0026801F01E01114301607047802938
:1022380007D0002AF5D1036801F01E0123EA010244
:102248000260704723F0800280294261F3D1704711
:1022580070B44FF4C04246F20F454FF4C84421F021
:10226800F023C4F20205C4F20204C4F2020223F00D
:10227800C316A84288BF224696B1046804F01E001F
:1022880000EAD12489004CBF5268126823F08211F9
:1022980011EA020002D0201C18BF012070BC704750
:1022A800406900F08004EDE710B44FF4C84246F2EC
:1022B8000F444FF4C043C4F20202C4F20204C4F251
:1022C8000203A0428CBF1046184611F0005F21F0AF
:1022D800F02121F0821214BFC260826010BC7047E6
:1022E800F0B4960875D0D0ED007AB0EEE70A81ED2B
:1022F800000AD0ED010AB0EEE01A81ED011AD0ED26
:10230800021AB0EEE12A81ED022AD0ED032A731EEB
:10231800B0EEE23A1D4603F0010781ED033A01F100
:10232800100300F11004002D50D0DFB1D4ED003AB5
:10233800B0EEE34A83ED004AD4ED014AB0EEE45A28
:1023480083ED015AD4ED025AB0EEE56A83ED026AD4
:10235800D4ED036AB0EEE67A83ED037A10341033D5
:10236800013D33D0D4ED007AB0EEE70A83ED000AE0
:10237800D4ED010AB0EEE01A83ED011AD4ED021A89
:10238800B0EEE12A83ED022AD4ED032AB0EEE23A58
:1023980083ED033AD4ED043AB0EEE34A83ED044A00
:1023A800D4ED054AB0EEE45A83ED055AD4ED065A49
:1023B800B0EEE56A83ED066AD4ED076AB0EEE67A18
:1023C80083ED077A20342033023DCBD136018919B9
:1023D800801912F0030225D0D0ED007A013AB0EE50
:1023E800E70A1346A1EC010A02F00102D3B142B197
:1023F8000430D0ED000A013BB0EEE01AA1EC011A5E
:1024080010D0D0ED011A0A46B0EEE12AA2EC012A5A
:10241800D0ED022AB0EEE23A81ED013A0830111D02
:10242800023BEED1F0BC70475FEA920C2DE9F00157
:1024380000F0A280B0F9006043880CF1FF37002E4D
:1024480001F1080507F0010740F3E0801CB2002CF9
:1024580040F3E380C6EA044645F8086CB0F9046026
:10246800C488002E00F1080340F3E48024B2002C55
:1024780040F3DC80C6EA044645F8046CBCF101066A
:1024880005F1080474D0002F58D0B3F900705D88A6
:10249800002F40F3E2802DB2002D40F3DA80C7EA26
:1024A800054744F8087C9F88DD883FB20833002F31
:1024B80040F3C4802DB2002D40F3C780C7EA05451C
:1024C80044F8045C0834013E38D151E02DB2002DA7
:1024D8003FDDC7EA054744F8087CB3F90470DD8896
:1024E8000833002F40F389802DB2002D40F38180FE
:1024F800C7EA054744F8047CB3F90070B3F80280D2
:10250800013E002F04F108056FDD0FFA88F4002C56
:1025180067DDC7EA044745F8087CB3F90470DC882E
:102528000833002F59DD24B2002C16DD013EC7EA1E
:10253800044705F1080445F8047C19D0B3F9007084
:102548005D88002FC2DC2DB27F42002D07F30F07F4
:10255800BFDC6D4205F30F05BBE76442013E04F39F
:102568000F04C7EA044705F1080445F8047CE5D1DF
:102578004FEACC0C6044614412F003022AD030F8D0
:10258800023B1CB2551E002C05F0010549DD013A3D
:1025980021F8023B1ED045B130F8023B1CB2002C9A
:1025A80010DD013A21F8023B14D030F8023B1CB28E
:1025B800013A002C25DD21F8023B30F8023B1CB221
:1025C800002CEEDC6342013A03F30F039BB221F8BF
:1025D800023BEAD1BDE8F00170477F4207F30F07DD
:1025E800A1E7644204F30F0493E77C4204F30F0766
:1025F8008BE76D4205F30F057AE77F4207F30F0774
:1026080072E7634203F30F04A3B2D4E7744204F3FE
:102618000F061CB2002C3FF71DAF634203F30F04F3
:1026280018E7634203F30F039BB2B0E7644204F375
:102638000F041FE7764206F30F0617E72DB27F4215
:10264800002D07F30F073FF739AF6D4205F30F056C
:1026580034E76D4205F30F0521E77F4207F30F07C3
:1026680019E700BFF0B4960873D00368741E002BF6
:1026780004F0010540F3D1800B604768002F40F358
:10268800D7804F608368002B40F3DD808B60C7687C
:10269800002F00F1100440F3B980CF60771E01F1DC
:1026A800100353D09DB12568002D26DD1D60656897
:1026B800002D2CDD5D60A568002D32DD9D60E5688C
:1026C8001034002D38DDDD601033013F3ED0256821
:1026D800002D7BDD1D606568002D72DD5D60A568DD
:1026E800002D69DD9D60E5681034002D5FDDDD603B
:1026F80025681033013F002DD8DCB5F1004F0CBF21
:102708006FF000456D421D606568002DD2DCB5F1A3
:10271800004F0CBF6FF000456D425D60A568002D4D
:10272800CCDCB5F1004F0CBF6FF000456D429D60E9
:10273800E5681034002DC6DCB5F1004F0CBF6FF012
:1027480000456D42DD601033013FC0D1360180196C
:10275800891912F0030228D050F8043B541E002BAC
:1027680004F001044BDD013A41F8043B1DD03CB1B3
:1027780050F8043B002B0EDD013A41F8043B14D01D
:1027880050F8043B002B26DD41F8043B50F8043B8D
:10279800013A002BF0DCB3F1004F0CBF6FF000439F
:1027A8005B42013A41F8043BEAD1F0BC7047B5F10D
:1027B800004F15D06D429AE7B5F1004F1CD06D421D
:1027C80090E7B5F1004F14D06D4287E7B5F1004F9F
:1027D8000CD06D427EE7B3F1004F04D05B42D3E7E3
:1027E8006FF0004583E76FF00043CDE76FF00045D9
:1027F80070E76FF0004571E76FF0004572E7B3F1DD
:10280800004F0CBF6FF000435B42ACE7B7F1004FDD
:102818000CBF6FF000477F423FE7B3F1004F0CBF9A
:102828006FF000435B420B604768002F3FF729AF0A
:10283800B7F1004F0CBF6FF000477F424F608368CD
:10284800002B3FF723AFB3F1004F0CBF6FF00043ED
:102858005B421BE72DE9F0035FEA920900F0BC80B8
:1028680090F900C047788678C57809F1FF380C1DC3
:10287800031DBCF1000F08F0010840F3F8807FB297
:10288800002F40F3FE803F0676B23F0C002E47EA49
:102898000C0C40F3018136046DB206F47F06002D5E
:1028A8004CEA060640F304812D06354344F8045CDF
:1028B8000434B9F1010500F08B80B8F1000F28D07D
:1028C80093F8008093F801C09F78DE784FFA88F873
:1028D8000433B8F1000F4EDD4FFA8CFCBCF1000F49
:1028E80054DD4FEA0C6C7FB24FEA1C4C002F4CEAC7
:1028F800080858DD3F0476B207F47F07002E48EA3F
:1029080007075BDD36063E4344F8046C0434013D9A
:102918005ED093F9008093F801C09F78DE78043385
:10292800B8F1000F40F397804FFA8CFCBCF1000F10
:1029380040F38C804FEA0C6C7FB24FEA1C4C002F9E
:102948004CEA08087EDD3F0476B207F47F07002EC4
:1029580048EA070772DD3606374344F8047C93F9E2
:10296800008093F801C09F78DE78013D0434043379
:10297800B8F1000FB0DC4FFA8CFCBCF1000FC8F1C5
:10298800000808F307085FFA88F8AADCCCF1000C05
:102998007FB20CF3070C4FEA0C6C4FEA1C4C002F6B
:1029A8004CEA0808A6DC7F4276B207F307073F0423
:1029B80007F47F07002E48EA0707A3DC764206F3F0
:1029C800070636063E4344F8046C0434013DA0D1A2
:1029D8004FEA89094844494412F003022BD010F801
:1029E800013BCC438A1815195CB2002C05F001058F
:1029F80063DD01F8013B91421DD045B110F8013B60
:102A08005CB2002C0FDD01F8013B914213D010F8A5
:102A1800013B5CB2002C25DD01F8013B10F8013BBD
:102A28005CB2002CEFDC634203F30703DBB201F86E
:102A3800013B9142EBD1BDE8F0037047764206F3C3
:102A4800070688E77F4207F307077CE7CCF1000C0D
:102A58000CF3070C6EE7C8F1000808F307085FFAE3
:102A680088F861E7634203F30704E3B2D4E77FB26F
:102A7800002FCCF1000C0CF3070C5FFA8CFC3FF72D
:102A880002AF7F4276B207F307073F063F0C002EDE
:102A980047EA0C0C3FF7FFAE76426DB206F3070625
:102AA800360406F47F06002D4CEA06063FF7FCAE16
:102AB8006D4205F307052D06F7E6634203F30703A6
:102AC800DBB296E72DE9F0075FEA930A00F0A680EB
:102AD80090ED007AD1ED007A37EE270A0AF1FF343B
:102AE80082ED000AD0ED010A91ED011A70EE811A0B
:102AF800A146C2ED011A90ED022AD1ED022A32EE6A
:102B0800223A04F0010782ED023AD0ED033A91ED42
:102B1800034A73EE844A02F11004C2ED034A00F13D
:102B2800100601F11005B9F1000F72D02FB396ED20
:102B3800005AD5ED005A35EE256A84ED006AD6EDC7
:102B4800016A95ED017A76EE877AC4ED017A96ED01
:102B5800020AD5ED020A30EE201A84ED021AD6EDEB
:102B6800031A95ED032A71EE822A1036C4ED032A62
:102B780010351034B9F101094BD096ED003AD5ED76
:102B8800003A33EE234A06F1100884ED004AD6EDE8
:102B9800014A95ED015A74EE855A04F11007C4ED07
:102BA800015A96ED026AD5ED026A36EE267A05F1EB
:102BB800100C84ED027A96ED030AD5ED037A70EED7
:102BC800270AC4ED030A96ED041AD5ED041A31EE6E
:102BD800212A203684ED042A95ED053AD8ED012AFC
:102BE80072EE833A2034C7ED013AD5ED064A98EDE6
:102BF800024A34EE245A203587ED025AD8ED035A9A
:102C08009CED036A75EE866AB9F10209C7ED036A9D
:102C1800B3D14FEA0A1412190019091913F0030362
:102C280030D090ED007A91ED000A5C1E77EE007AC4
:102C38002346E2EC017A04F001041BB364B10431C9
:102C48000430D0ED000A91ED001A70EE811A013BB4
:102C58000C46E2EC011A15D090ED012AD1ED012ABB
:102C680032EE223A1446A4EC013AD0ED023A91ED44
:102C7800024A73EE844A0830C2ED014A0831221D27
:102C8800023BE9D1BDE8F007704700BF2DE9F00726
:102C98005FEA93099846844651D00446084609F1EC
:102CA800FF35134605F0010A54F8086B50F8087B05
:102CB80096FA17F643F8086B54F8046C50F8047C3D
:102CC80096FA17F643F8046C0834083008338DB3C5
:102CD800BAF1000F08D054F8086C50F8087C96FA3E
:102CE80017F643F8086C18E054F8086C50F8087C9C
:102CF80096FA17F643F8086C54F8046C50F8047CFC
:102D080096FA17F643F8046C013D54F8086B50F82E
:102D1800087B96FA17F643F8086B54F8046C50F8D9
:102D2800047C96FA17F643F8046C08340830083324
:102D3800013DD9D14FEAC909CC4449444A4418F065
:102D480003052FD0013D05F001043CF9023B31F9A0
:102D5800020B93FA10F322F8023B1DB34CB13CF975
:102D6800023B31F9020B93FA10F3013D22F8023BC2
:102D780018D06446084634F9027B30F9026B97FA9A
:102D880016F71346013D23F8027BBCF90260B1F93E
:102D9800027004F1020C811C96FA17F050809A1CFC
:102DA800013DE6D1BDE8F007704700BF2DE9F00FFF
:102DB8005FEA930B9A4694467FD00BF1FF3505F0F6
:102DC800010703680A6882FA83F4CCF80040466871
:102DD8004B6883FA86F2CCF8042084688E6886FAF9
:102DE80084F3CCF80830C368CE6800F1100401F110
:102DF800100286FA83F3CCF80C300CF11003002D86
:102E080056D0C7B12668176887FA86F61E606668C6
:102E1800576887FA86F65E60A668976887FA86F626
:102E28009E60E668D7681034103287FA86F6DE604E
:102E38001033013D3CD02668176887FA86F61E6075
:102E48006668576887FA86F65E60A668976887FAA4
:102E580086F69E60E668D76804F1100902F110084A
:102E680087FA86F6DE60013D03F1100624691269CF
:102E780082FA84F71F61D9F80430D8F8044084FA3C
:102E880083F27260D9F80870D8F8083083FA87F4AA
:102E9800B460D9F80C30D8F80C7009F1100408F1B6
:102EA800100287FA83F3013DF36006F11003C2D1E3
:102EB8004FEA0B1B58445944DC441AF003052ED042
:102EC800013D05F0010450F8043B51F8042B82FA47
:102ED80083F34CF8043B15B34CB150F8043B51F85C
:102EE800042B82FA83F3013D4CF8043B17D00446C7
:102EF8000A4654F8047B52F8046B86FA87F763464F
:102F0800013D43F8047B46684F68201D111D87FA70
:102F180086F2013DCCF8042003F1040CE7D1BDE8AA
:102F2800F00F70475FEA930CF0B427D00CF1FF352F
:102F380005F0010704680E6884FA16F41460042486
:102F4800BDB13FB144684E6884FA16F60824013DC5
:102F580056600ED006590F5986FA17F616510434E2
:102F6800013D06590F5986FA17F616510434013DEA
:102F7800F0D14FEA8C0C60446144624413F00303BF
:102F880029D090F9007091F9005001245E1E9C42EE
:102F98003D4406EA040605F3070515701BD056B133
:102FA80090F9016091F9015002249C42354405F3DF
:102FB800070555700FD00E570757651CBF1907F343
:102FC80007061655023447574E579C423E4406F3AF
:102FD80007065655EFD1F0BC704700BFF0B497080C
:102FE800DFED547A77D0D0ED006A91ED007A46EEA5
:102FF800877A90ED010AD1ED010A40EE207A90ED32
:10300800021AD1ED021A41EE217A7C1E90ED032AB4
:10301800D1ED032A264604F0010C42EE227A00F193
:10302800100501F11004002E52D0BCF1000F1BD086
:1030380095ED003AD4ED003A43EE237A95ED014A36
:10304800D4ED014A44EE247A95ED025AD4ED025AA1
:1030580045EE257A95ED036AD4ED036A10351034F0
:10306800013E46EE267A33D095ED000A94ED007ABB
:1030780040EE077AD5ED010A94ED011A40EE817A07
:10308800D5ED021A94ED022A41EE827AD5ED032A93
:1030980094ED033A42EE837AD5ED043A94ED044A6E
:1030A80043EE847AD5ED054A94ED055A44EE857AC7
:1030B800D5ED065A94ED066A45EE867AD5ED076A8F
:1030C80094ED070A20352034023E46EE807ACBD1B3
:1030D8003F01C019C91912F0030226D0541ED0EDC1
:1030E800000AB1EC017A224640EE877A04F0010426
:1030F800DAB14CB1043090ED001AF1EC011A013A42
:10310800044641EE217A10D00C4690ED012AF4ECE9
:10311800012A42EE227A91ED013AD0ED023A211DC0
:103128000830023A43EE837AEED1C3ED007AF0BC60
:10313800704700BF000000002DE9F00F86B08C46F4
:103148000290900801920493039000F0B780039BCB
:10315800029851F8086B50F8082B5C1E04F0010522
:10316800002705953B46C2FBC6734FF0000A4AEAA2
:1031780007029B4650F8045C51F8046C1746C5FBDF
:10318800C6739946D0464AEA070208300831002C2F
:1031980048D0059EB6B150F8085C51F8087C9B46AB
:1031A800C5FBC72B4FF0000A4AEA020650F8043C58
:1031B80051F8042C3546D946C3FBC259D0464AEAD1
:1031C80005022AE050F8085C51F8086C9B46C5FBDC
:1031D800C62B4FF0000A4AEA020750F8045C51F87F
:1031E800046C3A46D946C5FBC6294AEA0205D046C8
:1031F800013C50F8086B51F8087B2A46CB46C6FBC1
:10320800C72B4AEA020750F8045C51F8046C3A46A6
:10321800D946C5FBC6294AEA020208300831013CF2
:103228004B46CFD10398029FC1007D1802958C446C
:10323800019D15F003073AD0029C3CF9020B34F9C2
:10324800021B013F07F001061546C1FBC0530022CF
:103258002A4367B36EB134F9026B3CF9028B154609
:103268001946C6FBC8510020013F40EA05020B463B
:103278001DD0A046664638F9029B36F902AB1546C2
:103288001946C9FBCA51002040EA0502B4F9029068
:10329800BCF902A0013F08F1020406F1020C154630
:1032A800C9FBCA51013F40EA05020B46E1D1049827
:1032B800C0E9002306B0BDE8F00F704700220023E4
:1032C800B6E700BF2DE9F00F98B081469008149238
:1032D80013911693159000F0C881139C139ED9F88A
:1032E800007009686368D9F80850A068D9F8042004
:1032F800F46887FB01AB82FB032385FB0001039481
:10330800CDE90C01039D910BD9F80C204FEA9A37AF
:1033180082FB0545CDE9044547EA8B47820B41EA24
:1033280083464FEAAB300697DDF854A007909F1309
:10333800049B0D99980B0AF1FF33DDE906AB42EACD
:1033480081441AEB0608059A0C934BEB070B89137B
:1033580018EB04044BEB010C40EA824095131399D7
:103368000C9A14EB000A4CEB050B03F0010309F16E
:10337800100801F1100C002A00F01A81002B55D01A
:10338800D8F80060DCF80000D8F80450DCF80440F5
:10339800D8F80820D8F80C70DCF80C3086FB00014F
:1033A800CDE90401810B069185FB0445DCF8086032
:1033B800CDE90845069D059C82FB0601CDE90A0179
:1033C80045EA8441069187FB0301A3130793CDE9DE
:1033D8000001DDE90601089A0A9C099D960BA30BDA
:1033E8000B9A1AEB000A009846EA85464BEB010B4C
:1033F80043EA8244AF13810B019B1AEB060A4BEB9D
:10340800070B95131AEB04044BEB050B41EA8340B9
:103418000C9D991314EB000A4BEB010B6B1E08F182
:1034280010080CF1100C0C9300F0C280CDE9006775
:10343800CDF85C9056465F46D8F80400DCF80440A6
:10344800D8F80820DCF80810DCF80C3008900A944A
:10345800D8F80C500E920F91D8F800200A991193C1
:10346800DCF80040089BD8F81000109583FB01ABEE
:1034780082FB0445CDE90645CDE904AB12900F9ACD
:103488001099DCF810904FEA94300E9C40EA854A77
:10349800049D119884FB0223CDE90823AB0B81FB23
:1034A80000450599CDE90A4543EA8140079D00900A
:1034B800900B129A16EB0A064FEAA53B47EB0B074F
:1034C80082FB09458B13CDE906450193D8F81420F2
:1034D800DCF81450DDF828900B9B099982FB05ABAA
:1034E800CDE904ABDDE900AB4FEA993444EA834403
:1034F800D8F81850069ADCF81830DDF81C9040EA25
:10350800814016EB0A0647EB0B074FEA923A36184A
:1035180085FB03230B98049DCDE908234FEAA131CD
:10352800D8F81C30DCF81C2047EB01074AEA894A26
:103538008113A80B3619059D83FB022347EB01076E
:103548004FEAA93B16EB0A06CDE90A2347EB0B071E
:1035580040EA8540AA130090DDF820900192DDE949
:1035680000230999DDF828A0DDF82CB04FEA99343A
:1035780044EA8145099CB6184FEA9A3047EB03079D
:1035880040EA8B41A3135A4670190C9C47EB03077A
:103598009513461847EB0507A31E08F120080CF100
:1035A800200C0C937FF448AFDDF85C90B246BB4624
:1035B8001599139A0801151881441395149E16F04D
:1035C80003044AD0DDF84CC0D9F800605CF8043B2D
:1035D80086FB0301820B42EA8142601E89131AEBC3
:1035E800020A4D46064600F001034BEB010BA0B35F
:1035F8007BB155F8040F5CF8042B80FB0201830BA8
:1036080043EA814089131AEB000A4BEB010B013E98
:1036180023D067466C6857F8042BDCF8043005F1B2
:10362800040984FB0245A00BD9F8041040EA85423E
:1036380081FB0301AD131AEB020A4BEB050B830B5D
:1036480043EA814089131AEB000A4BEB010B023E57
:1036580009F1040507F1040CDBD1DDF85890C9E93C
:1036680000AB18B0BDE8F00F70474FF0000A4FF0FC
:10367800000BA3E72DE9F00F82B0019393080093A4
:1036880000F0E48090F9003091F90040DDF800C0C6
:1036980090F9016091F901500CF1FF379BB2A4B287
:1036A80007F0010A43EA064644EA05454FF00008D8
:1036B80026FB058591F9023090F902C090F9038044
:1036C80091F903909EB21FFA8CFC041D0B1D4CEA65
:1036D800084C46EA09462CFB0655002F7DD0BAF166
:1036E800000F2BD093F900A094F9006094F9019091
:1036F80093F901801FFA8AFCB6B246EA09464CEAF9
:10370800084A26FB0A55A67893F8029094F803C055
:1037180093F803A076B24FFA89F94FFA8CFC1FFA96
:1037280089F9B6B24FFA8AFA0434043346EA0C46E9
:1037380049EA0A4A26FB0A55013F4ED094F900602F
:1037480093F900B094F9019093F901801FFA8BFC6A
:10375800B6B246EA09464CEA084A26FB0A5594F9E5
:10376800028093F9029094F903B093F903A01FFA29
:1037780088F81FFA89F904F1040C1E1D48EA0B4B5E
:1037880049EA0A4A2BFB0A5594F904B093F9044014
:103798009CF9019096F901801FFA8BF3A4B2013FBE
:1037A80043EA094344EA084423FB04559CF902A070
:1037B80096F902809CF903B096F903901FFA8AFAE9
:1037C8001FFA88F80CF10404331D48EA094C4AEA48
:1037D8000B4626FB0C55013FB0D1009CA300C01836
:1037E800C91812F0030229D000EB020AC4430AEBFD
:1037F800040303F0010411F9012B10F9013B23FB29
:10380800025550451AD03CB110F9013B11F9012B72
:1038180023FB0255504511D002460B4612F9014BC5
:1038280013F9016B24FB065590F9014091F90160E9
:10383800501C591C24FB06555045EDD1DDF804C039
:10384800CCF8005002B0BDE8F00F7047009DC8E703
:103858002DE9F0075FEA930A00F0A68090ED007A60
:10386800D1ED007A27EE270A0AF1FF3482ED000A2B
:10387800D0ED010A91ED011A60EE811AA146C2ED60
:10388800011A90ED022AD1ED022A22EE223A04F022
:10389800010782ED023AD0ED033A91ED034A63EE57
:1038A800844A02F11004C2ED034A00F1100601F146
:1038B8001005B9F1000F72D02FB396ED005AD5ED6F
:1038C800005A25EE256A84ED006AD6ED016A95ED69
:1038D800017A66EE877AC4ED017A96ED020AD5ED93
:1038E800020A20EE201A84ED021AD6ED031A95ED8D
:1038F800032A61EE822A1036C4ED032A10351034EB
:10390800B9F101094BD096ED003AD5ED003A23EE16
:10391800234A06F1100884ED004AD6ED014A95EDD8
:10392800015A64EE855A04F11007C4ED015A96ED68
:10393800026AD5ED026A26EE267A05F1100C84EDAE
:10394800027A96ED030AD5ED037A60EE270AC4EDF4
:10395800030A96ED041AD5ED041A21EE212A203621
:1039680084ED042A95ED053AD8ED012A62EE833AF2
:103978002034C7ED013AD5ED064A98ED024A24EE07
:10398800245A203587ED025AD8ED035A9CED036A74
:1039980065EE866AB9F10209C7ED036AB3D14FEA49
:1039A8000A1412190019091913F0030330D090ED05
:1039B800007A91ED000A5C1E67EE007A2346E2EC7D
:1039C800017A04F001041BB364B104310430D0ED72
:1039D800000A91ED001A60EE811A013B0C46E2ECF8
:1039E800011A15D090ED012AD1ED012A22EE223AD2
:1039F8001446A4EC013AD0ED023A91ED024A63EE86
:103A0800844A0830C2ED014A0831221D023BE9D13F
:103A1800BDE8F007704700BF2DE9F0035FEA93089F
:103A280000F0D28005880C8815FB04F6F71307F31D
:103A38000F05158046884C8816FB04F7FD1305F31F
:103A48000F06568087888C8817FB04F5EE1306F35B
:103A58000F079780B0F806C0CD8808F1FF341CFB2B
:103A680005F627464FEAE63C04F0010900F108068E
:103A78000CF30F0401F10805D48002F10804002FAB
:103A880000F09D80B9F1000F34D0B5F800C0B6F849
:103A9800009019FB0CF94FEAE93C0CF30F09A4F864
:103AA8000090B5F802C0B6F8029019FB0CF94FEA7D
:103AB800E93C0CF30F09A4F80290B5F804C0B6F875
:103AC800049019FB0CF94FEAE93C0CF30F09A4F830
:103AD8000490B6F80690B5F806C019FB0CFC4FEA3E
:103AE800EC3C08360CF30F0C0835A4F806C0083473
:103AF800013F64D0B5F800C0B6F8009019FB0CF986
:103B08004FEAE93C0CF30F09A4F80090B5F802C09D
:103B1800B6F8029019FB0CF94FEAE93C0CF30F09CF
:103B2800A4F80290B5F804C0B6F8049019FB0CF993
:103B38004FEAE93C0CF30F09A4F80490B5F806C065
:103B4800B6F8069019FB0CF94FEAE93C0CF30F099B
:103B5800A4F80690B5F808C0B6F8089019FB0CF957
:103B68004FEAE93C0CF30F09A4F80890B5F80AC02D
:103B7800B6F80A9019FB0CF94FEAE93C0CF30F0967
:103B8800A4F80A90B5F80CC0B6F80C9019FB0CF91B
:103B98004FEAE93C0CF30F09A4F80C90B6F80E9024
:103BA800B5F80EC019FB0CFC4FEAEC3C10360CF3D0
:103BB8000F0C1035A4F80EC01034023F9AD14FEA0A
:103BC800C80840444144424413F003032DD00588FB
:103BD8000E88013B15FB06F41D46E41303F00106AD
:103BE80004F30F0402231480FDB156B14B884488B6
:103BF80014FB03F4E4130423013D04F30F0454807D
:103C080013D0CC5AC65A16FB04F6F6139C1C06F3BE
:103C18000F06D6520B5B065B16FB03F6F613A31CC6
:103C2800023D06F30F061653EBD1BDE8F0037047CB
:103C38002DE9F00F82B094469A080093019249D07A
:103C4800174666460D4604466FF000484FF00009D7
:103C580022682B6882FB0323D20F42EA4302DB1758
:103C6800B3EBE27F18BF83EA0802326062686B68D0
:103C780082FB0323D20F42EA4302DB17B3EBE27F56
:103C880018BF83EA08027260A268AB6882FB03234C
:103C9800D20F42EA4302DB17B3EBE27F18BF83EA95
:103CA8000802B260E268EB6882FB0323D20F42EAA3
:103CB8004302DB1710341035B3EBE27F18BF83EAF9
:103CC8000802F2601036013FC2D1019A1301C018F0
:103CD800C9189C44009F17F003075AD004680D6860
:103CE80084FB0523D60F46EA4302DB1707F1FF38AA
:103CF8000025B3EBE27F6FF0004408F0010803D021
:103D08009A469B4683EA04020426013FCCF8002029
:103D18003FD0B8F1000F13D082598B5982FB03238F
:103D2800D20F42EA4302DB17B3EBE27F03D09A4695
:103D38009B4683EA04024CF806200436013F28D04B
:103D480082598B5982FB03234FEAD278DA1748EA63
:103D58004303B2EBE37F03D09246934682EA04031F
:103D68004CF806300436013F82598B5982FB0323F5
:103D78004FEAD278DA1748EA4303B2EBE37F03D07D
:103D88009246934682EA04034CF806300436013F13
:103D9800D6D102B0BDE8F00F704700BF2DE9F00F93
:103DA80084B08DE80E009908039142D0141D009A42
:103DB800034693F800A092F800C093F80190577852
:103DC800DD7892F803B093F8028096786DB24FFAD6
:103DD8008BFB4FFA8AFA4FFA8CFC4FFA89F97FB2BB
:103DE80005FB0BF50AFB0CFC09FB07F74FFA88F8F3
:103DF80076B27F0045F3C715CCF3C71C08FB06F65F
:103E080076024CEA056507F47F473D4306F47F06D2
:103E1800354344F8045C0433043204340139C8D10E
:103E2800039D009A0199AB00D418CD18C0180094CE
:103E38000195029B13F003052FD0009C90F90020F8
:103E480094F90010019C02FB01F3D91101236A1EA9
:103E5800AB42217002EA03021FD062B1009B90F9C5
:103E6800014093F90120022304FB02F1019CCA11CD
:103E7800AB42627011D09DE81200C756CE5607FBC0
:103E880006F6F211E2545A1C023387568E5607FB87
:103E980006F6F611AB42A654EFD104B0BDE8F00F18
:103EA800704700BFF0B4960875D0D0ED007AB1EE37
:103EB800670A81ED000AD0ED010AB1EE601A81EDC2
:103EC800011AD0ED021AB1EE612A81ED022AD0ED75
:103ED800032A731EB1EE623A1D4603F0010781ED15
:103EE800033A01F1100300F11004002D50D0DFB1A6
:103EF800D4ED003AB1EE634A83ED004AD4ED014AAD
:103F0800B1EE645A83ED015AD4ED025AB1EE656AF6
:103F180083ED026AD4ED036AB1EE667A83ED037A23
:103F280010341033013D33D0D4ED007AB1EE670A76
:103F380083ED000AD4ED010AB1EE601A83ED011A8F
:103F4800D4ED021AB1EE612A83ED022AD4ED032AD8
:103F5800B1EE623A83ED033AD4ED043AB1EE634A26
:103F680083ED044AD4ED054AB1EE645A83ED055A4F
:103F7800D4ED065AB1EE656A83ED066AD4ED076A98
:103F8800B1EE667A83ED077A20342033023DCBD137
:103F980036018919801912F0030225D0D0ED007A74
:103FA800013AB1EE670A1346A1EC010A02F00102D8
:103FB800D3B142B10430D0ED000A013BB1EE601A32
:103FC800A1EC011A10D0D0ED011A0A46B1EE612A0F
:103FD800A2EC012AD0ED022AB1EE623A81ED013A53
:103FE8000830111D023BEED1F0BC70472DE9F001FD
:103FF8005FEA920800F09280B0F90050B0F9023000
:104008000C466E425F4206F30F0507F30F03C5EA3D
:10401800034644F8086B08F1FF33B0F90460B0F9BF
:1040280006501F4676426D4206F30F0605F30F054C
:1040380003F0010CC6EA054500F1080344F8045CE6
:104048000834002F66D0BCF1000F1FD0B3F9006010
:10405800B3F9025076426D4206F30F0605F30F05D9
:10406800C6EA054644F8086C9E88DD8836B22DB24B
:1040780076426D4206F30F0605F30F050833C6EACC
:10408800054544F8045C0834013F43D0B3F90060A7
:10409800B3F9025076426D4206F30F0605F30F0599
:1040A800C6EA054644F8086CB3F904C0B3F90650EB
:1040B800CCF1000C6D420CF30F0C05F30F05CCEAA4
:1040C800054544F8045C03F10806B3F908C0B3F9E0
:1040D8000A3025465B42CCF1000403F30F0304F3D6
:1040E8000F04C4EA034445F8084BB6F90430B6F99E
:1040F80006C05C42023FCCF1000304F30F0403F353
:104108000F0C06F10803C4EA0C4605F1080445F84B
:10411800046CBBD14FEAC8084044414412F0030282
:1041280028D0013A30F9024B1346644202F00102EA
:1041380004F30F0421F8024BE3B142B130F9022B2A
:104148005242013B02F30F0221F8022B12D004461F
:104158000A4634F9025B6D4205F30F0522F8025B4B
:10416800B0F90250A01C6C4204F30F044C80911C5F
:10417800023BECD1BDE8F001704700BFF0B49708EE
:104188007BD003687E1EB3F1004F06F0010600F0F5
:10419800A8805C420C604568B5F1004F0CBF6FF019
:1041A80000456D424D608368B3F1004F0CBF6FF05E
:1041B80000435B428B60C568B5F1004F0CBF6FF0E0
:1041C80000456D42CD607D1E00F1100401F1100321
:1041D80050D00EB32668B6F1004F3CD076421E6030
:1041E8006668B6F1004F0CBF6FF0004676425E601D
:1041F800A668B6F1004F0CBF6FF0004676429E608D
:10420800E6681034B6F1004F0CBF6FF000467642F6
:10421800DE601033013D2DD02668B6F1004F26D060
:1042280076421E606668B6F1004F1DD076425E6029
:10423800A668B6F1004F14D076429E60E668103446
:10424800B6F1004F0AD07642DE6026681033013D91
:10425800B6F1004FC2D16FF00046C0E76FF00046DC
:10426800F2E76FF00046E8E76FF00046DFE76FF02F
:104278000046D6E73F01C019C91912F003032BD035
:1042880050F8042B5C1EB2F1004F04F001042BD04F
:104298005242013B41F8042B1ED04CB150F8042B7C
:1042A800B2F1004F12D05242013B41F8042B13D017
:1042B80050F8042BB2F1004F10D0524241F8042BB1
:1042C80050F8042B013BB2F1004FECD16FF00042E3
:1042D800013B41F8042BEBD1F0BC70476FF0004272
:1042E800ECE76FF0004455E76FF00042D1E700BFFC
:1042F8005FEA920C2DE9F00300F0AA8090F90060C3
:1043080090F9015090F9023090F90340764206F393
:104318000706F6B26D425B4205F3070503F3070390
:1043280064422D0604F307041B0446EA046444EAC5
:1043380015450E4603F47F031D430CF1FF3446F880
:10434800045B2546031D04F001040436002D7BD0D0
:104358005CB393F8009093F801809F78DC784FFA6B
:1043680089F9C9F100094FFA88F809F307097FB2FA
:1043780064B25FFA89F97F426442C8F1000807F322
:10438800070708F307083F044FEA086804F307041F
:1043980049EA046444EA184407F47F073C4346F8B2
:1043A800044C04330436013D4ED093F9009093F940
:1043B800018093F9027093F90340C9F1000909F3E8
:1043C80007095FFA89F97F426442C8F1000807F3D8
:1043D800070708F307083F044FEA086804F30704CF
:1043E80049EA046444EA184407F47F073C4346F862
:1043F800044C93F8049093F9058093F906701C1DFA
:104408004FFA89F993F90730C9F1000909F3070947
:104418005FFA89F97F425B42C8F1000807F3070792
:1044280008F307083F044FEA086803F3070349EA5B
:10443800036343EA184307F47F073B4346F8043B0A
:10444800231D0436023DB0D14FEA8C0C6044614410
:1044580012F003022BD00346851813F9012BC04331
:1044680052422818AB4202F3070200F0010001F89B
:10447800012B1CD040B113F9010B4242AB4202F3AD
:10448800070001F8010B12D018460A4610F9014B33
:10449800644204F3070402F8014B93F90140431CFA
:1044A800604200F307004870511CAB42ECD1BDE8F4
:1044B800F00370475FEA920CF0B47BD0D0ED007A3D
:1044C80077EE800A0CF1FF33C1ED000A90ED011A76
:1044D80071EE001A1F46C1ED011A90ED022A72EE24
:1044E800002A03F00105C1ED022A90ED033A73EEAC
:1044F800003A01F11003C1ED033A00F11004002F56
:1045080054D0DDB194ED004A74EE004AC3ED004A80
:1045180094ED015A75EE005AC3ED015A94ED026A02
:1045280076EE006AC3ED026A94ED037A77EE007ABC
:104538001034C3ED037A1033013F37D0D4ED000AAD
:1045480030EE801A04F1100683ED001AD4ED011A3A
:1045580031EE802A03F1100583ED012AD4ED022AF9
:1045680032EE803A83ED023AD4ED033A33EE804AD4
:1045780083ED034AD4ED044A34EE805A203483EDA7
:10458800045AD6ED015A35EE806A203385ED016A6A
:10459800D6ED026A36EE807A023F85ED027AD6EDD4
:1045A800037A77EE800AC5ED030AC7D14FEA0C13E8
:1045B800C918C01812F0030225D090ED001A013A6C
:1045C80071EE001A1346E1EC011A02F00102D3B1B0
:1045D80042B1043090ED002A72EE002A013BE1EC72
:1045E800012A10D090ED013A73EE003A0A46E2EC47
:1045F800013A90ED024A74EE004A0830C1ED014AD2
:10460800111D023BEED1F0BC704700BF5FEA930C6E
:104618002DE9F003C1EA014443D006460CF1FF3806
:10462800154608F0010956F8087B97FA14F745F87B
:10463800087B56F8047C97FA14F745F8047C08368A
:104648000835B8F1000F28D0B9F1000F06D056F898
:10465800087C97FA14F745F8087C13E056F8087CAC
:1046680097FA14F745F8087C56F8047C97FA14F77B
:1046780045F8047C08F1FF3856F8087B97FA14F7D8
:1046880045F8087B56F8047C97FA14F745F8047C3B
:1046980008360835B8F10108E0D14FEACC0C60447F
:1046A800624413F0030324D0013B03F0010530F901
:1046B800024B94FA11F422F8024BD3B13DB130F910
:1046C800024B94FA11F4013B22F8024B11D0054633
:1046D80035F9026B96FA11F61446013B24F8026B81
:1046E800B0F90260A81C96FA11F55580A21C013B8E
:1046F800EDD1BDE8F00370475FEA930C2DE9F001B6
:1047080060D00CF1FF3606F00107046881FA84F5E1
:104718001560446881FA84F55560846881FA84F5E7
:104728009560C46800F1100581FA84F4D46002F140
:104738001004002E42D09FB12F6881FA87F72760B6
:104748006F6881FA87F76760AF6881FA87F7A760B3
:10475800EF68103581FA87F7E7601034013E2DD0F5
:104768002F6881FA87F727606F6881FA87F7676093
:10477800AF6881FA87F7A760EF6805F1100881FA3A
:1047880087F7E760013E04F110072D6981FA85F586
:104798002561D8F8044081FA84F57D60D8F808408E
:1047A80081FA84F5BD60D8F80C4008F1100581FA4B
:1047B80084F4013EFC6007F11004D1D14FEA0C1CCF
:1047C8006044624413F0030323D0013B03F0010566
:1047D80050F8044B81FA84F442F8044BCBB13DB154
:1047E80050F8044B81FA84F4013B42F8044B10D092
:1047F800054655F8046B81FA86F61446013B44F8E1
:10480800046B4668281D81FA86F55560221D013B18
:10481800EED1BDE8F00170472DE9F0070C06CFB2E4
:1048280027430D0447EA144405F47F055FEA930C17
:104838009A4644EA050730D003460CF1FF36144681
:1048480006F0010853F8049B89FA17F944F8049B09
:104858001D1D0434EEB1B8F1000F09D055F8043C21
:1048680083FA17F844F8048C04350434013E10D058
:1048780055F8043C83FA17F844F8048C013E55F8BF
:10488800048B88FA17F844F8048B04350434013E85
:10489800EED14FEA8C03C018D2181AF003032BD0BC
:1048A800144610F9015BD6184B1903F3070304F8F3
:1048B800013BD243B218B44202F001031CD043B109
:1048C80010F9012B8B1803F3070204F8012BB442EB
:1048D80012D00346224613F9015B4D1905F307056B
:1048E80002F8015B90F90100081800F307006070F6
:1048F800541C581CB442ECD1BDE8F007704700BF07
:104908005FEA920CF0B47BD0D0ED007A67EE800AB3
:104918000CF1FF33C1ED000A90ED011A61EE001AA7
:104928001F46C1ED011A90ED022A62EE002A03F03B
:104938000105C1ED022A90ED033A63EE003A01F158
:104948001003C1ED033A00F11004002F54D0DDB17B
:1049580094ED004A64EE004AC3ED004A94ED015A12
:1049680065EE005AC3ED015A94ED026A66EE006ADC
:10497800C3ED026A94ED037A67EE007A1034C3ED52
:10498800037A1033013F37D0D4ED000A20EE801AA5
:1049980004F1100683ED001AD4ED011A21EE802AE5
:1049A80003F1100583ED012AD4ED022A22EE803AA4
:1049B80083ED023AD4ED033A23EE804A83ED034AAD
:1049C800D4ED044A24EE805A203483ED045AD6EDFF
:1049D800015A25EE806A203385ED016AD6ED026A18
:1049E80026EE807A023F85ED027AD6ED037A67EEED
:1049F800800AC5ED030AC7D14FEA0C13C918C018BD
:104A080012F0030225D090ED001A013A61EE001A67
:104A18001346E1EC011A02F00102D3B142B10430AD
:104A280090ED002A62EE002A013BE1EC012A10D049
:104A380090ED013A63EE003A0A46E2EC013A90ED55
:104A4800024A64EE004A0830C1ED014A111D023BDA
:104A5800EED1F0BC704700BF2DE9F00FDDF82080E3
:104A6800C2F10F025FEA980A5FFA82F900F0B68095
:104A7800068844881D464FFA89F216FB01F714FB95
:104A880001F447FA02F744FA02F407F30F0604F3B5
:104A98000F07C6EA074445F8084BB0F804B0C688C3
:104AA8000AF1FF371BFB01F416FB01F6BC4644FA7A
:104AB80002FB46FA02F60BF30F0B06F30F0407F09E
:104AC8000107CBEA044600F1080445F8046C0835F0
:104AD800BCF1000F7ED047B32788668817FB01F723
:104AE80016FB01F647FA02F746FA02F607F30F0734
:104AF80006F30F06C7EA064745F8087CA788E68844
:104B080017FB01F716FB01F647FA02F746FA02F619
:104B180007F30F0706F30F060834C7EA064645F8F9
:104B2800046C0835BCF1010C54D02788668817FB43
:104B380001F716FB01F647FA02F746FA02F607F301
:104B48000F0706F30F06C7EA064745F8087CB4F8CE
:104B580004B0E6881BFB01FB16FB01F64BFA02FBCF
:104B680046FA02F60BF30F0B06F30F06CBEA0646DE
:104B780045F8046C04F10807B4F808B064892E46B7
:104B880014FB01F41BFB01F545FA02F544FA02F4A3
:104B980005F30F0504F30F04C5EA044546F8085B5E
:104BA800BC88B7F806B014FB01F5BCF1020C1BFB7E
:104BB80001F444FA02FB45FA02F50BF30F0B05F377
:104BC8000F0507F10804C5EA0B4706F1080546F882
:104BD800047CAAD14FEACA0A5044534418F0030887
:104BE80036D030F8022B08F1FF3812FB01F44FFAE7
:104BF80089F6424644FA06F408F0010504F30F0466
:104C080023F8024B22B35DB130F8024B013A14FB92
:104C180001F444FA06F404F30F0423F8024B17D006
:104C280005461C4635F8027B17FB01F747FA06F7DD
:104C380007F30F0724F8027B408810FB01F747FAB7
:104C480006F7A81C07F30F055D80A31C023AE7D1FD
:104C5800BDE8F00F704700BF2DE9F00F86B0C2F134
:104C68001F020E9C0290A708D0B2039304900597E8
:104C78007CD040B2029DBC461E46A0F12004C0F183
:104C880020076FF000484FF000092B6883FB0123D1
:104C980003FA07FB22FA00F243FA04FA4BEA02028B
:104CA80012EA240238BF524643FA00F3B3EBE27F1C
:104CB80002D0DA1782EA080232606B6883FB0123AC
:104CC80003FA07FB22FA00F243FA04FA4BEA02025B
:104CD80012EA240238BF524643FA00F3B3EBE27FEC
:104CE80002D0DA1782EA08027260AB6883FB0123FC
:104CF80003FA07FB22FA00F243FA04FA4BEA02022B
:104D080012EA240238BF524643FA00F3B3EBE27FBB
:104D180002D0DA1782EA0802B260EB6883FB01234B
:104D280003FA07FB22FA00F243FA04FA4BEA0202FA
:104D380012EA240238BF524643FA00F31035B3EBA7
:104D4800E27F02D0DA1782EA0802F2601036BCF17C
:104D5800010C9AD1DDF814A0DDF808B0039C4FEAE5
:104D68000A1083442718CDF808B003970E9C14F056
:104D7800030700F09080DDF80880DDF8109058F8FF
:104D8800045B4FFA89F085FB0123C0F1200C03FA7C
:104D98000CF5A0F1200622FA00F243FA06F42A43A1
:104DA80034EA260A28BF924607F1FF3943FA00F38E
:104DB800002509F00102B3EBEA7F6FF0004402928C
:104DC8006FD0DB171A464FF0000A00939B460193F9
:104DD8006240DDF80C90013F49F8042B5BD0029B40
:104DE800EBB158F8042B82FB012303FA0CFB22FADF
:104DF80000F243FA06FA4BEA020212EA260238BF28
:104E0800524643FA00F3B3EBE27F04D0DB171A46AD
:104E1800009301936240013F49F8042B3BD058F8B6
:104E2800042B82FB012303FA0CFB22FA00FA4BEA5B
:104E38000A0B43FA06F232EA260228BF5A4643FA18
:104E480000F3B3EBE27F04D0DB171A46009301931B
:104E5800624049F8042B58F8043B83FB012303FA0A
:104E68000CFB22FA00FA4BEA0A0A43FA06F21AEA9B
:104E7800260A38BF924643FA00F3013FB3EBEA7FB4
:104E88000DD0DB171A466240013F00939A46019302
:104E980049F8042BC3D106B0BDE8F00F704752465D
:104EA800B9E7524695E700BF2DE9F00F089CC2F11B
:104EB80007025FEA940B5FFA82FA42D04FFA8AF44B
:104EC8001E1D5D46024692F8009092F8018092F805
:104ED80002C0D7784FFA89F909FB01F94FFA88F827
:104EE8004FFA8CFC7FB249FA04F908FB01F809F380
:104EF80007090CFB01FC07FB01F75FFA89F948FA7F
:104F080004F84CFA04FC08F307080CF3070C47FAFA
:104F180004F74FEA086807F307074FEA0C4C49EA19
:104F2800076747EA18470CF47F0C47EA0C0746F86E
:104F3800047C04320436013DC5D14FEA8B0B58443A
:104F48005B44089C14F0030639D00246861912F90E
:104F5800014BC0434FFA8AFA301804FB01F4B242FD
:104F680044FA0AF400F0010004F3070403F8014BC3
:104F780025D058B112F9010B00FB01F0B24240FAFA
:104F88000AF000F3070003F8010B18D0144618467E
:104F980014F9015B05FB01F545FA0AF505F3070568
:104FA80000F8015B527855B205FB01F5621C45FA21
:104FB8000AF404F307045C70431CB242E6D1BDE86E
:104FC800F00F70472DE9F00721F07F0414F0FF0F70
:104FD8004FEA930800F0B580B8F1000F00F0858023
:104FE8001646B0F90070B0F902504C4245FA04F583
:104FF80047FA04F7C7EA054746F8087B08F1FF3582
:10500800B0F904C0B0F90670A9464CFA04FC47FA96
:1050180004F705F0010ACCEA074700F1080546F84D
:10502800047C0836B9F1000F5BD0BAF1000F1ED02E
:10503800B5F900C0B5F902704CFA04FC47FA04F758
:10504800CCEA074746F8087CB5F804C0EF880FFAA1
:105058008CFC3FB24CFA04FC47FA04F70835CCEA5A
:10506800074746F8047C0836B9F1010939D0B5F983
:1050780000A0B5F902704AFA04FC47FA04F7CCEA32
:10508800074746F8087CB5F904A0B5F906704AFA4E
:1050980004FA47FA04F7CAEA074746F8047C05F118
:1050A800080CB5F908A0B5F90A50374645FA04F5D1
:1050B8004AFA04F6C6EA054547F8085BBCF90460F5
:1050C800BCF906A0B9F1020946FA04F64AFA04FA4C
:1050D8000CF10805C6EA0A4C07F1080647F804CCA3
:1050E800C5D14FEAC8084044424413F0030325D011
:1050F800B0F90050013B494245FA01F51C4622F837
:10510800025B03F00103CCB13BB130F9023F013C33
:1051180043FA01F322F8023B10D0B0F902501346CB
:1051280045FA01F523F8025B851C0430B5F90250F5
:1051380045FA01F555809A1C023CEED1BDE8F0070E
:105148007047B8F1000F00F0A2801546B0F9007062
:10515800B0F9024007FA01F704FA01F407F30F0661
:1051680004F30F07C6EA074445F8084B08F1FF3473
:10517800B0F90470B0F90660A44607FA01F706FA18
:1051880001F607F30F0706F30F0604F00109C7EA53
:10519800064600F1080445F8046C0835BCF1000F18
:1051A80071D0B9F1000F24D0B4F90070B4F90260DD
:1051B80007FA01F706FA01F607F30F0706F30F06D9
:1051C800C7EA064745F8087CA788E6883FB236B2A2
:1051D80007FA01F706FA01F607F30F0706F30F06B9
:1051E8000834C7EA064645F8046C0835BCF1010CDA
:1051F80049D0B4F90070B4F9026007FA01F706FA69
:1052080001F607F30F0706F30F06C7EA064745F846
:10521800087CB4F90490B4F9066009FA01F906FAB1
:1052280001F609F30F0906F30F06C9EA064645F821
:10523800046C04F10807B4F90890B4F90A402E4642
:1052480004FA01F409FA01F504F30F0405F30F0554
:10525800C5EA044546F8085BB7F90440B7F9069073
:10526800BCF1020C04FA01F409FA01F904F30F0580
:1052780009F30F0907F10804C5EA094706F108050B
:1052880046F8047CB5D14FEAC8084044424413F0BC
:1052980003033FF453AF013B30F9025B1C4605FAA8
:1052A80001F503F0010305F30F0522F8025B002C5A
:1052B8003FF444AF53B130F9023B013C03FA01F328
:1052C80003F30F0322F8023B3FF438AF05461346B9
:1052D80035F9026B06FA01F606F30F0623F8026B9E
:1052E800B0F90260A81C06FA01F505F30F05558010
:1052F8009A1C023CEAD121E72DE9F00F88B021F091
:105308007F040592E4B29A080693049000940792E9
:1053180000F0AA80059E079C059B054602461036AC
:105328001035C1F10008A1F12000C1F1200C72E094
:1053380055F8107C4FEAE77927FA0CFB09FA01FACD
:105348004BEA0A0B07FA00F939EA200928BFD946BF
:1053580007FA01F7B9EBE77F05D04FEAE97A6FF072
:1053680000478AEA070746F8107C57684FEAE77A49
:1053780027FA0CFB0AFA01FA07FA00F94BEA0A0BBA
:1053880039EA200928BFD94607FA01F7B9EBE77FC0
:1053980005D04FEAE97A6FF000478AEA07075F60AD
:1053A80097684FEAE77A27FA0CFB0AFA01FA07FA34
:1053B80000F94BEA0A0B39EA200928BFD94607FA4F
:1053C80001F7B9EBE77F05D04FEAE97A6FF00047BC
:1053D8008AEA07079F60D7684FEAE77A27FA0CFB43
:1053E8000AFA01FA07FA00F94BEA0A0A39EA200927
:1053F80028BFD14607FA01F7B9EBE77F04D04FEA97
:10540800E97787F00047FF43DF6010361033103527
:105418001032013C1AD0009F002F89D055F8107C1B
:1054280047FA08F746F8107C576847FA08F75F60AC
:10543800976847FA08F79F60D76847FA08F7DF6068
:105448001036103310351032013CE4D1DDF81C80E1
:10545800DDF81090DDF814C04FEA08108144844448
:10546800CDF81090CDF814C0069A12F0030000F0A1
:105478008A80049D009B461E2A1DA1F120044D42EE
:10548800C1F120076FF0004A4FF0000B06F001064B
:10549800002B7CD052F8043C43FA05FC059B0432EF
:1054A800013843F804CB6ED066B1009E002E00F0A0
:1054B800938052F8046C46FA05F60432013843F832
:1054C800046B60D08C4604950099CDE900AB43E0AD
:1054D8004FEAE67826FA07FB08FA0CF806FA04F908
:1054E8004BEA080818EA240838BFC84606FA0CF63A
:1054F800B8EBE67F08D04FEAE878009DCDF8088041
:105508004646CDF80C806E40013843F8046B0432EF
:1055180079BB52F8046C4FEAE67826FA07FB08FADA
:105528000CF806FA04F94BEA080818EA240838BF08
:10553800C84606FA0CF6B8EBE67F08D04FEAE878DA
:10554800009DCDF808804646CDF80C806E400432A8
:10555800013843F8046B16D052F8046C0029B7D010
:10556800049D46FA05F6013843F8046B0432002915
:10557800CFD052F8046C049D043246FA05F601387F
:1055880043F8046BE8D108B0BDE8F00F704752F853
:10559800043C4FEAE37C23FA07F90CFA01FC49EAD8
:1055A8000C0C03FA04F838EA240828BFE04603FA8A
:1055B80001FCB8EBEC7FCDF810803FF46FAFDDF85D
:1055C80010904FEAE9794FF00008CDF80890CDF82F
:1055D8000C9089EA0A0C61E752F8046C4FEAE67C01
:1055E80026FA07F90CFA01F849EA080806FA04FC51
:1055F8003CEA240C28BFC44606FA01F6BCEBE67F59
:105608003FF45BAF4FEAEC79CDF80890C846CDF887
:105618000C9089EA0A0650E72DE9F00F21F07F0483
:1056280014F0FF0F4FEA930800F0D080B8F1000F94
:1056380000F09D8090F9007090F903C090F9016026
:1056480090F902504C4247FA04F74CFA04FCFFB2B6
:1056580046FA04F645FA04F547EA0C6736062D04BF
:10566800944647EA164705F47F06374308F1FF35A5
:105678004CF8047B2F4605F001060CF1040C051DBF
:10568800002F70D04EB395F800A06E7895F8029070
:1056980095F803B04FFA8AFA4FFA8BFB4AFA04FAE4
:1056A80076B24FFA89F94BFA04FB5FFA8AFA46FA9E
:1056B80004F649FA04F936064AEA0B6A4FEA094938
:1056C8004AEA164609F47F0946EA09060435013F05
:1056D8004CF8046C0CF1040C45D095F900A095F930
:1056E80003B095F9016095F902904AFA04FA5FFA55
:1056F8008AFA49FA04F94BFA04FB46FA04F64AEA2C
:105708000B6B36064FEA094A0AF47F094BEA16463C
:1057180046EA09064CF8046C95F804A095F907B018
:105728002E1D4FFA8AFA95F9055096F902904AFA11
:1057380004FA4BFA04FB5FFA8AFA45FA04F549FAC7
:1057480004F92D064AEA0B6A4FEA09494AEA15455F
:1057580009F47F0945EA09054CF8045B351D023F49
:105768000CF1040CB9D14FEA88084044424413F0C4
:10577800030328D090F900601446494246FA01F61E
:1057880004F8016BD518D243AB18AC4203F0010200
:1057980019D03AB110F9013F43FA01F304F8013B7B
:1057A800AC4210D090F90120234642FA01F203F8E6
:1057B800012B421C023092F9012042FA01F2627078
:1057C8005C1CAC42EED1BDE8F00F7047B8F1000F99
:1057D80000F0BD8090F9007090F9016090F90240E6
:1057E80090F9035007FA01F707F30707FFB206FA23
:1057F80001F604FA01F406F3070604F3070405FAB0
:1058080001F5360605F30705240447EA056545EA68
:105818001646174604F47F04264308F1FF3547F877
:10582800046B2E46041D05F001050437002E00F018
:105838008A808DB394F800A094F8019094F802C07F
:10584800E5784FFA8AFA0AFA01FA4FFA89F90AF35F
:10585800070A4FFA8CFC6DB25FFA8AFA09FA01F965
:105868000CFA01FC09F307090CF3070C05FA01F51A
:105878004FEA096905F307054FEA0C4C4AEA056542
:1058880045EA19450CF47F0C45EA0C0547F8045C19
:1058980004340437013E56D094F900A094F90190DD
:1058A80094F902C094F903500AFA01FA0AF3070AB4
:1058B8005FFA8AFA09FA01F90CFA01FC09F30709F7
:1058C8000CF3070C4FEA09694FEA0C4C05FA01F58D
:1058D80005F307054AEA056545EA19450CF47F0A08
:1058E80045EA0A0547F8045C94F804A094F9059081
:1058F80094F906C0251D4FFA8AFA94F907400AFA66
:1059080001FA0AF3070A5FFA8AFA09FA01F90CFAA6
:1059180001FC09F307090CF3070C04FA01F44FEA38
:10592800096904F307044FEA0C4C4AEA046444EAA0
:1059380019440CF47F0C44EA0C0447F8044B2C1D62
:105948000437023EA8D14FEA88084044424413F085
:1059580003033FF438AF0446C31814F9015BC0438E
:1059680018189C4205FA01F500F0010005F3070537
:1059780002F8015B3FF427AF50B114F9010B9C42C8
:1059880000FA01F000F3070002F8010B3FF41BAF27
:105998002546104615F9016B06FA01F606F30706C7
:1059A80000F8016B94F901606C1C06FA01F505F327
:1059B80007055570421C9C42EAD104E72DE9F0071F
:1059C8005FEA930A00F0A68090ED007AD1ED007AA4
:1059D80037EE670A0AF1FF3482ED000AD0ED010ABA
:1059E80091ED011A70EEC11AA146C2ED011A90EDAF
:1059F800022AD1ED022A32EE623A04F0010782ED62
:105A0800023AD0ED033A91ED034A73EEC44A02F12B
:105A18001004C2ED034A00F1100601F11005B9F1B6
:105A2800000F72D02FB396ED005AD5ED005A35EE1F
:105A3800656A84ED006AD6ED016A95ED017A76EE25
:105A4800C77AC4ED017A96ED020AD5ED020A30EE66
:105A5800601A84ED021AD6ED031A95ED032A71EE49
:105A6800C22A1036C4ED032A10351034B9F10109E1
:105A78004BD096ED003AD5ED003A33EE634A06F185
:105A8800100884ED004AD6ED014A95ED015A74EEEE
:105A9800C55A04F11007C4ED015A96ED026AD5ED16
:105AA800026A36EE667A05F1100C84ED027A96EDFC
:105AB800030AD5ED037A70EE670AC4ED030A96ED82
:105AC800041AD5ED041A31EE612A203684ED042A31
