:020000040800F2
:1000000000000220390F0008810F0008810F00084E
:10001000810F0008810F0008810F00080000000018
:10002000000000000000000000000000810F000838
:10003000810F000800000000810F0008810F0008F8
:10004000810F0008810F0008810F0008810F000850
:10005000810F0008810F0008810F0008810F000840
:10006000810F0008810F0008810F0008810F000830
:10007000810F0008810F0008810F0008810F000820
:10008000810F0008810F0008810F0008810F000810
:10009000810F0008810F0008810F0008810F000800
:1000A000810F0008810F0008810F0008810F0008F0
:1000B000810F0008810F0008810F0008810F0008E0
:1000C000810F0008810F0008810F0008810F0008D0
:1000D000810F0008810F0008810F0008810F0008C0
:1000E000810F0008810F0008810F0008810F0008B0
:1000F000810F0008810F0008810F0008810F0008A0
:10010000810F0008810F0008810F0008810F00088F
:10011000810F0008810F0008810F0008810F00087F
:10012000810F0008810F0008810F0008810F00086F
:10013000810F0008810F0008810F0008810F00085F
:10014000810F0008810F0008810F0008810F00084F
:10015000810F0008810F0008810F0008810F00083F
:10016000810F0008810F0008810F0008810F00082F
:10017000810F0008810F0008810F0008810F00081F
:08018000810F0008810F000847
:1001880010B5054C237833B9044B13B10448AFF3C9
:1001980000800123237010BD5C04002000000000D3
:1001A8008C0F000808B5064B1BB106480649AFF38B
:1001B80000800648036813B1054B03B1984708BD92
:1001C800000000008C0F0008600400205804002084
:1001D80000000000154B002B08BF134B9D46A3F5EC
:1001E800803A4FF000018B460F461348134AA2EBA2
:1001F800000200F047FD0E4B002B00D098470D4B36
:10020800002B00D098474FF000004FF00001044643
:100218000D460B4800F0E4FC00F00EFD2046294690
:1002280000F03EFE00F0E2FC0000080000000000C4
:1002380000000000000000005C040020780400209A
:10024800150C000882B00190019B5A1E0192002BE8
:10025800FAD102B0704700BF70B5082082B0012102
:1002680000F05AFA4FF440600024012502264FF4AA
:1002780070436946C4F2020000938DF804508DF86B
:1002880005608DF806408DF8074000F0F5FB28461C
:10029800294600F041FA2046C4F20200694600955A
:1002A8008DF804408DF805608DF806408DF80760DC
:1002B80000F0E2FB02B070BD4FF46053C4F20203D9
:1002C8000022196841F0010119609A60186843F228
:1002D800100120F08470C2F2004120F480301860D0
:1002E8005960196882B021F480211960DA6000929F
:1002F80001921A6842F480321A601A4603E0009BA1
:10030800B3F5A06F09D0136803F400330193009B81
:1003180001330093019B002BF1D04FF46053C4F2DA
:1003280002031B6813F4003308BF019301D00123B3
:100338000193019B012B08D04FF46D43CEF20003CB
:100348004FF000629A6002B070474FF46053C4F2F5
:1003580002034FF4E042196CC4F2000241F08051EC
:100368001964116841F4804111609A689A609A682A
:1003780042F400429A60996845F2084241F4A0515B
:10038800C0F2407299605A601A6842F080721A602E
:1003980019460A684FF460539201C4F20203F8D573
:1003A8004FF47052C4F2020240F2056111609A687B
:1003B80022F003029A609A6842F002029A609A68F0
:1003C80002F00C02082AFAD1B6E700BF4FF46053D6
:1003D800C4F202039A6802F00C02042A04BF47F62A
:1003E8004001C0F27D1106D0082A1CBF4FF41051FD
:1003F800C0F2F4010BD04FF46052C4F20202154B64
:100408009268C2F303129A5CD14019617047586828
:100418005A6810F4800F586815BF47F640034FF428
:100428001053C0F27D13C0F2F40302F03F02B3FB95
:10043800F2F14FF46053C4F20203C0F388105B6812
:10044800C3F30143013301FB00F15B00B1FBF3F19E
:10045800D1E700BF040000204FF46053C4F2020348
:100468000022196841F0010119609A60186843F286
:10047800100120F08470C2F2004120F4803018602E
:100488005960196821F480211960DA60704700BF4B
:1004980043F60203C4F2020300221A701870704770
:1004A80082B04FF4605100230193C4F202010A683C
:1004B800019B01330193019BB3F5A06F01D0930316
:1004C800F5D54FF46053C4F202031868C0F34040F6
:1004D80002B070474FF46053C4F202031A6822F066
:1004E800F80242EAC0021A60704700BF0023C4F253
:1004F80047231860704700BF43F67003C4F2020335
:10050800002201281A701A7004D0042801D105228B
:100518001A707047187070474FF46863C4F2472325
:1005280018607047014341EA821200995B084FF452
:10053800605042EA0162013BC4F2020042EA03420F
:10054800426070476023C4F247231860704700BFB9
:100558004FF460538001C4F2020340EA0171C3F80A
:10056800841070476823C4F247231860704700BF9F
:100578004C23C4F247231860704700BF4FF4605300
:10058800C4F202039A6822F0EC6202430A439A60BA
:10059800704700BF4FF46053C4F202039A6822F018
:1005A800784202430A439A60704700BF4FF4605391
:1005B800C4F202039A6822F0030202439A60704769
:1005C8004FF46053C4F20203986800F00C007047BF
:1005D8004FF46053C4F202039A6822F0F002024317
:1005E8009A6070474FF46053C4F202039A6822F489
:1005F800E05202439A6070474FF46053C4F202031A
:100608009A6822F4604242EAC0029A60704700BFCA
:100618004FF46053C4F2020310B49A6802F00C025B
:10062800042A02BF47F64002C0F27D12026006D0DB
:10063800082A1ED04FF41052C0F2F40202604FF4A0
:100648006053C4F202031C499C68C4F303140C5D94
:10065800E24042609C68C4F382240C5D32FA04F4E0
:1006680084609B68C3F34233CB5CDA40C26010BC41
:1006780070475C68596814F4800F5C6815BF47F6CA
:1006880040034FF41053C0F27D13C0F2F40301F09D
:100698003F01B3FBF1F24FF46053C4F20203C4F319
:1006A80088145B68C3F30143013302FB04F25B0067
:1006B800B2FBF3F20260C2E71800002000F44073B6
:1006C800B3F5407F0CD14FF46053C4F2020320F01D
:1006D80070419A6821F4407122F4F8120A439A6032
:1006E8004FF46053C4F2020300051A6F000D104363
:1006F8001867704740F63C63C4F247231860704798
:100708004FF46463C4F24723186070474FF4AE7324
:10071800C4F24723186070474FF46053C4F20203D1
:100728001A6B19B922EA000018637047104318635E
:10073800704700BF4FF46053C4F202035A6B19B9F3
:1007480022EA00005863704710435863704700BF9F
:100758004FF46053C4F202039A6B19B922EA0000FD
:100768009863704710439863704700BF4FF4605315
:10077800C4F202031A6C19B922EA0000186470471F
:1007880010431864704700BF4FF46053C4F202036B
:100798005A6C19B922EA000058647047104358642B
:1007A800704700BF4FF46053C4F202031A6919B9C5
:1007B80022EA00001861704710431861704700BFB3
:1007C8004FF46053C4F202035A6919B922EA0000CF
:1007D8005861704710435861704700BF4FF4605329
:1007E800C4F202039A6919B922EA000098617047B5
:1007F80010439861704700BF4FF46053C4F202037E
:100808001A6A19B922EA0000186270471043186280
:10081800704700BF4FF46053C4F202035A6A19B913
:1008280022EA00005862704710435862704700BFC0
:100838004FF46053C4F202031A6D19B922EA00009A
:100848001865704710431865704700BF4FF4605330
:10085800C4F202035A6D19B922EA000058657047BC
:1008680010435865704700BF4FF46053C4F2020349
:100878009A6D19B922EA0000986570471043986587
:10088800704700BF4FF46053C4F202031A6E19B9DF
:1008980022EA00001866704710431866704700BFC8
:1008A8004FF46053C4F202035A6E19B922EA0000E9
:1008B8005866704710435866704700BF43F60D03EB
:1008C800C4F202031A7819B922EA000018707047B6
:1008D80010431870704700BF4309012B0ED0022B3C
:1008E8004FF46053C4F202030CBF1B6F5B6F00F040
:1008F8001F0033FA00F000F0010070474FF4605316
:10090800C4F202031B68F2E74FF46053C4F2020317
:100918005A6F42F080725A67704700BF4FF46053B5
:10092800C4F20203DB6818420CBF002001207047A4
:1009380043F60E03C4F2020318707047B80F00089C
:1009480000000020580400205C04002078040020E7
:1009580008B50023C4F2020398423CD04FF48063E8
:10096800C4F20203984240D04FF40063C4F2020379
:10097800984244D04FF44063C4F20203984248D0EE
:100988004FF48053C4F2020398424CD04FF4A05362
:10099800C4F20203984250D04FF4C053C4F2020389
:1009A800984254D04FF4E053C4F20203984258D00E
:1009B8004FF40053C4F20203984200D008BD01214D
:1009C8004FF48070FFF7EEFE4FF480700021BDE811
:1009D8000840FFF7E7BE01200146FFF7E3FE0120CC
:1009E8000021BDE80840FFF7DDBE02200121FFF726
:1009F800D9FE02200021BDE80840FFF7D3BE04203D
:100A08000121FFF7CFFE04200021BDE80840FFF7D1
:100A1800C9BE08200121FFF7C5FE08200021BDE856
:100A28000840FFF7BFBE10200121FFF7BBFE1020D2
:100A38000021BDE80840FFF7B5BE20200121FFF7DF
:100A4800B1FE20200021BDE80840FFF7ABBE4020E2
:100A58000121FFF7A7FE40200021BDE80840FFF76D
:100A6800A1BE80200121FFF79DFE80200021BDE866
:100A78000840FFF797BE00BF00232DE9F0070A687A
:100A88001C4601274FF0030803E001340233102C01
:100A98002BD017FA04F505EA0206AE42F5D1D0F8D4
:100AA800009091F804C008FA03F5ED4305EA090936
:100AB800C0F80090D0F800900CFA03FA0CF1FF3C53
:100AC8004AEA0909BCF1010FC0F8009010D9C668BC
:100AD80091F807C03540C560C6680CFA03F50134C3
:100AE80035430233102CC560D3D1BDE8F0077047F9
:100AF800D0F808A091F8059091F806C005EA0A0A0E
:100B0800C0F808A0D0F808A009FA03F949EA0A09C8
:100B1800C0F80890D0F8049029EA060646604668AE
:100B28000CFA04FC1FFA8CFC4CEA06064660CEE779
:100B380000234FF6FF720260037143718371C37122
:100B4800704700BF82B04FF480330193019B0B4381
:100B58000193019BC361C161019BC361C369019397
:100B6800C369019302B07047036919420CBF0020A2
:100B780001207047006980B2704700BF436919427D
:100B88000CBF002001207047406980B2704700BF49
:100B980001837047418370470AB9418370470183D5
:100BA800704700BF4161704743694B4043617047DC
:100BB800CB08083301F0070130B4890050F82350FE
:100BC8000F248C4025EA040440F8234050F82340C1
:100BD80012FA01F10C4340F8234030BC704700BFC3
:100BE800014600200246034600F096B808B50021E9
:100BF800044600F0E9F8044B1868C36B03B1984742
:100C0800204600F0CEE900BF840F000838B5084D33
:100C1800084C641BA41006D005EB840555F8043D68
:100C28009847013CFAD1BDE8384000F0B3B900BF9D
:100C3800B40F0008B80F000870B50E4D0E4E761BA5
:100C4800B61007D0043D002455F8043F01349847F6
:100C5800A642F9D1094D0A4E761B00F095F9B61057
:100C680007D0043D002455F8043F01349847A642B4
:100C7800F9D170BDB00F0008B00F0008B00F000820
:100C8800B40F000810F0030F70B4034642D0002AD6
:100C98003ED0013ACDB203E0541E002A38D0224695
:100CA80003F8015B13F0030F1C46F5D1032A29D979
:100CB800CDB20F2A45EA052545EA054584BF2346F6
:100CC800164611D9103E1D605D609D60DD601033D1
:100CD8000F2EF7D8A2F1100323F00F0302F00F0232
:100CE8001033032A1C440DD926461346043B032B14
:100CF80046F8045BFAD8131F23F00303043302F009
:100D08000302E418C9B21AB1013A04F8011BFBD175
:100D180070BC70470446C9E72DE9F041284C2568A6
:100D2800D5F8484184B00646002C43D060681F2897
:100D38001DDD244810B94FF0FF301FE04FF4C87094
:100D4800039102920193AFF300800399029A019BE9
:100D580004460028EFD0D5F84801002784E8810030
:100D6800C5F848413846C4F88871C4F88C7146B94A
:100D7800831C013044F823106060002004B0BDE8F3
:100D8800F08104EB800801258540022ED4F888C143
:100D9800C8F8083108BFD4F88C31C8F888204CEA64
:100DA800050C08BF1D434746C4F888C108BFC4F8EE
:100DB8008C51DDE705F5A674C5F84841B6E700BFD4
:100DC800840F0008000000002DE9F04F334B83B07A
:100DD8001B68019000930E464FF0010B009BD3F85F
:100DE8004871BFB103F5A4797D686C1E0CD407F176
:100DF800880A1F350AEB85057EB12B68B3420CD0F3
:100E0800013C043D631CF7D140F20003C0F200032B
:100E1800002B30D103B0BDE8F08F7968CAEB05022A
:100E2800BA180139A14252F8783C08BF7C6002D058
:100E3800002142F8781C002BE2D0D7F88811D7F8A7
:100E480004800BFA04F20A420FD0D7F88C110A4238
:100E58000DD1019855F8801C98477B684345BDD152
:100E6800D9F80030BB42CBD0B8E79847F5E755F83A
:100E7800800C9847F1E77B685BB93B6853B138460B
:100E8800C9F80030AFF30080D9F80070002FABD15B
:100E9800C0E73B68B9461F46F8E700BF840F000863
:100EA800F8B5FFF7D9F94FF44062C4F2020244F2F0
:100EB80040234FF470411183C0F20F031846013BE1
:100EC8000028FBD14FF44064C4F2020400214FF41F
:100ED80070436383C4F202014FF4804E4FF400570D
:100EE8004FF400464FF480550B69DB07FCD5032807
:100EF8001CD8022804BFA4F818E067830BD0032885
:100F080004BF2683A4F81AE005D0012815BF25835D
:100F18002783668365830130C0B24CF2C063C0F298
:100F28002D031A46013B002AFBD1DDE70020F4E738
:100F3800002103E00B4B5B58435004310A480B4B2C
:100F480042189A42F6D30A4A02E0002342F8043BC8
:100F5800084B9A42F9D3FFF7AFF9FFF76DFEFFF799
:100F68009FFF7047B80F00080000002058040020B9
:100F78005C04002078040020FEE700003000002018
:100F88004300000000000000F8B500BFF8BC08BC32
:100F98009E467047F8B500BFF8BC08BC9E4670472F
:080FA80034F2FF7F010000009C
:040FB000AD01000887
:040FB40089010008A7
:100FB800000000000000000000000000010203041F
:100FC80006070809007A030A00000000010203046A
:100FD8000102030406070809300000200000000091
:100FE800000000001C03002084030020EC03002004
:100FF80000000000000000000000000000000000E9
:1010080000000000000000000000000000000000D8
:1010180000000000880F0008000000000000000029
:1010280000000000000000000000000000000000B8
:1010380000000000000000000000000000000000A8
:101048000000000000000000000000000000000098
:101058000000000000000000000000000000000088
:101068000000000000000000000000000000000078
:101078000000000000000000000000000000000068
:101088000000000000000000010000000000000057
:101098000E33CDAB34126DE6ECDE05000B0000001C
:1010A8000000000000000000000000000000000038
:1010B8000000000000000000000000000000000028
:1010C8000000000000000000000000000000000018
:1010D8000000000000000000000000000000000008
:0414100000000000D8
:0400000508000F39A7
:00000001FF
