:020000040800F2
:100000000000022081620208D1620208D162020867
:10001000D1620208D1620208D16202080000000029
:10002000000000000000000000000000D162020893
:10003000D162020800000000D1620208D162020809
:10004000D1620208D1620208D1620208D1620208BC
:10005000D1620208D1620208D1620208D1620208AC
:10006000D1620208D1620208D1620208D16202089C
:10007000D1620208D1620208D1620208D16202088C
:10008000D1620208D1620208D1620208D16202087C
:10009000D1620208D1620208D1620208D16202086C
:1000A000D1620208D1620208D1620208D16202085C
:1000B000AD020008B5080008C1030008D1620208BB
:1000C000D1620208D1620208D1620208D16202083C
:1000D000D1620208D1620208D1620208D16202082C
:1000E000D1620208D1620208D1620208D16202081C
:1000F000D1620208D1620208D1620208D16202080C
:10010000D1620208D1620208D1620208D1620208FB
:10011000D1620208D1620208450D0008D1620208CE
:10012000D1620208D1620208D1620208D1620208DB
:10013000D1620208D1620208D1620208D1620208CB
:10014000D1620208D1620208D1620208D1620208BB
:10015000D1620208D1620208D1620208D1620208AB
:10016000D1620208D1620208D1620208D16202089B
:10017000D1620208D1620208D1620208D16202088B
:08018000D1620208D1620208FD
:1001880010B5054C237833B9044810B10448AFF3CF
:1001980000800121217010BDEC0400200000000047
:1001A800D0A2020808B5064B1BB106480649AFF3B2
:1001B80000800648016811B1054A02B1904708BDA0
:1001C80000000000D0A20208F0040020E80400208B
:1001D80000000000154B002B08BF134B9D46A3F5EC
:1001E800803A00218B460F461348144A121A26F00B
:1001F80045F90F4B002B00D098470E4B002B00D031
:1002080098470020002104460D4600200C49002292
:10021800002326F05BF826F0E7F82046294625F06B
:1002280015FF26F0A9F800BF000008000000000034
:100238000000000000000000EC04002044BC002086
:10024800A16302080000000082B00190019B5A1EC1
:100258000192002BFAD102B0704700BF4FF46143FE
:10026800CEF200034FF460521968C4F2020241F062
:1002780080501860106C4FF080434FF6FF7140F0CB
:100288000100106419859A8990B240F001029A81A0
:10029800D962198888B240F0810201211A809982B6
:1002A800704700BF10B44FF08043188AC30729D5A0
:1002B8004FF44062C4F20202154B516981F40054B4
:1002C8005461DC88598818889A886418A4B2B4FBE9
:1002D800F0F100FB114000FB02F241F2072091B25D
:1002E800C8F23000A0FB0120C00A40F6FA7202FBF7
:1002F800101188B2D8800749074B4880021D188022
:10030800064842804FF0804300221A8210BC704792
:10031800907C0020B4BB002008050020A4BB00206E
:100328004FF46143CEF200034FF460521968C4F2EF
:10033800020241F000501860116C4FF48063C4F25F
:10034800000341F00200106410221A85998988B2CE
:1003580040F001024FF440419A81D962188882B274
:1003680042F0810101201980988270474FF461435F
:10037800CEF200034FF460521968C4F2020241F051
:1003880080401860116C4FF40063C4F2000341F020
:1003980004001064FF221A85998988B240F001028E
:1003A8004FF6FF719A81D962188882B242F08101B2
:1003B80001201980988270472DE9F0014FF40063FD
:1003C800C4F20003188AC20738D54FF44061C4F25A
:1003D80002011F4A4C691F4B84F400454D61B2F875
:1003E80006C0DE8855885C8819881788B2F80480AA
:1003F8009888AC4436191FFA8CFCB6B2B6FBF1F4F7
:10040800BCFBF7F501FB146607FB15C506FB00F0FE
:1004180005FB08F541F2072184B2ADB2C8F23001FC
:10042800A1FB0506A1FB0401F60A40F6FA70C90A09
:1004380000FB165500FB1140D580D8804FF40063AF
:10044800C4F2000300221A82BDE8F001704700BF21
:10045800B4BB0020A4BB00204FF46143CEF20003DC
:100468004FF46052C4F202024FF480015960106CDC
:100478004FF48053C4F2000340F0100111644FF4AC
:1004880080700222DA62188599898AB242F00100E6
:10049800988119888AB242F081001880998821F0E1
:1004A80070021004010C99809A8890B240F02001E3
:1004B800012299809A82704738B50120014602F0DE
:1004C80007FB47F6F843C2F2000300200246032464
:1004D8003025C4F2020019461D601C715C719A71C6
:1004E800DA71BDE8384024F043BF00BF38B50420B6
:1004F800012102F0EDFA47F6F843C2F200034FF487
:100508000060032400220F25C4F2020019461D6072
:100518001C715C71DA719A71BDE8384024F028BF0B
:1005280010B50820012102F0D3FA47F6F843C2F2C9
:1005380000034FF470441C604FF440600124002213
:100548001C71C4F20200032419465C719A71DA71B5
:10055800BDE8104024F00CBF70B501214FF4806055
:1005680002F0EEFA4BF61443C2F2000300241846D8
:100578001C605C609C60DC6002F0A0FC40F204023D
:10058800C2F2000247F6A8434FF40855C2F200032E
:10059800C4F2010512681C600126194628461E711E
:1005A8005E719C601C611A75DC6002F055FC28467F
:1005B8000A213246234602F0D7FC28460B210222A4
:1005C800234602F0D1FC28460C210322234602F0E0
:1005D800CBFC0422234628460D2102F0C5FC284600
:1005E800314602F053FD2846314602F045FD2846C3
:1005F8003146BDE8704002F07FBC00BF2DE9F04FE6
:1006080046F2A0094BF6D034C2F2000485B00121AD
:10061800C4F202094FF4001002F05AFA4FF40067CE
:10062800484602F0F9FEE7614FF40057276247F2A7
:10063800144A4FF480774BF63848002540220423AB
:100648004FF0606C0126C4F2000AC2F200084FF4B1
:10065800806B4846214667624FF40037C4F800C0F3
:10066800E260236102920193CDF80CC0A762C4F83E
:1006780004A0C4F808806561C4F818B0E562266370
:100688006563A56346F2880702F0BCFF4846314619
:1006980002F0FEFFC4F2020731464FF4001002F0E8
:1006A80017FA384602F0B8FE029A019BDDF80CC032
:1006B800E26023614FF400624FF40053384621464C
:1006C800E26123624FF480724FF40033C4F800C033
:1006D800C4F804A0C4F808806561C4F818B0626260
:1006E800A362E56226636563A56302F08BFF384663
:1006F800314605B0BDE8F04F02F0CABFF8B5012198
:100708004FF4800002F0E4F94BF6D033C2F2000354
:1007180042F24C26C4F201065E60184E40F2040212
:100728009E60C2F200024FF480669E614FF400663C
:100738001068DE6146F210444FF40056C4F2020419
:100748001E624FF480760022186101252046194662
:100758005E624FF080674FF400361F60DA605A61BE
:100768009E62DA621D635A639A6302F04BFF204669
:100778002946BDE8F84002F08BBF00BF0C050020F9
:1007880070B547F6D444C2F2000401214FF000507E
:10079800002502F0C7F9042610202146266065606E
:1007A800E56002F041FD1020012102F05FFD1020FC
:1007B800012102F0DFFD2146284626606560E560DC
:1007C80002F032FD2846012102F050FD28460121A1
:1007D800BDE8704002F0CEBD2DE9F0412DED048B4F
:1007E8008046006C25F070F841EC100B41EC180BBA
:1007F80026F02EF857EC106BB0EE480AF0EE680AB7
:1008080026F082F851EC100B25F074FB25F05CF80B
:1008180000230022C3F6E07325F0AAF80446D8F8AE
:1008280060000D4625F050F802460B462046294642
:1008380025F09EF825F05EFB08EE900AB7EE009AC8
:1008480039EE688A3046394688ED088A25F052FB29
:1008580007EE900AB8EE007A27EE870A78EE890A42
:10086800B1EE406AF1EE486AC8EE204A80EE205A9E
:10087800C0EEA05A86EE201AC6EEA01A88ED090A24
:10088800C8ED0A0AC8ED0B0A88ED0C0A88ED0D8A36
:10089800C8ED114A88ED125AC8ED135A88ED141A9A
:1008A800C8ED151ABDEC048BBDE8F0812DE9F04FB9
:1008B8004FF48063C4F2000383B0188AC10740F183
:1008C8005A81BB4EDFF8F89235680021C9F80C1040
:1008D800002D40D04B4609F1020733F8042F07EEEC
:1008E800102ADFEDB47AB8EE470A07EB4504E01B9F
:1008F800B14A60EE270A811EA342C2ED000AC1F385
:10090800400726D077B14B4633F8060F01EE100AA0
:10091800F8EE411AA34221EEA72A12EE108A42F8F5
:10092800048F16D0991C5F884B8806EE907A02EEE9
:10093800903AB8EE663AF8EE623A23EE274A63EE4A
:10094800A74A8B1C82ED014AC2ED024A0832A34233
:10095800E8D1C9F80C50984CDFF86882606894EDCB
:10096800005AF7EE005A35EEC56AB2EE047AF1EE97
:10097800047A46EE077AC6ED017A24F0A5FF82A331
:10098800D3E9002324F042FE25F0B4FA00EE100A61
:1009980060EE000AA068C4ED010AC8ED100A24F050
:1009A80093FF7BA3D3E9002324F0E2FF7AA3D3E9E2
:1009B800002324F02BFE25F09DFAC8F8600040467D
:1009C800FFF70AFFD8F8440024F07EFF74A3D3E9A8
:1009D800002324F0CDFF0746B0680D4624F074FFCD
:1009E80071A3D3E9002324F0C3FF02460B4638461F
:1009F800294624F00BFE25F07DFA0746D8F8480072
:100A0800F76124F061FF66A3D3E9002324F0B0FF67
:100A18000446F0680D4624F057FF63A3D3E900238A
:100A280024F0A6FF02460B462046294624F0EEFD98
:100A380025F060FA8246D8F84C00C6F820A024F0C9
:100A480043FF57A3D3E9002324F092FF04463069FB
:100A58000D4624F039FF54A3D3E9002324F088FF7E
:100A680002460B462046294624F0D0FD25F042FADE
:100A78008346D8F85000C6F824B024F025FF48A3D0
:100A8800D3E9002324F074FF044670690D4624F06E
:100A98001BFF45A3D3E9002324F06AFF02460B4657
:100AA8002046294624F0B2FD25F024FA8446D8F8D9
:100AB8005400C6F828C0CDF804C024F005FF38A3B8
:100AC800D3E9002324F054FF0446B0690D4624F00E
:100AD800FBFE35A3D3E9002324F04AFF02460B4668
:100AE8002046294624F092FD25F004FADDF804801A
:100AF800F06246F267643149B760C6F80CA0C6F8E0
:100B080010B0C6F81480B0610022C6F266640AE02C
:100B1800551BDEF81CA0C069C7F804A006EB8503C6
:100B280041F80C0FDF69531C901C84FB005884FBB0
:100B3800035E4FEAE37AC5170332CAEB6E0CC5EBC6
:100B480068050CEB8C0E05EB850584FB028A4FEAE1
:100B5800E278401BCEEB030CC8EB6A054F600F1D13
:100B6800B3F57A6F06EB8C0E06EB800005EB850576
:100B7800CED1C9F80C304FF48061C4F200010023D3
:100B88000B8203B0BDE8F08F333333333333D33FB5
:100B9800666666666666E63FB81E85EB51B8AE3F88
:100BA8009A9999999999E93F9A9999999999C93FDF
:100BB8000400002000008039107C0020FC7C00200C
:100BC80008050020207C0020032310B4C418C8F2B4
:100BD8000003234001EB8002002BF0EE407A82ED07
:100BE800040A2EDB0322841CC8F200022240002AD9
:100BF80032DB01EB8304D4ED046A91ED120A91ED26
:100C0800117A20EE260A01EB820407EE870AD1ED5D
:100C1800130A94ED041A01EB830300EE810AD1ED67
:100C2800141A93ED002A01EE820AD1ED152A94EDEB
:100C3800003A02EE830A01EB800181ED000A10BC44
:100C48007047013B63F003040322631CC8F20002EF
:100C5800841C2240002ACCDA013A62F00304621CA8
:100C6800C7E700BF0C49032310B40024CB6000EB96
:100C7800830214601461CA68531ECB60002AF6D13F
:100C88004BF6C2014DF20A72C3F6B261C3F62342B3
:100C98000164026610BC70470805002030B4428821
:100CA800C58804888388AD18ADB2B5FBF4F204FB9F
:100CB800125202FB03F341F207219AB2C8F2300143
:100CC800A1FB0231C90A40F6FA7303FB112291B263
:100CD80000EE101ABBEEEA0AF7EE007AC18030EE99
:100CE800670A30BC704700BF10B5D0ED017A2DED12
:100CF800048BF7EE008A38EEE78AD0ED026A90EDB1
:100D0800007A28EE268A07EE878A90ED040AF0EE2C
:100D1800680A30EE080A044690ED039A25F03EFF73
:100D280070EE000A84ED040A30EEE81A84ED008AB9
:100D380021EE090ABDEC048B10BD00BF2DE9F04F70
:100D48004FF480532DED048BC4F2000385B0188A4C
:100D5800C00740F151854FF44061C4F202014BF6DF
:100D6800B4354A69DFF85CA3DFF85CB382F48044E9
:100D7800C2F200054C61EE880AEB860797ED0C7A03
:100D8800DFEDC97A87EE270A4BF62443C2F2000347
:100D98000AEB860641F6F118C0F27658DBED010A37
:100DA800F7EE008A38EEE01A83ED020A11EE100A17
:100DB80024F08AFDB2A3D3E9002324F0D9FDB2A31D
:100DC800D3E9002324F022FC25F094F84BF6A43153
:100DD800054647F69040C2F20000C2F20001C28800
:100DE800CC880AEB82070AEB840393ED0C6AD6EDF4
:100DF8000E6ADFEDAE1A97ED0C5AD7ED135A9FED38
:100E0800AC2AF3EE093AC6EE022A4BF6244247F61C
:100E1800C0414BF6BC30C2F20002C2F20001C2F27D
:100E2800000055604D60456047F6E4474BF6803555
:100E3800C2F20005C2F2000786EEA13A85EE234A07
:100E4800C5EEA14A80ED023A85ED024AC7ED024A95
:100E5800C1ED022AFFF748FF10EE100A24F034FD16
:100E68008BA3D3E9002324F083FD0646DBF80000BA
:100E78000C4624F029FD88A3D3E9002324F078FD4B
:100E88000B4600210246C3F6F071002024F0BCFB9B
:100E980002460B463046214624F06AFD25F02AF822
:100EA8004BF69433C2F20003054682481D60FFF7F3
:100EB8001BFF284610EE107A24F006FD044638463B
:100EC8000D4624F001FD72A3D3E9002324F050FD60
:100ED8000646DBF800000F4624F0F6FC6EA3D3E9C3
:100EE800002324F045FD0B4600210246C3F6F071AD
:100EF800002024F089FB02460B463046394624F090
:100F080037FD0B4602462946204624F07FFB24F095
:100F1800F1FF4BF69432C2F20002044666481460B0
:100F2800FFF7E2FE204610EE106A24F0CDFC0446DE
:100F380030460D4624F0C8FC59A3D3E9002324F019
:100F480017FD0646DBF800000F4624F0BDFC52A34F
:100F5800D3E9002324F00CFD02460B4600200021B3
:100F6800C3F6F07124F050FB02460B463046394672
:100F780024F0FEFC02460B462046294624F046FB98
:100F880024F0B8FF4BF69431C2F2000104464B48F6
:100F98000C60FFF7A9FE204610EE106A24F094FCBE
:100FA800044630460D4624F08FFC3BA3D3E90023CA
:100FB80024F0DEFC0646DBF800000F4624F084FC33
:100FC80035A3D3E9002324F0D3FC0B4600210246C5
:100FD800C3F6F071002024F017FB02460B4630469A
:100FE800394624F0C5FC02460B462046294624F023
:100FF8000DFB24F07FFF4BF69433C2F20003044646
:101008002F481C60FFF770FE9BED008A18EE100A4F
:1010180010EE106A24F058FCCDE90001204624F0B7
:1010280053FC044630460D4624F04EFC1CA3D3E97D
:10103800002324F09DFC18A3D3E9002306460F469D
:10104800DDE9000124F094FC0B4600210246C3F6BA
:10105800F071002024F0D8FA02460B463046394693
:1010680024F086FC02460B462046294624F0CEFA98
:1010780024F040FF40F2085228E000BFAFF30080A0
:10108800FCA9F1D24D62503F2B8716D9CEF7EF3F1E
:10109800333333333333D33F9A9999999999B93F75
:1010A8009A9999999999C93F000048430000484482
:1010B8000000C84324BC0020C07C002080BB002066
:1010C800E47C002004000020107C0020C2F2000212
:1010D80007EE100A518909EE101A0023BBEECA9ACE
:1010E8000022C3F6E073DDE9000127EE099A24F037
:1010F8008DFA064640F20850C2F200000F46D0F8BA
:10110800109019EE100A24F0DFFB88FB09324FEA31
:10111800E97304460D46C3EBE21041F2707141F6E3
:10112800486201FB1093C2F2000202EB83000068E0
:1011380024F0CAFB02460B463046394624F018FC18
:1011480002460B462046294624F060FA24F0D2FED7
:1011580024F0BAFB002304460D460022DDE9000115
:10116800C3F6D07324F052FA09F6B833CDE900017A
:10117800A8FB0312D00941F2707141F6486201FBE5
:101188001033C2F2000202EB8300006824F09CFBDB
:1011980002460B46DDE9000124F0EAFB02460B4655
:1011A8002046294624F032FA24F0A4FE24F08CFBD1
:1011B80009F596530D46A8FB0312044641F27071D7
:1011C800D00941F6486201FB1033C2F2000202EB7B
:1011D8008300006824F078FB02460B463046394607
:1011E80024F0C6FB02460B462046294624F00EFA98
:1011F80024F080FE24F068FB78EEC87A044617EEE7
:10120800900A0D4624F060FB0023C3F6E073002229
:1012180024F0FCF909F5E16CA8FB0C384FEAD81367
:101228000F4641F6486241F2707101FB13C9C2F2E0
:101238000002064602EB8900006824F045FB0246DE
:101248000B463046394624F093FB02460B462046AF
:10125800294624F0DBF924F04DFE24F035FBDCA30D
:10126800D3E9002324F084FB24F044FE064624F04E
:101278002BFBD9A3D3E9002304460D4624F008FE2E
:10128800002800F0C4829FEDCA0A4BF6B437C2F2B8
:101298000007DFEDC88AFE880AEB8603D3ED0C0A47
:1012A80080EEA81A4BF694314BF62442C2F20002A3
:1012B800C2F200014BF6A435C2F200050AEB86061D
:1012C80041F6F118C0F276589BED016AF7EE008AF4
:1012D80078EEC66A82ED021A16EE900A81ED000ACF
:1012E80024F0F2FAA8A3D3E9002324F041FBA8A331
:1012F800D3E9002324F08AF924F0FCFD074647F6D9
:101308009040C2F20000EB88C4880AEB83000AEB25
:101318008401D6ED0E1A9FEDA82A91ED0C5AD1ED55
:10132800135ADFEDA62A90ED0C0AB3EE094A85EEB2
:10133800828A4BF6244447F6C0454BF6BC30C2F2CD
:101348000000C2F20005C2F200046F6067604760E7
:1013580047F6E4414BF68037C2F20001C2F20007BB
:1013680080EE223AC1EE823AC5EE044A85ED023A91
:10137800C0ED023AC7ED024A81ED028AFFF7B4FCDC
:1013880010EE100A24F0A0FA83A3D3E9002324F076
:10139800EFFA0646DBF800000C4624F095FA80A325
:1013A800D3E9002324F0E4FA0B4600210246C3F6F1
:1013B800F071002024F028F90B46024621463046F9
:1013C80024F0D6FA24F096FD4BF69432C2F20002CD
:1013D80005467B485560FFF787FC284610EE107AD3
:1013E80024F072FA044638460D4624F06DFA6AA3D2
:1013F800D3E9002324F0BCFA0646DBF800000F46C8
:1014080024F062FA66A3D3E9002324F0B1FA0B466C
:1014180000210246C3F6F071002024F0F5F80246D8
:101428000B463046394624F0A3FA02460B462046BE
:10143800294624F0EBF824F05DFD4BF69433C2F214
:10144800000304465F485C60FFF74EFC204610EE40
:10145800106A24F039FA044630460D4624F034FA6E
:1014680051A3D3E9002324F083FA0646DBF80000F1
:101478000F4624F029FA4AA3D3E9002324F078FA86
:1014880002460B4600200021C3F6F07124F0BCF898
:1014980002460B463046394624F06AFA02460B46A5
:1014A8002046294624F0B2F824F024FD4BF6943166
:1014B800C2F20001044644484C60FFF715FC204680
:1014C80010EE106A24F000FA044630460D4624F067
:1014D800FBF933A3D3E9002324F04AFA0646DBF8E4
:1014E80000000F4624F0F0F92DA3D3E9002324F0DF
:1014F8003FFA0B4600210246C3F6F071002024F0A3
:1015080083F802460B463046394624F031FA0B463A
:1015180002462946204624F079F824F0EBFC4BF6E5
:101528009432C2F20002044628485460FFF7DCFBFC
:101538009BED008A18EE100A10EE106A24F0C4F928
:10154800CDE90001204624F0BFF9044630460D4697
:1015580024F0BAF914A3D3E9002324F009FA10A35C
:10156800D3E9002306460F46DDE9000124F000FA1E
:101578000B4600210246C3F6F071002024F044F81F
:1015880002460B4630462BE0FCA9F1D24D62503F93
:101598002B8716D9CEF7EF3F333333333333D33F6B
:1015A8009A9999999999B93F9A9999999999C93F05
:1015B800DAFF7F3F00004843000048440000C8436A
:1015C80024BC0020C07C002080BB0020E47C0020DC
:1015D800333333333333E33F7AA52C431CEBF83FE3
:1015E800394624F0C5F902460B462046294624F020
:1015F8000DF824F07FFC40F20853C2F2000309EE14
:10160800100A598907EE101A0023BBEECA7A002285
:10161800C3F6E073DDE9000129EE079A23F0F6FF2F
:10162800064640F20850C2F200000F46D0F810906B
:1016380019EE100A24F048F988FB09324FEAE973D9
:1016480004460D46C3EBE21041F2707141F6486260
:1016580001FB1093C2F2000202EB8300006824F041
:1016680033F902460B463046394624F081F90246E2
:101678000B462046294623F0C9FF24F03BFC24F002
:1016880023F9002304460D460022DDE90001C3F6D4
:10169800D07323F0BBFF09F6B833CDE90001A8FBEE
:1016A8000312D00941F2707141F6486201FB103310
:1016B800C2F2000202EB8300006824F005F902463A
:1016C8000B46DDE9000124F053F902460B4620469B
:1016D800294623F09BFF24F00DFC24F0F5F809F5CA
:1016E80096530D46A8FB0312044641F27071D009C7
:1016F80041F6486201FB1033C2F2000202EB83009C
:10170800006824F0E1F802460B463046394624F0DA
:101718002FF902460B462046294623F077FF24F08E
:10172800E9FB24F0D1F878EEC87A044617EE900A5F
:101738000D4624F0C9F80023C3F6E073002223F015
:1017480065FF09F5E16CA8FB0C384FEAD8130F4682
:1017580041F6486241F2707101FB13C9C2F20002FE
:10176800064602EB8900006824F0AEF802460B46F4
:101778003046394624F0FCF802460B4620462946F6
:1017880023F044FF24F0B6FB24F09EF829A3D3E904
:10179800002324F0EDF824F0ADFB064624F094F87D
:1017A80026A3D3E9002304460D4624F071FB002844
:1017B8004CD1204629461CA3D3E9002324F04AFB38
:1017C800002800F02C879FED1A0A41E09FED1D0AC2
:1017D80040F6FD7041F64861C2F2000140F208523D
:1017E80001EB8909C2F2000208F1010386ED030A40
:1017F80089ED000AF88013614FF48050C4F20000AC
:101808000021018205B0BDEC048BBDE8F08F2046B5
:10181800294605A3D3E9002324F01CFB002800F087
:1018280004879FED030A30E57AA52C431CEBF8BF2B
:10183800DAFF7FBF333333333333E33F7AA52C43A7
:101848001CEBF83FDAFF7F3F000048431FED030A17
:101858004BF6B437C2F200071FED051AFE880AEBF3
:101868008603D3ED0C0A80EE816A4BF694314BF671
:101878002442C2F20002C2F200014BF6A435C2F2C1
:1018880000050AEB860641F6F118C0F27658DBED42
:10189800016AF7EE008A78EEE61A82ED026A11EE26
:1018A800900A81ED010A24F00FF8D7A3D3E90023A9
:1018B80024F05EF8D6A3D3E9002323F0A7FE24F092
:1018C80019FB074647F69040C2F20000EB88C4882F
:1018D8000AEB83000AEB840196ED0E2ADFEDC42A99
:1018E80091ED0C5AD1ED135A9FEDC23A90ED0C0AC6
:1018F800F3EE094A85EE248A4BF6244447F6C045A0
:101908004BF6BC30C2F20000C2F20005C2F200047D
:101918006F606760476047F6E4414BF68037C2F274
:101928000001C2F20007C0EE033A82EE224A85EEB9
:10193800A27AC5ED023A80ED024A81ED027A87ED7E
:10194800028AFFF7D1F910EE100A23F0BDFFA2A317
:10195800D3E9002324F00CF80646DBF800000C4617
:1019680023F0B2FF9EA3D3E9002324F001F80B462D
:1019780000210246C3F6F071002023F045FE0B4615
:1019880002462146304623F0F3FF24F0B3FA4BF623
:101998009432C2F20002054697489560FFF7A4F911
:1019A800284610EE107A23F08FFF044638460D467D
:1019B80023F08AFF88A3D3E9002323F0D9FF064642
:1019C800DBF800000F4623F07FFF85A3D3E900234F
:1019D80023F0CEFF0B4600210246C3F6F07100202B
:1019E80023F012FE02460B463046394623F0C0FF6C
:1019F80002460B462046294623F008FE24F07AFAD0
:101A08004BF69433C2F2000304467C489C60FFF70F
:101A18006BF9204610EE106A23F056FF0446304654
:101A28000D4623F051FF70A3D3E9002323F0A0FF54
:101A38000646DBF800000F4623F046FF68A3D3E90B
:101A4800002323F095FF02460B4600200021C3F631
:101A5800F07123F0D9FD02460B463046394623F093
:101A680087FF02460B462046294623F0CFFD24F087
:101A780041FA4BF69431C2F20001044660488C608A
:101A8800FFF732F9204610EE106A23F01DFF0446D6
:101A980030460D4623F018FF51A3D3E9002323F065
:101AA80067FF0646DBF800000F4623F00DFF4CA346
:101AB800D3E9002323F05CFF0B4600210246C3F65E
:101AC800F071002023F0A0FD02460B46304639464F
:101AD80023F04EFF0B4602462946204623F096FD8A
:101AE80024F008FA4BF69432C2F200020446454844
:101AF8009460FFF7F9F89BED008A18EE100A10EED3
:101B0800106A23F0E1FECDE90001204623F0DCFE57
:101B1800044630460D4623F0D7FE33A3D3E900230D
:101B280023F026FF2EA3D3E9002306460F46DDE95E
:101B3800000123F01DFF0B4600210246C3F6F07199
:101B4800002023F061FD02460B463046394623F05B
:101B58000FFF02460B462046294623F057FD24F086
:101B6800C9F940F20853C2F2000307EE900A5989F6
:101B780009EE101A0023BBEECA9A0022C3F6E073DE
:101B8800DDE9000127EE899A23F040FD064640F280
:101B98000850C2F200000F46D0F8109019EE100A53
:101BA80023F092FE88FB09324FEAE97304460D469A
:101BB800C3EBE21041F2707141F6486201FB1093E9
:101BC800C2F2000202EB8300006823F07DFE0246A9
:101BD8000B46304639461FE0333333333333D33F74
:101BE8009A9999999999B93F9A9999999999C93FBF
:101BF800000048440000C84324BC0020C07C0020EA
:101C080080BB0020E47C0020FCA9F1D24D62503F4B
:101C18002B8716D9CEF7EF3F23F0AAFE02460B46D4
:101C28002046294623F0F2FC24F064F923F04CFE08
:101C3800002304460D460022DDE90001C3F6D073F7
:101C480023F0E4FC09F6B833CDE90001A8FB031240
:101C5800D00941F2707141F6486201FB1033C2F2BB
:101C6800000202EB8300006823F02EFE02460B46BA
:101C7800DDE9000123F07CFE02460B46204629469A
:101C880023F0C4FC24F036F923F01EFE09F5965320
:101C98000D46A8FB0312044641F27071D00941F6C3
:101CA800486201FB1033C2F2000202EB83000068B5
:101CB80023F00AFE02460B463046394623F058FE0A
:101CC80002460B462046294623F0A0FC24F012F9D0
:101CD80023F0FAFD78EEC80A044610EE900A0D4685
:101CE80023F0F2FD0023C3F6E073002223F08EFCFC
:101CF80009F5E16CA8FB0C384FEAD8130F4641F6FA
:101D0800486241F2707101FB13C9C2F20002064633
:101D180002EB8900006823F0D7FD02460B463046E7
:101D2800394623F025FE02460B462046294623F075
:101D38006DFC24F0DFF823F0C7FD10A3D3E90023DE
:101D480023F016FE24F0D6F8064623F0BDFD0DA3B9
:101D5800D3E9002304460D4624F09AF8F0B920464A
:101D680029460AA3D3E9002324F074F8002800F0D8
:101D780050849FED010A13E0DAFF7FBF333333331A
:101D88003333E33F7AA52C431CEBF83F7AA52C4369
:101D98001CEBF8BFDAFF7F3F000048431FED030A42
:101DA8004BF6B437C2F200071FED056AFE880AEB4E
:101DB800860393ED0C1AC1EE066A4BF694314BF686
:101DC8002442C2F20002C2F200014BF6A435C2F26C
:101DD800000541F6F118C0F2765841F27079DBED52
:101DE800011AF7EE008A38EEE12AC2ED026A12EE15
:101DF800100A81ED020A23F067FDD9A3D3E9002375
:101E080023F0B6FDD8A3D3E9002323F0FFFB24F089
:101E180071F8074647F69040C2F20000EB88C48884
:101E28000AEB83000AEB84010AEB860ADAED0E2A34
:101E38009FEDC53A91ED0C5AD1ED135ADFEDC33A37
:101E480090ED0C0AB3EE097A85EE078A4BF6244624
:101E580047F6C0444BF6BC30C2F20000C2F20004A0
:101E6800C2F2000667607760476047F6E4434BF6C6
:101E78008037C2F20003C2F2000780EE234AC2EEA6
:101E8800834AC5EE837A84ED024AC0ED024AC3ED67
:101E9800027A87ED028AFEF727FF10EE100A23F078
:101EA80013FDA3A3D3E9002323F062FD0646DBF864
:101EB80000000C4623F008FD9FA3D3E9002323F07C
:101EC80057FD0B4600210246C3F6F071002023F0AF
:101ED8009BFB02460B463046214623F049FD24F081
:101EE80009F84BF69431C2F2000105469848CD60D6
:101EF800FEF7FAFE284610EE107A23F0E5FC0446B9
:101F080038460D4623F0E0FC89A3D3E9002323F0EB
:101F18002FFD0646DBF800000F4623F0D5FC86A30C
:101F2800D3E9002323F024FD0B4600210246C3F623
:101F3800F071002023F068FB02460B463046394614
:101F480023F016FD0B4602462946204623F05EFB89
:101F580023F0D0FF4BF69432C2F2000204467D48CB
:101F6800D460FEF7C1FE204610EE106A23F0ACFCE8
:101F7800044630460D4623F0A7FC71A3D3E900239D
:101F880023F0F6FC0646DBF800000F4623F09CFC25
:101F980069A3D3E9002323F0EBFC02460B4600209B
:101FA8000021C3F6F07123F02FFB02460B463046A2
:101FB800394623F0DDFC02460B462046294623F02D
:101FC80025FB23F097FF4BF69433C2F20003044637
:101FD8006148DC60FEF788FE204610EE106A23F0A8
:101FE80073FC044630460D4623F06EFC52A3D3E939
:101FF800002323F0BDFC0646DBF800000F4623F063
:1020080063FC4DA3D3E9002323F0B2FC0B46002167
:102018000246C3F6F071002023F0F6FA02460B469A
:102028003046394623F0A4FC02460B462046294692
:1020380023F0ECFA23F05EFF4BF69431C2F2000174
:1020480004464648CC60FEF74FFE9BED008A18EE2A
:10205800100A10EE106A23F037FCCDE90001204683
:1020680023F032FC044630460D4623F02DFC34A301
:10207800D3E9002323F07CFC2FA3D3E900230646F1
:102088000F46DDE9000123F073FC0B4600210246F0
:10209800C3F6F071002023F0B7FA02460B4630462B
:1020A800394623F065FC02460B462046294623F0B4
:1020B800ADFA23F01FFF40F20852C2F2000200EE10
:1020C800900A538909EE103A0023BBEECA9A0022FF
:1020D800C3F6E073DDE9000120EE899A23F096FA51
:1020E800064640F20850C2F200000F46D0F810A091
:1020F80019EE100A23F0E8FB4FEAEA720D4688FB56
:102108000A31C2EBE11341F648610446C2F200010C
:1021180009FB13A001EB8002106823F0D5FB0246EF
:102128000B463046394623F023FC21E0AFF300800C
:10213800333333333333D33F9A9999999999B93FC4
:102148009A9999999999C93F000048440000C84351
:1021580024BC0020C07C002080BB0020E47C002040
:10216800FCA9F1D24D62503F2B8716D9CEF7EF3F2D
:1021780002460B462046294623F048FA23F0BAFEC9
:1021880023F0A2FB0023CDE902010022C3F6D0739D
:10219800DDE9000123F03AFA0AF6B8330D460446A1
:1021A800A8FB0310C10941F6486209FB1133C2F2CA
:1021B800000202EB8300006823F086FB02460B4610
:1021C8002046294623F0D4FB02460B46DDE90201EE
:1021D80023F01CFA23F08EFE23F076FB0AF59653C3
:1021E8000D46A8FB0312D109044609FB113041F63C
:1021F8004863C2F2000303EB8002106823F064FB1B
:1022080002460B463046394623F0B2FB02460B46DF
:102218002046294623F0FAF923F06CFE23F054FBFC
:1022280038EEC81A044611EE100A0D4623F04CFB8E
:102238000023C3F6E073002223F0E8F90AF5E16C05
:10224800A8FB0C3806460F4641F648604FEAD811FD
:1022580009FB11C9C2F2000000EB890ADAF8000094
:1022680023F032FB02460B463046394623F080FB0A
:1022780002460B462046294623F0C8F923F03AFEC9
:1022880023F022FBDEA3D3E9002323F071FB23F024
:1022980031FE064623F018FBCFA3D3E900230446FA
:1022A8000D4623F0F5FD60B920462946CCA3D3E9B5
:1022B800002323F0CFFD002800F0A6819FEDCA0A75
:1022C80001E09FEDCA0ACA4ECA484BF6943132461D
:1022D8000423C2F2000181ED030A0AF063FA9BEDC0
:1022E800028A18EE100A23F0EFFAB9A3D3E9002303
:1022F80023F08CF940F20853C2F2000341F6F112C0
:10230800D3F81080C0F2765282FB08378B464FEA2A
:10231800E871C1EBE71C824641F27074306804FB37
:102328001C8923F0D1FA52465B4623F021FB07466D
:102338004BF69430C2F20000F7EE008A90ED006A86
:1023480038EEC88A0D4668EE066A16EE900A23F043
:10235800BBFA02460B463846294623F057F923F0C4
:10236800C9FD02EE100AF5EE001A22EE219A19EEC6
:10237800100A23F0A9FA98A3D3E9002304460F46CC
:1023880023F086FD68B92046394695A3D3E9002392
:1023980023F060FD002800F008819FED930A0022D9
:1023A80003E09FED920A40F6FD72934F70683A8001
:1023B80086ED000A23F088FA52465B4623F0D8FAE5
:1023C8000D464BF69431C2F2000191ED010A68EE18
:1023D800003A044613EE900A23F076FA02460B46BA
:1023E8002046294623F012F923F084FD04EE900AD2
:1023F800B5EE004A64EE848A18EE900A23F064FA77
:1024080075A3D3E9002304460D4623F041FD68B9BE
:102418002046294672A3D3E9002323F01BFD002898
:1024280000F0B1809FED700A002303E09FED6F0A72
:1024380040F6FD7386ED010A7B80B06823F044FA0C
:102448005B46524623F094FA4BF69432C2F20002ED
:10245800D2ED026A68EE261A044611EE900A0D467D
:1024680023F032FA02460B462046294623F0CEF8DE
:1024780023F040FD02EE900AB5EE002A62EE828A51
:1024880018EE900A23F020FA53A3D3E90023044658
:102498000D4623F0FDFC60B92046294650A3D3E938
:1024A800002323F0D7FC00285BD09FED4F0A0023C0
:1024B80003E09FED4E0A40F6FD7386ED020ABB80ED
:1024C800F06823F001FA52465B4623F051FA0446BD
:1024D8004BF69430C2F2000090ED030A28EE008A11
:1024E8000D4618EE100A23F0EFF902460B46204677
:1024F800294623F08BF823F0FDFC07EE100AF5EED1
:10250800004A27EE248A18EE100A23F0DDF932A3D8
:10251800D3E9002304460D4623F0BAFC00287FF4D3
:1025280055A9204629462EA3D3E9002323F092FC7F
:1025380020B19FED2D0A0020FFF74CB9B0EE480AF4
:1025480024F042FAF7EE000A30EE201ADFED2B7A7B
:1025580021EE276AFCEEC66A16EE902A90B2FFF7C3
:1025680039B9B0EE680A24F02FFAB7EE003A30EE27
:10257800035ADFED225A65EE253ABCEEE34A14EE23
:10258800101A8BB299E7B0EE680A24F01DFAB7EE7C
:10259800007A70EE070ADFED197A20EEA71ABCEE72
:1025A800C16A16EE100A83B244E7B0EE490A24F075
:1025B8000BFA9FED123A70EE282A22EE835AFCEEAF
:1025C800C55A15EE903A9AB2EFE600BFAFF3008015
:1025D800666666666666E63F7AA52C431CEBF83F9E
:1025E8007AA52C431CEBF8BFDAFF7FBFDAFF7F3FE9
:1025F800987C0020847C002038BC002000E0FF4448
:10260800333333333333E33F00EE106A24F0DCF91D
:1026180059E600EE106A24F0D7F9FFF7C1BB00EEC7
:10262800106A24F0D1F9FFF713B900EE106A24F00C
:10263800CBF9FEF72ABE00BF4FF46D43CEF200037C
:1026480082B0D3F8882042F47000C3F88800BFF342
:102658004F8FBFF36F8F4FF46053C4F20203002211
:10266800196841F0010018609A60186843F2100177
:1026780020F0847020F48030C2F200411860596064
:10268800196821F480201860DA60009201921A68B3
:1026980042F480311960184603E00099B1F5A06F43
:1026A80009D0036803F40032019200994B1C00938F
:1026B800019A002AF1D04FF46050C4F20200036876
:1026C80013F400320DD001210191019801280CD09A
:1026D8004FF46D43CEF200034FF00061996002B0F1
:1026E8007047019201980128F2D14FF46053C4F267
:1026F80002034FF4E042196CC4F2000241F080502A
:102708001864116841F4804010609A689A6099686A
:1027180041F400409860996847F6085241F4A05087
:10272800C0F6400298605A60196841F080721A60D9
:10273800184601684FF460538A01C4F20203F8D5C1
:102748004FF47052C4F2020240F2056010609968BA
:1027580021F003029A60986840F0020199609A6833
:1027680002F00C000828FAD1B2E700BF4FF460531A
:10277800C4F202039A6802F00C00042812D0082858
:1027880015D04FF41051C0F2F4014FF46050C4F268
:102798000200184B8268C2F303101A5C21FA02F196
:1027A8001961704747F64001C0F27D11EDE758689E
:1027B8005A6810F4800F586802F03F0114BF47F6BA
:1027C80040034FF41053C0F388124FF4605014BF05
:1027D800C0F27D13C0F2F403C4F20200B3FBF1F3BC
:1027E80003FB02F14268C2F30143581C4200B1FBEB
:1027F800F2F1CAE7800000204FF46053C4F20203EC
:102808000022196841F0010018609A60186843F2C4
:10281800100120F0847020F48030C2F2004118606A
:102828005960196821F480201860DA60704700BF89
:1028380043F60203C4F2020300221A7018707047AC
:1028480082B04FF4605200230193C4F20202106870
:1028580083030CD5019A511C0191019B4FF46053DD
:10286800C4F202031868C0F3404002B070470199EF
:102878004B1C01930198B0F5A06FE8D1EEE700BFBB
:102888004FF46053C4F202031A6822F0F80141EAD7
:10289800C0001860704700BF0023C4F247231860C7
:1028A800704700BF43F67003C4F2020300220128F8
:1028B8001A701A7004D0042801D1052018707047C6
:1028C800187070474FF46863C4F247231860704764
:1028D80030B40143029D41EA82125B084FF4605410
:1028E80042EA0565591EC4F2020445EA01406060E7
:1028F80030BC70476023C4F247231860704700BF9C
:102908004FF460538001C4F2020340EA0171C3F836
:10291800841070476823C4F247231860704700BFCB
:102928004C23C4F247231860704700BF4FF460532C
:10293800C4F202039A6822F0EC62104301439960E2
:10294800704700BF4FF46053C4F202039A6822F044
:102958007842104301439960704700BF4FF46053B9
:10296800C4F202039A6822F0030108439860704792
:102978004FF46053C4F20203986800F00C007047EB
:102988004FF46053C4F202039A6822F0F00108433E
:10299800986070474FF46053C4F202039A6822F4B7
:1029A800E0510843986070474FF46053C4F2020343
:1029B8009A6822F4604141EAC0009860704700BFFD
:1029C80010B44FF46053C4F202039A6802F00C0189
:1029D800042922D0082926D04FF41052C0F2F4025C
:1029E80002604FF46053C4F2020321499C68C4F3A7
:1029F80003140C5D22FA04F242609C68C4F382243A
:102A08000C5D22FA04F484609B68C3F34233C95C0A
:102A180022FA01F2C26010BC704747F64002C0F2C9
:102A28007D120260DDE75C68596814F4800F5C6809
:102A380001F03F0214BF47F640034FF41053C4F3AC
:102A480088114FF4605414BFC0F27D13C0F2F40330
:102A5800C4F20204B3FBF2F303FB01F26168C1F3B1
:102A680001435C1C6100B2FBF1F20260B9E700BFF0
:102A78009400002000F44073B3F5407F0CD14FF46C
:102A88006053C4F2020320F070419A6821F4407147
:102A980022F4F812114399604FF46053C4F2020310
:102AA80000051A6F010D11431967704740F63C6322
:102AB800C4F24723186070474FF46463C4F2472395
:102AC800186070474FF4AE73C4F24723186070471C
:102AD8004FF46053C4F202031A6B19B922EA0000DA
:102AE8001863704710431863704700BF4FF4605372
:102AF800C4F202035A6B19B922EA000058637047FE
:102B080010435863704700BF4FF46053C4F2020388
:102B18009A6B19B922EA00009863704710439863CA
:102B2800704700BF4FF46053C4F202031A6C19B91E
:102B380022EA00001864704710431864704700BF09
:102B48004FF46053C4F202035A6C19B922EA000028
:102B58005864704710435864704700BF4FF460537F
:102B6800C4F202031A6919B922EA00001861704711
:102B780010431861704700BF4FF46053C4F202035A
:102B88005A6919B922EA0000586170471043586120
:102B9800704700BF4FF46053C4F202039A6919B931
:102BA80022EA00009861704710439861704700BF9F
:102BB8004FF46053C4F202031A6A19B922EA0000FA
:102BC8001862704710431862704700BF4FF4605393
:102BD800C4F202035A6A19B922EA0000586270471F
:102BE80010435862704700BF4FF46053C4F20203A9
:102BF8001A6D19B922EA0000186570471043186564
:102C0800704700BF4FF46053C4F202035A6D19B9FC
:102C180022EA00005865704710435865704700BFA6
:102C28004FF46053C4F202039A6D19B922EA000006
:102C38009865704710439865704700BF4FF460531C
:102C4800C4F202031A6E19B922EA00001866704726
:102C580010431866704700BF4FF46053C4F2020374
:102C68005A6E19B922EA0000586670471043586630
:102C7800704700BF43F60D03C4F202031A7819B96E
:102C880022EA00001870704710431870704700BFA0
:102C98004309012B0ED04FF46051C4F20201022BFC
:102CA8000CBF096F496F00F01F0021FA00F303F011
:102CB800010070474FF46052C4F202021168F2E753
:102CC8004FF46053C4F202035A6F42F080705867A1
:102CD800704700BF4FF46053C4F20203D96808423A
:102CE8000CBF00200120704743F60E03C4F2020314
:102CF8001870704730B548F6C404C0F6020483B0B3
:102D08000546012154F82000FFF7E2FE04EB4504D4
:102D180040F2A403C2F20003228A53F8250000926D
:102D280001238DF8043000228DF80730694602230C
:102D38008DF806208DF8053022F01AFB03B030BD5F
:102D480048F6C403C0F6020340F2A40203EB4001B4
:102D5800C2F200020B8A52F820000383704700BFBA
:102D680048F6C403C0F6020340F2A40203EB400194
:102D7800C2F200020B8A52F820004383704700BF5A
:102D880040F2A403C2F2000348F6C402C0F60202ED
:102D980053F8203002EB40005969028A4A405A61D0
:102DA800704700BF30B50446012087B00D46014684
:102DB800FFF78EFE01214FF48040FFF7C1FE18484F
:102DC80006A900EB84030122002441F8102D18699C
:102DD8008DF80C408DF80F4022F0CAFA012D01D071
:102DE80007B030BD2046214622F08AFB04A80821FE
:102DF80004958DF814408DF815108DF8165022F0B2
:102E0800B1F90F23062201A88DF804208DF80530AA
:102E18008DF806308DF8075022F02EF9E0E700BF54
:102E2800A400002008B540F2A403C2F2000303EB9B
:102E380080000121006922F013FB08BD08B50121BB
:102E48004FF48070FFF7C2FE4FF480700021BDE898
:102E58000840FFF7BBBE00BFF0B444680B680A79AE
:102E680024F0407525F4807646EA030747EA0224F1
:102E78004460CD680C6987688A684E794FF2FD73A3
:102E88002C43CCF2FF0322433B40134343EA460260
:102E98008260097DC26A4B1E22F47001DAB241EAEF
:102EA8000253C362F0BC7047002301210360037121
:102EB80043718360C36003610175704770B44FF458
:102EC8000C5290E84200C4F2010285685468C06858
:102ED80043F2E0033143CFF6FC7329432340014317
:102EE80041EA0300506070BC704700BF00230360D4
:102EF80043608360C3607047836819B923F0010198
:102F08008160704743F0010282607047436823F490
:102F1800400222F4007319434160704741628262A3
:102F2800704700BF436823F01F0211434160704798
:102F38004FF40C53C4F201035A6818B922F4000084
:102F48005860704742F40001596070474FF40C53C1
:102F5800C4F201035A6818B922F480005860704717
:102F680042F4800159607047092970B420D901EBF7
:102F780041041E3CC668072505FA04F526EA05053E
:102F880003FA04F345EA0304062AC4601FD90C2A8D
:102F980002EB820229D9C46A413A1F2303FA02F3D9
:102FA80024EA030301FA02F11943C16270BC7047B5
:102FB80001EB41040669072505FA04F526EA05052B
:102FC80003FA04F345EA0304062A0461DFD8531E12
:102FD80003EB8302446B1F2303FA02F324EA03037F
:102FE80001FA02F119434163E0E7233A046B1F2316
:102FF80003FA02F324EA030301FA02F143EA0102A5
:103008000263D3E7836843F080418160704700BF63
:103018008068C0F380507047836819B923F48061D1
:103028008160704743F4806282607047836819B991
:1030380023F002018160704743F00202826070470A
:103048004368013923F4604242EA413141607047E4
:10305800436819B923F400614160704743F4006282
:1030680042607047C06C80B2704700BF42F20833BC
:10307800C4F2010318687047836819B923F4807192
:103088008160704743F4807282607047836819B921
:1030980023F400718160704743F4007282607047C6
:1030A8004FF40C53C4F201035A6818B922F40050C3
:1030B8005860704742F4005159607047092970B44C
:1030C8001FD801EB41040669072505FA04F526EA2D
:1030D800050503FA04F345EA03040461846BC4F3A9
:1030E8000153D21A931CDAB202EB82031F2202FAAE
:1030F80003F224EA020401FA03F12143816370BC5C
:10310800704701EB41041E3CC668072505FA04F523
:1031180026EA050503FA04F345EA0304C460DDE77B
:10312800836B013923F4401242EA015181637047ED
:1031380082B0002301930190019809180191019B25
:103148001A6002B0704700BF836823F470221143ED
:1031580081607047836823F440121143816070478F
:10316800836843F480018160704700BF8068C0F3C2
:1031780080507047436819B923F4806141607047F3
:1031880043F4806242607047436819B923F4805160
:103198004160704743F480524260704782B0002318
:1031A800019301900198283041180191019A136800
:1031B80098B202B0704700BF0123C9B203FA01F107
:1031C80043681AB923EA0102426070471943416013
:1031D800704700BF036819420CBF002001207047E8
:1031E800C9430160704700BF4368006810EA1120B6
:1031F80007D00122C9B202FA01F018420CBF002020
:10320800012070476FEA11210160704708B501215C
:103218004FF00050FFF7CCFC4FF000500021BDE804
:103228000840FFF7C5BC00BF70B491E860004FF4D8
:10323800E8438C68CA68C4F2000346EA05010C43F7
:103248001E6840F6FE7505FA00F5224326EA0505D4
:1032580002FA00F045EA0001196070BC704700BF2F
:103268000023036043608360C36070474FF4E84302
:10327800C4F200031A6831B9012101FA00F022EA08
:1032880000021A607047012101FA00F0104318602B
:10329800704700BF4FF4E843C4F2000300095A68BE
:1032A80031B9012101FA00F022EA00025A607047A0
:1032B800012101FA00F01043586070474FF4E843C9
:1032C800C4F200035A6818B922F003005860704726
:1032D80042F00301596070474FF4E843C4F2000319
:1032E80001FA00F122B91A6822EA0101196070474F
:1032F800186801431960704782B04FF4E843C4F27C
:103308000003002201920193019B083318180190D1
:10331800019A116002B0704782B04FF4E843C4F2DA
:103328000003002201920193019B143318180190A5
:10333800019A116002B0704747F220430828C4F28E
:1033480000030CBF42EA012142EA0141C150704723
:1033580082B04FF4E8430022C4F2000301920193C3
:1033680001992C3101EB90000190019B1A6890B2F1
:1033780002B070474FF4E843C4F200031A6839B941
:103388004FF4805101FA00F022EA00021A607047F7
:103398004FF4805101FA00F010431860704700BFE5
:1033A8004FF4E843C4F2000301FA00F122B91A68A5
:1033B80022EA0101196070471868014319607047D3
:1033C8004FF4E843C4F2000301FA00F1586B0142DC
:1033D8000CBF0020012070474FF4E843C4F20003FB
:1033E80001FA00F1596370474FF4E843C4F200034F
:1033F80001FA00F11A68586B084003D011420CBF5B
:1034080000200120704700BF4FF4E843C4F20003D6
:1034180001FA00F159637047016846F2100200236F
:1034280021F00101C4F2020201600360436083607D
:10343800C360036121239042436165D046F22802AC
:10344800C4F20202904266D046F24001C4F2020180
:10345800884268D046F25803C4F2020398426AD000
:1034680046F27002C4F2020290426CD046F2880121
:10347800C4F2020188426FD046F2A003C4F20203EC
:10348800984238D046F2B802C4F20202904275D08F
:1034980046F21041C4F20201884277D046F228432E
:1034A800C4F20203984278D046F24042C4F20202C3
:1034B80090427AD046F25841C4F2020188427CD048
:1034C80046F27043C4F2020398427ED046F2884224
:1034D800C4F20202904200F0818046F2A041C4F298
:1034E8000201884200F0848046F2B843C4F2020325
:1034F80098423BD070474FF4C041C4F20201002308
:10350800C2F23D03CB6070474FF4C041C4F20201E0
:103518003D238B6070474FF4C040C4F202004FF463
:103528007462826070474FF4C041C4F202014FF4E4
:1035380074138B6070474FF4C040C4F202004FF020
:103548007462826070474FF4C041C4F202013D23A7
:10355800C2F20003CB6070474FF4C040C4F20200CF
:103568004FF47462C2F20002C26070474FF4C84060
:10357800C4F202004FF03D52C260BBE74FF4C040B6
:10358800C4F202004FF03D52C26070474FF4C84188
:10359800C4F202013D238B6070474FF4C840C4F267
:1035A80002004FF47462826070474FF4C841C4F25D
:1035B80002014FF474138B6070474FF4C840C4F293
:1035C80002004FF07462826070474FF4C841C4F241
:1035D80002013D23C2F20003CB6070474FF4C8409C
:1035E800C4F202004FF47462C2F20002C260704773
:1035F8004FF4C841C4F202010023C2F23D03CB607C
:10360800704700BF2DE9F001CA680B684F698E69E1
:10361800CD690C6AD0F800C042EA030848EA0707F7
:103628003E434A6A35432C4344EA02038C6A4A6B98
:10363800234348F23F078C6B1343CFF21C07234305
:103648000CEA07071F430760CB6A0A6B44691A43F1
:1036580024F00704224342610B6943604A68826090
:103668008968C160BDE8F001704700BF00230360AE
:1036780043608360C360036143618361C361036224
:1036880043628362C362036343638363704700BF1B
:10369800036819B923F001010160704743F0010282
:1036A80002607047036819B923F40041016070474C
:1036B80043F4004202607047036819B923F02001FF
:1036C8000160704743F02002026070474160704714
:1036D800406880B2704700BF036822B923F4002213
:1036E80002600161704743F4002303600161704781
:1036F800036819B923F480210160704743F48022DC
:10370800026070470AB9C16070470161704700BF25
:103718000068C0F3C0407047006800F001007047BF
:10372800406900F03800704710B44FF4C84246F2C0
:103738000F444FF4C043C4F20202C4F20204C4F2BC
:103748000203A0428CBF104618468A004CBF42684C
:10375800026821F0F02121F0821313420CBF0020EF
:10376800012010BC704700BF10B44FF4C84246F2A5
:103778000F444FF4C043C4F20202C4F20204C4F27C
:103788000203A0428CBF1046184611F0005F21F0DA
:10379800F02121F0821214BFC260826010BC704711
:1037A8000B060CD54369AAB143F080038029436115
:1037B8000FD0026801F01E01114301607047802993
:1037C80007D0002AF5D1036801F01E0123EA01029F
:1037D8000260704723F0800280294261F3D170476C
:1037E80070B44FF4C04246F20F454FF4C84421F07C
:1037F800F023C4F20205C4F20204C4F2020223F068
:10380800C316A84288BF224696B1046804F01E0079
:1038180000EAD12489004CBF5268126823F0821153
:1038280011EA020002D0201C18BF012070BC7047AA
:10383800406900F08004EDE710B44FF4C84246F246
:103848000F444FF4C043C4F20202C4F20204C4F2AB
:103858000203A0428CBF1046184611F0005F21F009
:10386800F02121F0821214BFC260826010BC704740
:10387800F0B4960875D0D0ED007AB0EEE70A81ED85
:10388800000AD0ED010AB0EEE01A81ED011AD0ED80
:10389800021AB0EEE12A81ED022AD0ED032A731E46
:1038A800B0EEE23A1D4603F0010781ED033A01F15B
:1038B800100300F11004002D50D0DFB1D4ED003A10
:1038C800B0EEE34A83ED004AD4ED014AB0EEE45A83
:1038D80083ED015AD4ED025AB0EEE56A83ED026A2F
:1038E800D4ED036AB0EEE67A83ED037A1034103330
:1038F800013D33D0D4ED007AB0EEE70A83ED000A3B
:10390800D4ED010AB0EEE01A83ED011AD4ED021AE3
:10391800B0EEE12A83ED022AD4ED032AB0EEE23AB2
:1039280083ED033AD4ED043AB0EEE34A83ED044A5A
:10393800D4ED054AB0EEE45A83ED055AD4ED065AA3
:10394800B0EEE56A83ED066AD4ED076AB0EEE67A72
:1039580083ED077A20342033023DCBD13601891913
:10396800801912F0030225D0D0ED007A013AB0EEAA
:10397800E70A1346A1EC010A02F00102D3B142B1F1
:103988000430D0ED000A013BB0EEE01AA1EC011AB8
:1039980010D0D0ED011A0A46B0EEE12AA2EC012AB5
:1039A800D0ED022AB0EEE23A81ED013A0830111D5D
:1039B800023BEED1F0BC70475FEA920C2DE9F001B2
:1039C80000F0A280B0F9006043880CF1FF37002EA8
:1039D80001F1080507F0010740F3E0801CB2002C54
:1039E80040F3E380C6EA044645F8086CB0F9046081
:1039F800C488002E00F1080340F3E48024B2002CB0
:103A080040F3DC80C6EA044645F8046CBCF10106C4
:103A180005F1080474D0002F58D0B3F900705D8800
:103A2800002F40F3E2802DB2002D40F3DA80C7EA80
:103A3800054744F8087C9F88DD883FB20833002F8B
:103A480040F3C4802DB2002D40F3C780C7EA054576
:103A580044F8045C0834013E38D151E02DB2002D01
:103A68003FDDC7EA054744F8087CB3F90470DD88F0
:103A78000833002F40F389802DB2002D40F3818058
:103A8800C7EA054744F8047CB3F90070B3F802802C
:103A9800013E002F04F108056FDD0FFA88F4002CB1
:103AA80067DDC7EA044745F8087CB3F90470DC8889
:103AB8000833002F59DD24B2002C16DD013EC7EA79
:103AC800044705F1080445F8047C19D0B3F90070DF
:103AD8005D88002FC2DC2DB27F42002D07F30F074F
:103AE800BFDC6D4205F30F05BBE76442013E04F3FA
:103AF8000F04C7EA044705F1080445F8047CE5D13A
:103B08004FEACC0C6044614412F003022AD030F82A
:103B1800023B1CB2551E002C05F0010549DD013A97
:103B280021F8023B1ED045B130F8023B1CB2002CF4
:103B380010DD013A21F8023B14D030F8023B1CB2E8
:103B4800013A002C25DD21F8023B30F8023B1CB27B
:103B5800002CEEDC6342013A03F30F039BB221F819
:103B6800023BEAD1BDE8F00170477F4207F30F0737
:103B7800A1E7644204F30F0493E77C4204F30F07C0
:103B88008BE76D4205F30F057AE77F4207F30F07CE
:103B980072E7634203F30F04A3B2D4E7744204F359
:103BA8000F061CB2002C3FF71DAF634203F30F044E
:103BB80018E7634203F30F039BB2B0E7644204F3D0
:103BC8000F041FE7764206F30F0617E72DB27F4270
:103BD800002D07F30F073FF739AF6D4205F30F05C7
:103BE80034E76D4205F30F0521E77F4207F30F071E
:103BF80019E700BFF0B4960873D00368741E002B51
:103C080004F0010540F3D1800B604768002F40F3B2
:103C1800D7804F608368002B40F3DD808B60C768D6
:103C2800002F00F1100440F3B980CF60771E01F136
:103C3800100353D09DB12568002D26DD1D606568F1
:103C4800002D2CDD5D60A568002D32DD9D60E568E6
:103C58001034002D38DDDD601033013F3ED025687B
:103C6800002D7BDD1D606568002D72DD5D60A56837
:103C7800002D69DD9D60E5681034002D5FDDDD6095
:103C880025681033013F002DD8DCB5F1004F0CBF7B
:103C98006FF000456D421D606568002DD2DCB5F1FE
:103CA800004F0CBF6FF000456D425D60A568002DA8
:103CB800CCDCB5F1004F0CBF6FF000456D429D6044
:103CC800E5681034002DC6DCB5F1004F0CBF6FF06D
:103CD80000456D42DD601033013FC0D136018019C7
:103CE800891912F0030228D050F8043B541E002B07
:103CF80004F001044BDD013A41F8043B1DD03CB10E
:103D080050F8043B002B0EDD013A41F8043B14D077
:103D180050F8043B002B26DD41F8043B50F8043BE7
:103D2800013A002BF0DCB3F1004F0CBF6FF00043F9
:103D38005B42013A41F8043BEAD1F0BC7047B5F167
:103D4800004F15D06D429AE7B5F1004F1CD06D4277
:103D580090E7B5F1004F14D06D4287E7B5F1004FF9
:103D68000CD06D427EE7B3F1004F04D05B42D3E73D
:103D78006FF0004583E76FF00043CDE76FF0004533
:103D880070E76FF0004571E76FF0004572E7B3F137
:103D9800004F0CBF6FF000435B42ACE7B7F1004F38
:103DA8000CBF6FF000477F423FE7B3F1004F0CBFF5
:103DB8006FF000435B420B604768002F3FF729AF65
:103DC800B7F1004F0CBF6FF000477F424F60836828
:103DD800002B3FF723AFB3F1004F0CBF6FF0004348
:103DE8005B421BE72DE9F0035FEA920900F0BC8013
:103DF80090F900C047788678C57809F1FF380C1D1E
:103E0800031DBCF1000F08F0010840F3F8807FB2F1
:103E1800002F40F3FE803F0676B23F0C002E47EAA3
:103E28000C0C40F3018136046DB206F47F06002DB8
:103E38004CEA060640F304812D06354344F8045C39
:103E48000434B9F1010500F08B80B8F1000F28D0D7
:103E580093F8008093F801C09F78DE784FFA88F8CD
:103E68000433B8F1000F4EDD4FFA8CFCBCF1000FA3
:103E780054DD4FEA0C6C7FB24FEA1C4C002F4CEA21
:103E8800080858DD3F0476B207F47F07002E48EA99
:103E980007075BDD36063E4344F8046C0434013DF5
:103EA8005ED093F9008093F801C09F78DE780433E0
:103EB800B8F1000F40F397804FFA8CFCBCF1000F6B
:103EC80040F38C804FEA0C6C7FB24FEA1C4C002FF9
:103ED8004CEA08087EDD3F0476B207F47F07002E1F
:103EE80048EA070772DD3606374344F8047C93F93D
:103EF800008093F801C09F78DE78013D04340433D4
:103F0800B8F1000FB0DC4FFA8CFCBCF1000FC8F11F
:103F1800000808F307085FFA88F8AADCCCF1000C5F
:103F28007FB20CF3070C4FEA0C6C4FEA1C4C002FC5
:103F38004CEA0808A6DC7F4276B207F307073F047D
:103F480007F47F07002E48EA0707A3DC764206F34A
:103F5800070636063E4344F8046C0434013DA0D1FC
:103F68004FEA89094844494412F003022BD010F85B
:103F7800013BCC438A1815195CB2002C05F00105E9
:103F880063DD01F8013B91421DD045B110F8013BBA
:103F98005CB2002C0FDD01F8013B914213D010F800
:103FA800013B5CB2002C25DD01F8013B10F8013B18
:103FB8005CB2002CEFDC634203F30703DBB201F8C9
:103FC800013B9142EBD1BDE8F0037047764206F31E
:103FD800070688E77F4207F307077CE7CCF1000C68
:103FE8000CF3070C6EE7C8F1000808F307085FFA3E
:103FF80088F861E7634203F30704E3B2D4E77FB2CA
:10400800002FCCF1000C0CF3070C5FFA8CFC3FF787
:1040180002AF7F4276B207F307073F063F0C002E38
:1040280047EA0C0C3FF7FFAE76426DB206F307067F
:10403800360406F47F06002D4CEA06063FF7FCAE70
:104048006D4205F307052D06F7E6634203F3070300
:10405800DBB296E72DE9F0075FEA930A00F0A68045
:1040680090ED007AD1ED007A37EE270A0AF1FF3495
:1040780082ED000AD0ED010A91ED011A70EE811A65
:10408800A146C2ED011A90ED022AD1ED022A32EEC4
:10409800223A04F0010782ED023AD0ED033A91ED9D
:1040A800034A73EE844A02F11004C2ED034A00F198
:1040B800100601F11005B9F1000F72D02FB396ED7B
:1040C800005AD5ED005A35EE256A84ED006AD6ED22
:1040D800016A95ED017A76EE877AC4ED017A96ED5C
:1040E800020AD5ED020A30EE201A84ED021AD6ED46
:1040F800031A95ED032A71EE822A1036C4ED032ABD
:1041080010351034B9F101094BD096ED003AD5EDD0
:10411800003A33EE234A06F1100884ED004AD6ED42
:10412800014A95ED015A74EE855A04F11007C4ED61
:10413800015A96ED026AD5ED026A36EE267A05F145
:10414800100C84ED027A96ED030AD5ED037A70EE31
:10415800270AC4ED030A96ED041AD5ED041A31EEC8
:10416800212A203684ED042A95ED053AD8ED012A56
:1041780072EE833A2034C7ED013AD5ED064A98ED40
:10418800024A34EE245A203587ED025AD8ED035AF4
:104198009CED036A75EE866AB9F10209C7ED036AF8
:1041A800B3D14FEA0A1412190019091913F00303BD
:1041B80030D090ED007A91ED000A5C1E77EE007A1F
:1041C8002346E2EC017A04F001041BB364B1043124
:1041D8000430D0ED000A91ED001A70EE811A013B0F
:1041E8000C46E2EC011A15D090ED012AD1ED012A16
:1041F80032EE223A1446A4EC013AD0ED023A91ED9F
:10420800024A73EE844A0830C2ED014A0831221D81
:10421800023BE9D1BDE8F007704700BF2DE9F00780
:104228005FEA93099846844651D00446084609F146
:10423800FF35134605F0010A54F8086B50F8087B5F
:1042480096FA17F643F8086B54F8046C50F8047C97
:1042580096FA17F643F8046C0834083008338DB31F
:10426800BAF1000F08D054F8086C50F8087C96FA98
:1042780017F643F8086C18E054F8086C50F8087CF6
:1042880096FA17F643F8086C54F8046C50F8047C56
:1042980096FA17F643F8046C013D54F8086B50F889
:1042A800087B96FA17F643F8086B54F8046C50F834
:1042B800047C96FA17F643F8046C0834083008337F
:1042C800013DD9D14FEAC909CC4449444A4418F0C0
:1042D80003052FD0013D05F001043CF9023B31F9FB
:1042E800020B93FA10F322F8023B1DB34CB13CF9D0
:1042F800023B31F9020B93FA10F3013D22F8023B1D
:1043080018D06446084634F9027B30F9026B97FAF4
:1043180016F71346013D23F8027BBCF90260B1F998
:10432800027004F1020C811C96FA17F050809A1C56
:10433800013DE6D1BDE8F007704700BF2DE9F00F59
:104348005FEA930B9A4694467FD00BF1FF3505F050
:10435800010703680A6882FA83F4CCF800404668CB
:104368004B6883FA86F2CCF8042084688E6886FA53
:1043780084F3CCF80830C368CE6800F1100401F16A
:10438800100286FA83F3CCF80C300CF11003002DE0
:1043980056D0C7B12668176887FA86F61E60666821
:1043A800576887FA86F65E60A668976887FA86F681
:1043B8009E60E668D7681034103287FA86F6DE60A9
:1043C8001033013D3CD02668176887FA86F61E60D0
:1043D8006668576887FA86F65E60A668976887FAFF
:1043E80086F69E60E668D76804F1100902F11008A5
:1043F80087FA86F6DE60013D03F11006246912692A
:1044080082FA84F71F61D9F80430D8F8044084FA96
:1044180083F27260D9F80870D8F8083083FA87F404
:10442800B460D9F80C30D8F80C7009F1100408F110
:10443800100287FA83F3013DF36006F11003C2D13D
:104448004FEA0B1B58445944DC441AF003052ED09C
:10445800013D05F0010450F8043B51F8042B82FAA1
:1044680083F34CF8043B15B34CB150F8043B51F8B6
:10447800042B82FA83F3013D4CF8043B17D0044621
:104488000A4654F8047B52F8046B86FA87F76346A9
:10449800013D43F8047B46684F68201D111D87FACB
:1044A80086F2013DCCF8042003F1040CE7D1BDE805
:1044B800F00F70475FEA930CF0B427D00CF1FF358A
:1044C80005F0010704680E6884FA16F414600424E1
:1044D800BDB13FB144684E6884FA16F60824013D20
:1044E80056600ED006590F5986FA17F6165104343D
:1044F800013D06590F5986FA17F616510434013D45
:10450800F0D14FEA8C0C60446144624413F0030319
:1045180029D090F9007091F9005001245E1E9C4248
:104528003D4406EA040605F3070515701BD056B18D
:1045380090F9016091F9015002249C42354405F339
:10454800070555700FD00E570757651CBF1907F39D
:1045580007061655023447574E579C423E4406F309
:1045680007065655EFD1F0BC704700BFF0B4970866
:10457800DFED547A77D0D0ED006A91ED007A46EEFF
:10458800877A90ED010AD1ED010A40EE207A90ED8C
:10459800021AD1ED021A41EE217A7C1E90ED032A0F
:1045A800D1ED032A264604F0010C42EE227A00F1EE
:1045B800100501F11004002E52D0BCF1000F1BD0E1
:1045C80095ED003AD4ED003A43EE237A95ED014A91
:1045D800D4ED014A44EE247A95ED025AD4ED025AFC
:1045E80045EE257A95ED036AD4ED036A103510344B
:1045F800013E46EE267A33D095ED000A94ED007A16
:1046080040EE077AD5ED010A94ED011A40EE817A61
:10461800D5ED021A94ED022A41EE827AD5ED032AED
:1046280094ED033A42EE837AD5ED043A94ED044AC8
:1046380043EE847AD5ED054A94ED055A44EE857A21
:10464800D5ED065A94ED066A45EE867AD5ED076AE9
:1046580094ED070A20352034023E46EE807ACBD10D
:104668003F01C019C91912F0030226D0541ED0ED1B
:10467800000AB1EC017A224640EE877A04F0010480
:10468800DAB14CB1043090ED001AF1EC011A013A9C
:10469800044641EE217A10D00C4690ED012AF4EC44
:1046A800012A42EE227A91ED013AD0ED023A211D1B
:1046B8000830023A43EE837AEED1C3ED007AF0BCBB
:1046C800704700BF000000002DE9F00F86B08C464F
:1046D8000290900801920493039000F0B780039B26
:1046E800029851F8086B50F8082B5C1E04F001057D
:1046F800002705953B46C2FBC6734FF0000A4AEAFD
:1047080007029B4650F8045C51F8046C1746C5FB39
:10471800C6739946D0464AEA070208300831002C89
:1047280048D0059EB6B150F8085C51F8087C9B4605
:10473800C5FBC72B4FF0000A4AEA020650F8043CB2
:1047480051F8042C3546D946C3FBC259D0464AEA2B
:1047580005022AE050F8085C51F8086C9B46C5FB36
:10476800C62B4FF0000A4AEA020750F8045C51F8D9
:10477800046C3A46D946C5FBC6294AEA0205D04622
:10478800013C50F8086B51F8087B2A46CB46C6FB1B
:10479800C72B4AEA020750F8045C51F8046C3A4601
:1047A800D946C5FBC6294AEA020208300831013C4D
:1047B8004B46CFD10398029FC1007D1802958C44C7
:1047C800019D15F003073AD0029C3CF9020B34F91D
:1047D800021B013F07F001061546C1FBC05300222A
:1047E8002A4367B36EB134F9026B3CF9028B154664
:1047F8001946C6FBC8510020013F40EA05020B4696
:104808001DD0A046664638F9029B36F902AB15461C
:104818001946C9FBCA51002040EA0502B4F90290C2
:10482800BCF902A0013F08F1020406F1020C15468A
:10483800C9FBCA51013F40EA05020B46E1D1049881
:10484800C0E9002306B0BDE8F00F7047002200233E
:10485800B6E700BF2DE9F00F98B081469008149292
:1048680013911693159000F0C881139C139ED9F8E4
:10487800007009686368D9F80850A068D9F804205E
:10488800F46887FB01AB82FB032385FB00010394DB
:10489800CDE90C01039D910BD9F80C204FEA9A370A
:1048A80082FB0545CDE9044547EA8B47820B41EA7F
:1048B80083464FEAAB300697DDF854A007909F1364
:1048C800049B0D99980B0AF1FF33DDE906AB42EA28
:1048D80081441AEB0608059A0C934BEB070B8913D6
:1048E80018EB04044BEB010C40EA82409513139932
:1048F8000C9A14EB000A4CEB050B03F0010309F1C9
:10490800100801F1100C002A00F01A81002B55D074
:10491800D8F80060DCF80000D8F80450DCF804404F
:10492800D8F80820D8F80C70DCF80C3086FB0001A9
:10493800CDE90401810B069185FB0445DCF808608C
:10494800CDE90845069D059C82FB0601CDE90A01D3
:1049580045EA8441069187FB0301A3130793CDE938
:104968000001DDE90601089A0A9C099D960BA30B34
:104978000B9A1AEB000A009846EA85464BEB010BA6
:1049880043EA8244AF13810B019B1AEB060A4BEBF7
:10499800070B95131AEB04044BEB050B41EA834014
:1049A8000C9D991314EB000A4BEB010B6B1E08F1DD
:1049B80010080CF1100C0C9300F0C280CDE90067D0
:1049C800CDF85C9056465F46D8F80400DCF8044001
:1049D800D8F80820DCF80810DCF80C3008900A94A5
:1049E800D8F80C500E920F91D8F800200A9911931C
:1049F800DCF80040089BD8F81000109583FB01AB49
:104A080082FB0445CDE90645CDE904AB12900F9A27
:104A18001099DCF810904FEA94300E9C40EA854AD1
:104A2800049D119884FB0223CDE90823AB0B81FB7D
:104A380000450599CDE90A4543EA8140079D009064
:104A4800900B129A16EB0A064FEAA53B47EB0B07A9
:104A580082FB09458B13CDE906450193D8F814204C
:104A6800DCF81450DDF828900B9B099982FB05AB04
:104A7800CDE904ABDDE900AB4FEA993444EA83445D
:104A8800D8F81850069ADCF81830DDF81C9040EA7F
:104A9800814016EB0A0647EB0B074FEA923A3618A5
:104AA80085FB03230B98049DCDE908234FEAA13128
:104AB800D8F81C30DCF81C2047EB01074AEA894A81
:104AC8008113A80B3619059D83FB022347EB0107C9
:104AD8004FEAA93B16EB0A06CDE90A2347EB0B0779
:104AE80040EA8540AA130090DDF820900192DDE9A4
:104AF80000230999DDF828A0DDF82CB04FEA993495
:104B080044EA8145099CB6184FEA9A3047EB0307F7
:104B180040EA8B41A3135A4670190C9C47EB0307D4
:104B28009513461847EB0507A31E08F120080CF15A
:104B3800200C0C937FF448AFDDF85C90B246BB467E
:104B48001599139A0801151881441395149E16F0A7
:104B580003044AD0DDF84CC0D9F800605CF8043B87
:104B680086FB0301820B42EA8142601E89131AEB1D
:104B7800020A4D46064600F001034BEB010BA0B3B9
:104B88007BB155F8040F5CF8042B80FB0201830B02
:104B980043EA814089131AEB000A4BEB010B013EF3
:104BA80023D067466C6857F8042BDCF8043005F10D
:104BB800040984FB0245A00BD9F8041040EA854299
:104BC80081FB0301AD131AEB020A4BEB050B830BB8
:104BD80043EA814089131AEB000A4BEB010B023EB2
:104BE80009F1040507F1040CDBD1DDF85890C9E997
:104BF80000AB18B0BDE8F00F70474FF0000A4FF057
:104C0800000BA3E72DE9F00F82B0019393080093FE
:104C180000F0E48090F9003091F90040DDF800C020
:104C280090F9016091F901500CF1FF379BB2A4B2E1
:104C380007F0010A43EA064644EA05454FF0000832
:104C480026FB058591F9023090F902C090F903809E
:104C580091F903909EB21FFA8CFC041D0B1D4CEABF
:104C6800084C46EA09462CFB0655002F7DD0BAF1C0
:104C7800000F2BD093F900A094F9006094F90190EB
:104C880093F901801FFA8AFCB6B246EA09464CEA53
:104C9800084A26FB0A55A67893F8029094F803C0B0
:104CA80093F803A076B24FFA89F94FFA8CFC1FFAF1
:104CB80089F9B6B24FFA8AFA0434043346EA0C4644
:104CC80049EA0A4A26FB0A55013F4ED094F900608A
:104CD80093F900B094F9019093F901801FFA8BFCC5
:104CE800B6B246EA09464CEA084A26FB0A5594F940
:104CF800028093F9029094F903B093F903A01FFA84
:104D080088F81FFA89F904F1040C1E1D48EA0B4BB8
:104D180049EA0A4A2BFB0A5594F904B093F904406E
:104D28009CF9019096F901801FFA8BF3A4B2013F18
:104D380043EA094344EA084423FB04559CF902A0CA
:104D480096F902809CF903B096F903901FFA8AFA43
:104D58001FFA88F80CF10404331D48EA094C4AEAA2
:104D68000B4626FB0C55013FB0D1009CA300C01890
:104D7800C91812F0030229D000EB020AC4430AEB57
:104D8800040303F0010411F9012B10F9013B23FB83
:104D9800025550451AD03CB110F9013B11F9012BCD
:104DA80023FB0255504511D002460B4612F9014B20
:104DB80013F9016B24FB065590F9014091F9016044
:104DC800501C591C24FB06555045EDD1DDF804C094
:104DD800CCF8005002B0BDE8F00F7047009DC8E75E
:104DE8002DE9F0075FEA930A00F0A68090ED007ABB
:104DF800D1ED007A27EE270A0AF1FF3482ED000A86
:104E0800D0ED010A91ED011A60EE811AA146C2EDBA
:104E1800011A90ED022AD1ED022A22EE223A04F07C
:104E2800010782ED023AD0ED033A91ED034A63EEB1
:104E3800844A02F11004C2ED034A00F1100601F1A0
:104E48001005B9F1000F72D02FB396ED005AD5EDC9
:104E5800005A25EE256A84ED006AD6ED016A95EDC3
:104E6800017A66EE877AC4ED017A96ED020AD5EDED
:104E7800020A20EE201A84ED021AD6ED031A95EDE7
:104E8800032A61EE822A1036C4ED032A1035103445
:104E9800B9F101094BD096ED003AD5ED003A23EE71
:104EA800234A06F1100884ED004AD6ED014A95ED33
:104EB800015A64EE855A04F11007C4ED015A96EDC3
:104EC800026AD5ED026A26EE267A05F1100C84ED09
:104ED800027A96ED030AD5ED037A60EE270AC4ED4F
:104EE800030A96ED041AD5ED041A21EE212A20367C
:104EF80084ED042A95ED053AD8ED012A62EE833A4D
:104F08002034C7ED013AD5ED064A98ED024A24EE61
:104F1800245A203587ED025AD8ED035A9CED036ACE
:104F280065EE866AB9F10209C7ED036AB3D14FEAA3
:104F38000A1412190019091913F0030330D090ED5F
:104F4800007A91ED000A5C1E67EE007A2346E2ECD7
:104F5800017A04F001041BB364B104310430D0EDCC
:104F6800000A91ED001A60EE811A013B0C46E2EC52
:104F7800011A15D090ED012AD1ED012A22EE223A2C
:104F88001446A4EC013AD0ED023A91ED024A63EEE0
:104F9800844A0830C2ED014A0831221D023BE9D19A
:104FA800BDE8F007704700BF2DE9F0035FEA9308FA
:104FB80000F0D28005880C8815FB04F6F71307F378
:104FC8000F05158046884C8816FB04F7FD1305F37A
:104FD8000F06568087888C8817FB04F5EE1306F3B6
:104FE8000F079780B0F806C0CD8808F1FF341CFB86
:104FF80005F627464FEAE63C04F0010900F10806E9
:105008000CF30F0401F10805D48002F10804002F05
:1050180000F09D80B9F1000F34D0B5F800C0B6F8A3
:10502800009019FB0CF94FEAE93C0CF30F09A4F8BE
:105038000090B5F802C0B6F8029019FB0CF94FEAD7
:10504800E93C0CF30F09A4F80290B5F804C0B6F8CF
:10505800049019FB0CF94FEAE93C0CF30F09A4F88A
:105068000490B6F80690B5F806C019FB0CFC4FEA98
:10507800EC3C08360CF30F0C0835A4F806C00834CD
:10508800013F64D0B5F800C0B6F8009019FB0CF9E0
:105098004FEAE93C0CF30F09A4F80090B5F802C0F8
:1050A800B6F8029019FB0CF94FEAE93C0CF30F092A
:1050B800A4F80290B5F804C0B6F8049019FB0CF9EE
:1050C8004FEAE93C0CF30F09A4F80490B5F806C0C0
:1050D800B6F8069019FB0CF94FEAE93C0CF30F09F6
:1050E800A4F80690B5F808C0B6F8089019FB0CF9B2
:1050F8004FEAE93C0CF30F09A4F80890B5F80AC088
:10510800B6F80A9019FB0CF94FEAE93C0CF30F09C1
:10511800A4F80A90B5F80CC0B6F80C9019FB0CF975
:105128004FEAE93C0CF30F09A4F80C90B6F80E907E
:10513800B5F80EC019FB0CFC4FEAEC3C10360CF32A
:105148000F0C1035A4F80EC01034023F9AD14FEA64
:10515800C80840444144424413F003032DD0058855
:105168000E88013B15FB06F41D46E41303F0010607
:1051780004F30F0402231480FDB156B14B88448810
:1051880014FB03F4E4130423013D04F30F045480D7
:1051980013D0CC5AC65A16FB04F6F6139C1C06F319
:1051A8000F06D6520B5B065B16FB03F6F613A31C21
:1051B800023D06F30F061653EBD1BDE8F003704726
:1051C8002DE9F00F82B094469A080093019249D0D5
:1051D800174666460D4604466FF000484FF0000932
:1051E80022682B6882FB0323D20F42EA4302DB17B3
:1051F800B3EBE27F18BF83EA0802326062686B682B
:1052080082FB0323D20F42EA4302DB17B3EBE27FB0
:1052180018BF83EA08027260A268AB6882FB0323A6
:10522800D20F42EA4302DB17B3EBE27F18BF83EAEF
:105238000802B260E268EB6882FB0323D20F42EAFD
:105248004302DB1710341035B3EBE27F18BF83EA53
:105258000802F2601036013FC2D1019A1301C0184A
:10526800C9189C44009F17F003075AD004680D68BA
:1052780084FB0523D60F46EA4302DB1707F1FF3804
:105288000025B3EBE27F6FF0004408F0010803D07B
:105298009A469B4683EA04020426013FCCF8002084
:1052A8003FD0B8F1000F13D082598B5982FB0323EA
:1052B800D20F42EA4302DB17B3EBE27F03D09A46F0
:1052C8009B4683EA04024CF806200436013F28D0A6
:1052D80082598B5982FB03234FEAD278DA1748EABE
:1052E8004303B2EBE37F03D09246934682EA04037A
:1052F8004CF806300436013F82598B5982FB032350
:105308004FEAD278DA1748EA4303B2EBE37F03D0D7
:105318009246934682EA04034CF806300436013F6D
:10532800D6D102B0BDE8F00F704700BF2DE9F00FED
:1053380084B08DE80E009908039142D0141D009A9C
:10534800034693F800A092F800C093F801905778AC
:10535800DD7892F803B093F8028096786DB24FFA30
:105368008BFB4FFA8AFA4FFA8CFC4FFA89F97FB215
:1053780005FB0BF50AFB0CFC09FB07F74FFA88F84D
:1053880076B27F0045F3C715CCF3C71C08FB06F6B9
:1053980076024CEA056507F47F473D4306F47F062D
:1053A800354344F8045C0433043204340139C8D169
:1053B800039D009A0199AB00D418CD18C018009429
:1053C8000195029B13F003052FD0009C90F9002053
:1053D80094F90010019C02FB01F3D91101236A1E04
:1053E800AB42217002EA03021FD062B1009B90F920
:1053F800014093F90120022304FB02F1019CCA1128
:10540800AB42627011D09DE81200C756CE5607FB1A
:1054180006F6F211E2545A1C023387568E5607FBE1
:1054280006F6F611AB42A654EFD104B0BDE8F00F72
:10543800704700BFF0B4960875D0D0ED007AB1EE91
:10544800670A81ED000AD0ED010AB1EE601A81ED1C
:10545800011AD0ED021AB1EE612A81ED022AD0EDCF
:10546800032A731EB1EE623A1D4603F0010781ED6F
:10547800033A01F1100300F11004002D50D0DFB100
:10548800D4ED003AB1EE634A83ED004AD4ED014A07
:10549800B1EE645A83ED015AD4ED025AB1EE656A51
:1054A80083ED026AD4ED036AB1EE667A83ED037A7E
:1054B80010341033013D33D0D4ED007AB1EE670AD1
:1054C80083ED000AD4ED010AB1EE601A83ED011AEA
:1054D800D4ED021AB1EE612A83ED022AD4ED032A33
:1054E800B1EE623A83ED033AD4ED043AB1EE634A81
:1054F80083ED044AD4ED054AB1EE645A83ED055AAA
:10550800D4ED065AB1EE656A83ED066AD4ED076AF2
:10551800B1EE667A83ED077A20342033023DCBD191
:1055280036018919801912F0030225D0D0ED007ACE
:10553800013AB1EE670A1346A1EC010A02F0010232
:10554800D3B142B10430D0ED000A013BB1EE601A8C
:10555800A1EC011A10D0D0ED011A0A46B1EE612A69
:10556800A2EC012AD0ED022AB1EE623A81ED013AAD
:105578000830111D023BEED1F0BC70472DE9F00157
:105588005FEA920800F09280B0F90050B0F902305A
:105598000C466E425F4206F30F0507F30F03C5EA98
:1055A800034644F8086B08F1FF33B0F90460B0F91A
:1055B80006501F4676426D4206F30F0605F30F05A7
:1055C80003F0010CC6EA054500F1080344F8045C41
:1055D8000834002F66D0BCF1000F1FD0B3F900606B
:1055E800B3F9025076426D4206F30F0605F30F0534
:1055F800C6EA054644F8086C9E88DD8836B22DB2A6
:1056080076426D4206F30F0605F30F050833C6EA26
:10561800054544F8045C0834013F43D0B3F9006001
:10562800B3F9025076426D4206F30F0605F30F05F3
:10563800C6EA054644F8086CB3F904C0B3F9065045
:10564800CCF1000C6D420CF30F0C05F30F05CCEAFE
:10565800054544F8045C03F10806B3F908C0B3F93A
:105668000A3025465B42CCF1000403F30F0304F330
:105678000F04C4EA034445F8084BB6F90430B6F9F8
:1056880006C05C42023FCCF1000304F30F0403F3AD
:105698000F0C06F10803C4EA0C4605F1080445F8A6
:1056A800046CBBD14FEAC8084044414412F00302DD
:1056B80028D0013A30F9024B1346644202F0010245
:1056C80004F30F0421F8024BE3B142B130F9022B85
:1056D8005242013B02F30F0221F8022B12D004467A
:1056E8000A4634F9025B6D4205F30F0522F8025BA6
:1056F800B0F90250A01C6C4204F30F044C80911CBA
:10570800023BECD1BDE8F001704700BFF0B4970848
:105718007BD003687E1EB3F1004F06F0010600F04F
:10572800A8805C420C604568B5F1004F0CBF6FF073
:1057380000456D424D608368B3F1004F0CBF6FF0B8
:1057480000435B428B60C568B5F1004F0CBF6FF03A
:1057580000456D42CD607D1E00F1100401F110037B
:1057680050D00EB32668B6F1004F3CD076421E608A
:105778006668B6F1004F0CBF6FF0004676425E6077
:10578800A668B6F1004F0CBF6FF0004676429E60E7
:10579800E6681034B6F1004F0CBF6FF00046764251
:1057A800DE601033013D2DD02668B6F1004F26D0BB
:1057B80076421E606668B6F1004F1DD076425E6084
:1057C800A668B6F1004F14D076429E60E6681034A1
:1057D800B6F1004F0AD07642DE6026681033013DEC
:1057E800B6F1004FC2D16FF00046C0E76FF0004637
:1057F800F2E76FF00046E8E76FF00046DFE76FF08A
:105808000046D6E73F01C019C91912F003032BD08F
:1058180050F8042B5C1EB2F1004F04F001042BD0A9
:105828005242013B41F8042B1ED04CB150F8042BD6
:10583800B2F1004F12D05242013B41F8042B13D071
:1058480050F8042BB2F1004F10D0524241F8042B0B
:1058580050F8042B013BB2F1004FECD16FF000423D
:10586800013B41F8042BEBD1F0BC70476FF00042CC
:10587800ECE76FF0004455E76FF00042D1E700BF56
:105888005FEA920C2DE9F00300F0AA8090F900601D
:1058980090F9015090F9023090F90340764206F3EE
:1058A8000706F6B26D425B4205F3070503F30703EB
:1058B80064422D0604F307041B0446EA046444EA20
:1058C80015450E4603F47F031D430CF1FF3446F8DB
:1058D800045B2546031D04F001040436002D7BD02B
:1058E8005CB393F8009093F801809F78DC784FFAC6
:1058F80089F9C9F100094FFA88F809F307097FB255
:1059080064B25FFA89F97F426442C8F1000807F37C
:10591800070708F307083F044FEA086804F3070479
:1059280049EA046444EA184407F47F073C4346F80C
:10593800044C04330436013D4ED093F9009093F99A
:10594800018093F9027093F90340C9F1000909F342
:1059580007095FFA89F97F426442C8F1000807F332
:10596800070708F307083F044FEA086804F3070429
:1059780049EA046444EA184407F47F073C4346F8BC
:10598800044C93F8049093F9058093F906701C1D54
:105998004FFA89F993F90730C9F1000909F30709A2
:1059A8005FFA89F97F425B42C8F1000807F30707ED
:1059B80008F307083F044FEA086803F3070349EAB6
:1059C800036343EA184307F47F073B4346F8043B65
:1059D800231D0436023DB0D14FEA8C0C604461446B
:1059E80012F003022BD00346851813F9012BC0438C
:1059F80052422818AB4202F3070200F0010001F8F6
:105A0800012B1CD040B113F9010B4242AB4202F307
:105A1800070001F8010B12D018460A4610F9014B8D
:105A2800644204F3070402F8014B93F90140431C54
:105A3800604200F307004870511CAB42ECD1BDE84E
:105A4800F00370475FEA920CF0B47BD0D0ED007A97
:105A580077EE800A0CF1FF33C1ED000A90ED011AD0
:105A680071EE001A1F46C1ED011A90ED022A72EE7E
:105A7800002A03F00105C1ED022A90ED033A73EE06
:105A8800003A01F11003C1ED033A00F11004002FB0
:105A980054D0DDB194ED004A74EE004AC3ED004ADB
:105AA80094ED015A75EE005AC3ED015A94ED026A5D
:105AB80076EE006AC3ED026A94ED037A77EE007A17
:105AC8001034C3ED037A1033013F37D0D4ED000A08
