:020000040800F2
:10000000000002204D07000895070008950700082A
:1000100095070008950700089507000800000000F4
:10002000000000000000000000000000950700082C
:1000300095070008000000009507000895070008D4
:100040009507000895070008950700089507000820
:100050009507000895070008950700089507000810
:100060009507000895070008950700089507000800
:1000700095070008950700089507000895070008F0
:1000800095070008950700089507000895070008E0
:1000900095070008950700089507000895070008D0
:1000A00095070008950700089507000895070008C0
:1000B0004D020008950700089507000895070008FD
:1000C00095070008950700089507000895070008A0
:1000D0009507000895070008950700089507000890
:1000E0009507000895070008950700089507000880
:1000F0009507000895070008950700089507000870
:10010000950700089507000895070008950700085F
:10011000950700089507000895070008950700084F
:10012000950700089507000895070008950700083F
:10013000950700089507000895070008950700082F
:10014000950700089507000895070008950700081F
:10015000950700089507000895070008950700080F
:1001600095070008950700089507000895070008FF
:1001700095070008950700089507000895070008EF
:0801800095070008950700082F
:1001880010B5054C237833B9044B13B10448AFF3C9
:1001980000800123237010BD4C04002000000000E3
:1001A800A007000808B5064B1BB106480649AFF37F
:1001B80000800648036813B1054B03B1984708BD92
:1001C80000000000A0070008500400204804002098
:1001D80000000000154B002B08BF134B9D46A3F5EC
:1001E800803A4FF000018B460F461348134AA2EBA2
:1001F800000200F067F90E4B002B00D098470D4B1A
:10020800002B00D098474FF000004FF00001044643
:100218000D460B4800F004F900F02EF92046294657
:1002280000F05EFA00F002F900000800000000008B
:1002380000000000000000004C04002068040020BA
:10024800550400084FF080431B8ADB0741BF4FF479
:100258004063C4F202035A6982F4005248BF5A61EB
:100268004FF0804300221A82704700BF4FF460535A
:10027800C4F202030022196841F0010119609A6072
:10028800186843F2100120F08470C2F2004120F493
:10029800803018605960196882B021F48021196093
:1002A800DA60009201921A6842F480321A601A46A3
:1002B80003E0009BB3F5A06F09D0136803F4003383
:1002C8000193009B01330093019B002BF1D04FF465
:1002D8006053C4F202031B6813F4003308BF019390
:1002E80001D001230193019B012B08D04FF46D43EA
:1002F800CEF200034FF000629A6002B070474FF4EC
:100308006053C4F202034FF4E042196CC4F20002D5
:1003180041F080511964116841F4804111609A6874
:100328009A609A6842F400429A60996845F20842D5
:1003380041F4A051C0F2407299605A601A6842F0C4
:1003480080721A6019460A684FF460539201C4F229
:100358000203F8D54FF47052C4F2020240F205616C
:1003680011609A6822F003029A609A6842F00202C9
:100378009A609A6802F00C02082AFAD1B6E700BF20
:100388004FF46053C4F202039A6802F00C02042A84
:1003980004BF47F64001C0F27D1106D0082A1CBFF1
:1003A8004FF41051C0F2F4010BD04FF46052C4F274
:1003B8000202154B9268C2F303129A5CD14019618C
:1003C800704758685A6810F4800F586815BF47F688
:1003D80040034FF41053C0F27D13C0F2F40302F04F
:1003E8003F02B3FBF2F14FF46053C4F20203C0F3CF
:1003F80088105B68C3F30143013301FB00F15B0024
:10040800B1FBF3F1D1E700BF04000020CC070008DE
:1004180000000020480400204C040020680400204C
:10042800014600200246034600F096B808B50021B0
:10043800044600F0E9F8044B1868C36B03B1984709
:10044800204600F0B8E900BF9807000838B5084D05
:10045800084C641BA41006D005EB840555F8043D30
:100468009847013CFAD1BDE8384000F09DB900BF7B
:10047800C8070008CC07000870B50E4D0E4E761B55
:10048800B61007D0043D002455F8043F01349847BE
:10049800A642F9D1094D0A4E761B00F07FF9B61035
:1004A80007D0043D002455F8043F01349847A6427C
:1004B800F9D170BDC4070008C4070008C4070008C4
:1004C800C807000810F0030F70B4034642D0002A92
:1004D8003ED0013ACDB203E0541E002A38D022465D
:1004E80003F8015B13F0030F1C46F5D1032A29D941
:1004F800CDB20F2A45EA052545EA054584BF2346BE
:10050800164611D9103E1D605D609D60DD60103398
:100518000F2EF7D8A2F1100323F00F0302F00F02F9
:100528001033032A1C440DD926461346043B032BDB
:1005380046F8045BFAD8131F23F00303043302F0D0
:100548000302E418C9B21AB1013A04F8011BFBD13D
:1005580070BC70470446C9E72DE9F041284C25686E
:10056800D5F8484184B00646002C43D060681F285F
:100578001DDD244810B94FF0FF301FE04FF4C8705C
:10058800039102920193AFF300800399029A019BB1
:1005980004460028EFD0D5F84801002784E88100F8
:1005A800C5F848413846C4F88871C4F88C7146B912
:1005B800831C013044F823106060002004B0BDE8BB
:1005C800F08104EB800801258540022ED4F888C10B
:1005D800C8F8083108BFD4F88C31C8F888204CEA2C
:1005E800050C08BF1D434746C4F888C108BFC4F8B6
:1005F8008C51DDE705F5A674C5F84841B6E700BF9C
:1006080098070008000000002DE9F04F334B83B035
:100618001B68019000930E464FF0010B009BD3F826
:100628004871BFB103F5A4797D686C1E0CD407F13D
:10063800880A1F350AEB85057EB12B68B3420CD0BA
:10064800013C043D631CF7D140F20003C0F20003F3
:10065800002B30D103B0BDE8F08F7968CAEB0502F2
:10066800BA180139A14252F8783C08BF7C6002D020
:10067800002142F8781C002BE2D0D7F88811D7F86F
:1006880004800BFA04F20A420FD0D7F88C110A4200
:100698000DD1019855F8801C98477B684345BDD11A
:1006A800D9F80030BB42CBD0B8E79847F5E755F802
:1006B800800C9847F1E77B685BB93B6853B13846D3
:1006C800C9F80030AFF30080D9F80070002FABD123
:1006D800C0E73B68B9461F46F8E700BF980700081F
:1006E8004FF46053C4F202034FF440611A6B42F0B6
:1006F80008021A63186CC4F202014FF4614240F018
:1007080001001864CEF200024FF080630B6011689C
:100718004FF0804341F08051116000221A85998979
:100728004FF6FF7289B2C0F23F0241F00101998190
:10073800DA621A8892B242F081021A8001229A8201
:10074800FEE700BF002103E00B4B5B584350043128
:100758000A480B4B42189A42F6D30A4A02E0002391
:1007680042F8043B084B9A42F9D3FFF77FFDFFF7A5
:1007780083FEFFF7B5FF7047CC0700080000002094
:10078800480400204C04002068040020FEE7000014
:10079800200000204300000000000000F8B500BF62
:1007A800F8BC08BC9E467047F8B500BFF8BC08BC4A
:0407B8009E467047A2
:0807BC0020FAFF7F010000009C
:0407C400AD0100087B
:0407C800890100089B
:1007CC000000000000000000000000000102030413
:1007DC0006070809007A030A200000200000000028
:1007EC00000000000C03002074030020DC03002038
:1007FC0000000000000000000000000000000000ED
:10080C0000000000000000000000000000000000DC
:10081C00000000009C070008000000000000000021
:10082C0000000000000000000000000000000000BC
:10083C0000000000000000000000000000000000AC
:10084C00000000000000000000000000000000009C
:10085C00000000000000000000000000000000008C
:10086C00000000000000000000000000000000007C
:10087C00000000000000000000000000000000006C
:10088C00000000000000000001000000000000005B
:10089C000E33CDAB34126DE6ECDE05000B00000020
:1008AC00000000000000000000000000000000003C
:1008BC00000000000000000000000000000000002C
:1008CC00000000000000000000000000000000001C
:1008DC00000000000000000000000000000000000C
:040C140000000000DC
:040000050800074D9B
:00000001FF
