:020000040800F2
:10000000000002203D4500088545000885450008A0
:10001000854500088545000885450008000000006A
:1000200000000000000000000000000085450008FE
:10003000854500080000000085450008854500084A
:100040008545000885450008854500088545000868
:100050008545000885450008854500088545000858
:100060008545000885450008854500088545000848
:100070008545000885450008854500088545000838
:100080008545000885450008854500088545000828
:100090008545000885450008854500088545000818
:1000A0008545000885450008854500088545000808
:1000B000AD020008310700086D03000885450008FF
:1000C00085450008854500088545000885450008E8
:1000D00085450008854500088545000885450008D8
:1000E00085450008854500088545000885450008C8
:1000F00085450008854500088545000885450008B8
:1001000085450008854500088545000885450008A7
:100110008545000885450008CD080008854500088C
:100120008545000885450008854500088545000887
:100130008545000885450008854500088545000877
:100140008545000885450008854500088545000867
:100150008545000885450008854500088545000857
:100160008545000885450008854500088545000847
:100170008545000885450008854500088545000837
:080180008545000885450008D3
:1001880010B5054C237833B9044B13B10448AFF3C9
:1001980000800123237010BD7404002000000000BB
:1001A8009C47000808B5064B1BB106480649AFF343
:1001B80000800648036813B1054B03B1984708BD92
:1001C800000000009C47000878040020700400200C
:1001D80000000000154B002B08BF134B9D46A3F5EC
:1001E800803A4FF000018B460F461348134AA2EBA2
:1001F800000202F007FC0E4B002B00D098470D4B75
:10020800002B00D098474FF000004FF00001044643
:100218000D460B4802F0A4FB02F0CEFB204629460F
:1002280004F02CF902F0A2FB000008000000000016
:1002380000000000000000007404002084A80020D2
:10024800952900080000000082B00190019B5A1E09
:100258000192002BFAD102B0704700BF4FF46143FE
:10026800CEF200034FF460521968C4F2020241F062
:1002780080511960116C4FF0804341F00101116405
:10028800FF221A859A8992B242F001029A814FF6AA
:10029800FF72DA621A8892B242F081021A80012251
:1002A8009A8270474FF080431B8ADB0741BF4FF4A7
:1002B8004063C4F202035A6982F4005248BF5A618B
:1002C8004FF0804300221A82704700BF4FF4614309
:1002D800CEF200034FF460521968C4F2020241F0F2
:1002E80000511960116C4FF48063C4F2000341F0AF
:1002F80002011164FF221A859A8992B242F0010222
:100308009A814FF43C52DA621A8892B242F0810222
:100318001A8001229A8270474FF46143CEF200039B
:100328004FF460521968C4F2020241F0804119602A
:10033800116C4FF40063C4F2000341F0040111642E
:1003480000221A859A8992B242F001029A81FF220C
:10035800DA621A8892B242F081021A8001229A82E5
:10036800704700BF4FF40063C4F200031A8A0022EA
:100378001A8270474FF46143CEF200034FF4605283
:10038800C4F202024FF480015960106C4FF480539C
:10039800C4F2000340F0100010640121F022D96279
:1003A8001A859A8992B20A439A811A8892B242F0BF
:1003B80081021A809A8822F070021204120C9A8024
:1003C8009A8892B242F020029A809982704700BFC0
:1003D80038B50120014600F04DFD4AF2AC73C2F277
:1003E80000030020024603243025C4F20200194607
:1003F8001D601C715C719A71DA71BDE8384001F0BA
:100408009DBD00BF38B50420012100F033FD4AF23C
:10041800AC73C2F200034FF40060032400220F25DE
:10042800C4F2020019461D601C715C71DA719A7180
:10043800BDE8384001F082BD10B50820012100F068
:1004480019FD4AF2AC73C2F200034FF470441C6009
:100458004FF44060012400221C71C4F202000324FE
:1004680019465C719A71DA71BDE8104001F066BDF9
:1004780070B501214FF4806000F034FD4AF6700336
:10048800C2F20003002418461C605C609C60DC60BB
:1004980000F0E8FE40F20402C2F2000240F2845387
:1004A800C2F2000312681C604FF40855C4F201053B
:1004B8000126194628461E715E719C601C611A75DA
:1004C800DC6000F09BFE28460C213246234600F0F3
:1004D8001DFF28460B210222234600F017FF28465D
:1004E8000A210322234600F011FF0422234628464E
:1004F800092100F00BFF2846314600F093FF2846FB
:10050800314600F085FF28463146BDE8704000F0CE
:10051800C5BE00BFF8B546F2A0040121C4F202042A
:100528004FF4001000F0A6FC204601F039F94AF219
:10053800F473C2F2000347F21446C4F200065E6088
:1005480040F29046C2F200069E604026DE604FF4FC
:100558000066DE614FF400561E624FF4807600227A
:1005680001255E624FF060674FF400362046194659
:100578001F601D615A619A619E62DA621D635A6347
:100588009A6301F001FA20462946BDE8F84001F0D7
:1005980057BA00BFF8B501214FF4800000F06AFC9B
:1005A8004AF2F473C2F2000342F24C26C4F2010686
:1005B8005E60184E40F204029E60C2F200024FF4E0
:1005C80080669E614FF400661268DE614FF4005643
:1005D8001E6246F210444FF480761A61C4F2020497
:1005E800002201255E624FF080674FF400362046F6
:1005F80019461F60DA605A619E62DA621D635A63A7
:100608009A6301F0C1F920462946BDE8F84001F097
:1006180017BA00BF9404002010B501214FF0005014
:1006280000F052FC4AF29C73C2F200030022042438
:10063800194610201C605A60DA6000F0BDFF1020D7
:10064800012100F0D9FF10200121BDE8104001F080
:1006580057B800BF10B590ED480A2DED068B04463B
:1006680001F0C8FEB0EE408AF0EE608A02F0D8FAD7
:10067800B0EE40AAF0EE60AAB0EE480AF0EE680AC2
:1006880002F02EFB02F01CF901F0B4FE9FED241BD2
:1006980001F004FFB0EE408AF0EE608A94ED500A53
:1006A80001F0A8FEB0EE401AF0EE601AB0EE480A6B
:1006B800F0EE680A01F0F2FE02F002F9F7EE008AA5
:1006C80038EEC09AB0EE408A84ED409AB0EE4A0AFD
:1006D800F0EE6A0A02F0F4F8F8EE007A38EE288AAA
:1006E80060EE277A89EE087AC7EE886A88EE086A8B
:1006F800C4ED417A84ED428A84ED438AC4ED447A9C
:1007080084ED459A84ED497AC4ED4A6A84ED4B6AD2
:10071800C4ED4C6A84ED4D7ABDEC068B10BD00BF6C
:10072800000000000000E03F4FF4806370B5C4F2A1
:1007380000032DED028B1B8ADA0730D54FF4406396
:10074800C4F202031A4C59691A4E002281F400417E
:100758009FED198ADFED198A59611046E2604FF45E
:10076800A275E288A38892B206EE902A9BB2B8EEF0
:10077800667A06EE903AF8EE667A27EE087A67EE21
:10078800A87A05FB0063184683ED507AC3ED487AD2
:10079800FFF760FFE06801307F28E060E1DD4FF49B
:1007A8008063C4F2000300221A82BDEC028B70BD84
:1007B800900400209C0500200000803A0000803949
:1007C80040F29043C2F2000306EE100AD3F810C0BC
:1007D8002DE9F0011C691E691A69D3F810801F6998
:1007E8001D691869F8EE466AB7EE007ADFED337ACC
:1007F8001F32B0EE476A16EEA76AD317DB0ED2187F
:1008080001EB8C0C08F11E0802F01F028CED206A27
:10081800D31A4FEAE87C01EB83034FEADC6C1F37FD
:10082800D3ED207A01EB8606D1ED4A5AE04491EDEA
:10083800496AD6ED206AFA1708F01F08D20E65EE4D
:10084800A77ACCEB080C1E3546EE267A01EB8C0C09
:10085800BF1891ED4B6ADCED206AEB1707F01F0714
:10086800DB0EBA1A46EE267A01EB8202ED18D2EDBB
:10087800006A91ED4C6A05F01F05EB1A46EE667AA0
:1008880001EB8303D3ED006A91ED4D6A46EE667A7B
:1008980001EB8404C4ED007A01EB8000D0ED007A0E
:1008A80037EE877ADFED067A67EE277AFCEEE77A8D
:1008B80017EE900A80B2BDE8F00170470000003AD8
:1008C80000000045F8B54FF48053C4F200031B8ABA
:1008D800D90760D54FF44063C4F20203314C5A691A
:1008E800314F82F480425A612269A1882F4B89B224
:1008F80023F812102269E1882D4B89B223F81210CF
:10090800226921892B4B89B223F812102269618947
:10091800294B89B223F81210A388A28AD3189BB254
:10092800A382A28AE38892B29BB2B2FBF3F103FBE3
:1009380011239BB2A3822389A28AD3189BB2A382D4
:10094800A38A1B051B0DA382A38A0021C3F34E03B0
:10095800A382E1604FF4A276A08A124D06FB0171D2
:1009680080B2FFF72DFFE168A08201317F29E160A5
:10097800F2DD2969AB8A114A9BB222F811302B802B
:100988002B6901332B612A69D317DB0ED21802F0C9
:100998001F02D31A2B614FF48053C4F200030022C4
:1009A8001A82F8BD900400209C050020B4A70020FE
:1009B80044050020F4040020B404002030A80020DE
:1009C8001F2310B41A46002100E01A4600EB8204E7
:1009D800013B5A1C2160C4F88010F6D14BF6C202C4
:1009E800C3F6B262C0F820214FF07E52C0F8402111
:1009F800014A936110BC704790040020AFF3008057
:100A08004FF46D42CEF200024FF46053D2F88810D2
:100A1800C4F2020341F47001C2F888101968002278
:100A280041F0010119609A60186843F2100120F042
:100A38008470C2F2004120F480301860596019684F
:100A480082B021F480211960DA60009201921A685C
:100A580042F480321A601A4603E0009BB3F5A06F97
:100A680009D0136803F400330193009B013300930A
:100A7800019B002BF1D04FF46053C4F202031B68B2
:100A880013F4003308BF019301D001230193019BA4
:100A9800012B08D04FF46D43CEF200034FF00062F3
:100AA8009A6002B070474FF46053C4F202034FF4E7
:100AB800E042196CC4F2000241F0805119641168D7
:100AC80041F4804111609A689A609A6842F4004241
:100AD8009A60996845F2084241F4A051C0F2407208
:100AE80099605A601A6842F080721A6019460A685A
:100AF8004FF460539201C4F20203F8D54FF47052D8
:100B0800C4F2020240F2056111609A6822F0030201
:100B18009A609A6842F002029A609A6802F00C029F
:100B2800082AFAD1B6E700BF4FF46053C4F20203B3
:100B38009A6802F00C02042A04BF47F64001C0F28A
:100B48007D1106D0082A1CBF4FF41051C0F2F401E1
:100B58000BD04FF46052C4F20202154B9268C2F3F4
:100B680003129A5CD1401961704758685A6810F4AA
:100B7800800F586815BF47F640034FF41053C0F272
:100B88007D13C0F2F40302F03F02B3FBF2F14FF41D
:100B98006053C4F20203C0F388105B68C3F30143D7
:100BA800013301FB00F15B00B1FBF3F1D1E700BFBA
:100BB800080000204FF46053C4F2020300221968B1
:100BC80041F0010119609A60186843F2100120F0A1
:100BD8008470C2F2004120F48030186059601968AE
:100BE80021F480211960DA60704700BF43F60203E0
:100BF800C4F2020300221A701870704782B04FF4D2
:100C0800605100230193C4F202010A68019B013379
:100C18000193019BB3F5A06F01D09303F5D54FF471
:100C28006053C4F202031868C0F3404002B0704732
:100C38004FF46053C4F202031A6822F0F80242EA41
:100C4800C0021A60704700BF0023C4F2472318602F
:100C5800704700BF43F67003C4F202030022012864
:100C68001A701A7004D0042801D105221A7070472E
:100C7800187070474FF46863C4F2472318607047D0
:100C8800014341EA821200995B084FF4605042EA3E
:100C98000162013BC4F2020042EA0342426070472B
:100CA8006023C4F247231860704700BF4FF46053B5
:100CB8008001C4F2020340EA0171C3F8841070474E
:100CC8006823C4F247231860704700BF4C23C4F25E
:100CD80047231860704700BF4FF46053C4F2020303
:100CE8009A6822F0EC6202430A439A60704700BF98
:100CF8004FF46053C4F202039A6822F07842024328
:100D08000A439A60704700BF4FF46053C4F202036D
:100D18009A6822F0030202439A6070474FF46053C6
:100D2800C4F20203986800F00C0070474FF4605357
:100D3800C4F202039A6822F0F00202439A607047F4
:100D48004FF46053C4F202039A6822F4E05202435B
:100D58009A6070474FF46053C4F202039A6822F411
:100D6800604242EAC0029A60704700BF4FF4605385
:100D7800C4F2020310B49A6802F00C02042A02BFFB
:100D880047F64002C0F27D12026006D0082A1ED043
:100D98004FF41052C0F2F40202604FF46053C4F2F0
:100DA80002031C499C68C4F303140C5DE2404260D2
:100DB8009C68C4F382240C5D32FA04F484609B6856
:100DC800C3F34233CB5CDA40C26010BC70475C6846
:100DD800596814F4800F5C6815BF47F640034FF458
:100DE8001053C0F27D13C0F2F40301F03F01B3FBCE
:100DF800F1F24FF46053C4F20203C4F388145B6841
:100E0800C3F30143013302FB04F25B00B2FBF3F2CC
:100E18000260C2E71C00002000F44073B3F5407F75
:100E28000CD14FF46053C4F2020320F070419A6869
:100E380021F4407122F4F8120A439A604FF4605387
:100E4800C4F2020300051A6F000D104318677047BB
:100E580040F63C63C4F24723186070474FF464635C
:100E6800C4F24723186070474FF4AE73C4F24723A7
:100E7800186070474FF46053C4F202031A6B19B933
:100E880022EA00001863704710431863704700BFD8
:100E98004FF46053C4F202035A6B19B922EA0000F6
:100EA8005863704710435863704700BF4FF460534E
:100EB800C4F202039A6B19B922EA000098637047DA
:100EC80010439863704700BF4FF46053C4F20203A5
:100ED8001A6C19B922EA00001864704710431864A4
:100EE800704700BF4FF46053C4F202035A6C19B93B
:100EF80022EA00005864704710435864704700BFE6
:100F08004FF46053C4F202031A6919B922EA0000C7
:100F18001861704710431861704700BF4FF4605361
:100F2800C4F202035A6919B922EA000058617047ED
:100F380010435861704700BF4FF46053C4F2020376
:100F48009A6919B922EA00009861704710439861BC
:100F5800704700BF4FF46053C4F202031A6A19B90C
:100F680022EA00001862704710431862704700BFF9
:100F78004FF46053C4F202035A6A19B922EA000016
:100F88005862704710435862704700BF4FF460536F
:100F9800C4F202031A6D19B922EA000018657047F5
:100FA80010431865704700BF4FF46053C4F2020342
:100FB8005A6D19B922EA0000586570471043586500
:100FC800704700BF4FF46053C4F202039A6D19B919
:100FD80022EA00009865704710439865704700BF83
:100FE8004FF46053C4F202031A6E19B922EA0000E2
:100FF8001866704710431866704700BF4FF4605377
:10100800C4F202035A6E19B922EA00005866704702
:1010180010435866704700BF43F60D03C4F202033D
:101028001A7819B922EA000018707047104318702E
:10103800704700BF4309012B0ED0022B4FF46053B9
:10104800C4F202030CBF1B6F5B6F00F01F0033FA82
:1010580000F000F0010070474FF46053C4F202033F
:101068001B68F2E74FF46053C4F202035A6F42F070
:1010780080725A67704700BF4FF46053C4F202038E
:10108800DB6818420CBF00200120704743F60E03AE
:10109800C4F202031870704730B544F28854C0F6A1
:1010A8000004054654F8200004EB450483B00121F0
:1010B800FFF7E0FE238A40F22C02C2F200020093FE
:1010C800012352F825008DF8043000228DF80730EE
:1010D800694602238DF806208DF8053000F02EFFB2
:1010E80003B030BD44F2885340F22C02C0F600032E
:1010F800C2F2000203EB400352F820201B8A13833C
:10110800704700BF44F2885340F22C02C0F6000337
:10111800C2F2000203EB400352F820201B8A5383DB
:10112800704700BF40F22C03C2F2000344F2885219
:10113800C0F6000253F8203002EB40025969128AC7
:101148004A405A61704700BF30B50446012087B055
:101158000D460146FFF78EFE01214FF48040FFF750
:10116800C1FE06A9012341F8143D164B03EB840385
:10117800002418698DF808408DF80B4000F0DEFE59
:10118800012D01D007B030BD2046214600F09EFF5A
:10119800082303A88DF8113003958DF810408DF8B9
:1011A800125000F0C3FD0F23062205A88DF8142065
:1011B8008DF815308DF816308DF8175000F03EFD7B
:1011C800E0E700BF2C00002008B540F22C03C2F273
:1011D800000303EB80030121186900F027FF08BD15
:1011E80008B501214FF48070FFF7C2FE4FF48070FC
:1011F8000021BDE80840FFF7BBBE00BFD0F804C01F
:101208000B684A792CF0407CF0B42CF4807C0D7982
:10121800CF680C698E684CEA030343EA05234360F0
:1012280085684FF2FD733C43CCF2FF0334432B40F7
:10123800234343EA420383600B7DC26A013B22F4E5
:101248007002DBB242EA0353C362F0BC704700BFCE
:1012580000230360037143718360C360036101234A
:101268000375704770B44FF40C5290E84200C4F212
:10127800010285685468C06843F2E0033143CFF641
:10128800FC732943234001430B43536070BC7047F0
:101298000023036043608360C3607047836819B9A3
:1012A80023F001038360704743F0010383607047B4
:1012B800436823F4400323F400730B4343607047EF
:1012C80041628262704700BF436823F01F030B43EB
:1012D800436070474FF40C53C4F201035A6818B9BD
:1012E80022F400025A60704742F400025A607047C4
:1012F8004FF40C53C4F201035A6818B922F480025F
:101308005A60704742F480025A607047092970B4E5
:101318001ED901EB41041E3CC6680725A54026EAF4
:10132800050513FA04F445EA0403062AC3601DD927
:101338000C2A02EB820226D9413AC46A1F23934041
:1013480024EA0303914043EA0102C26270BC704779
:10135800066901EB41040725A54026EA050513FAAD
:1013680004F445EA0403062A0361E1D8013A02EBD2
:101378008202446B1F23934024EA0303914043EA0B
:1013880001024263E2E7233A046B1F23934024EAF5
:101398000303914043EA01020263D7E7836843F0FD
:1013A80080438360704700BF8068C0F380507047F7
:1013B800836819B923F480638360704743F48063BA
:1013C80083607047836819B923F00203836070470C
:1013D80043F00203836070474368013923F4604394
:1013E80043EA413141607047436819B923F4006307
:1013F8004360704743F4006343607047C06C80B239
:10140800704700BF42F20833C4F2010318687047FE
:10141800836819B923F480738360704743F4807339
:1014280083607047836819B923F400738360704739
:1014380043F40073836070474FF40C53C4F2010304
:101448005A6818B922F400525A60704742F40052A0
:101458005A607047092970B41CD8066901EB410429
:101468000725A54026EA050513FA04F445EA04030E
:101478000361836BC3F30154121B0232D2B202EB35
:1014880082021F24944023EA040391400B438363A0
:1014980070BC704701EB4104C6681E3C0725A54097
:1014A80026EA050513FA04F445EA0403C360E0E7F5
:1014B800836B013923F4401343EA01518163704778
:1014C80082B0002301930190019BCB180193019BEB
:1014D8001A6002B0704700BF836823F470230B437F
:1014E80083607047836823F440130B43836070471D
:1014F800836843F480038360704700BF8068C0F34B
:1015080080507047436819B923F48063436070477B
:1015180043F4806343607047436819B923F48053E8
:101528004360704743F480534360704782B00023A0
:1015380001930190019B28335B180193019B186864
:1015480080B202B0704700BF0123C9B213FA01F19B
:1015580043681AB923EA01014160704719434160A1
:10156800704700BF036819420CBF00200120704774
:10157800C9430160704700BF4368006810EA112042
:1015880007D00122C9B212FA01F119420CBF00209A
:10159800012070476FEA11210160704708B50121E9
:1015A8004FF00050FFF7D6FC4FF000500021BDE887
:1015B8000840FFF7CFBC00BF70B491E860004FF45B
:1015C800E8438C68CA68C4F2000346EA05010C4384
:1015D8001E6840F6FE758540224326EA050512FA84
:1015E80000F02843186070BC704700BF00230360F8
:1015F80043608360C36070474FF4E843C4F200035C
:101608001A6831B9012111FA00F022EA00001860C5
:101618007047012111FA00F010431860704700BFAD
:101628004FF4E843C4F2000300095A6831B90121B4
:1016380011FA00F022EA000058607047012111FAFF
:1016480000F01043586070474FF4E843C4F20003B9
:101658005A6818B922F003025A60704742F0030230
:101668005A6070474FF4E843C4F20003814022B93E
:101678001A6822EA0101196070471A681143196053
:10168800704700BF82B04FF4E843C4F20003002261
:1016980001920193019B08331B180193019B196068
:1016A80002B0704782B04FF4E843C4F2000300224E
:1016B80001920193019B14331B180193019B19603C
:1016C80002B0704747F220430828C4F200030CBF59
:1016D80042EA012142EA0141C150704782B04FF409
:1016E800E843C4F20003002201920193019B2C33CA
:1016F80003EB90030193019B186880B202B0704716
:101708004FF4E843C4F200031A6839B94FF4805122
:1017180011FA00F022EA0000186070474FF4805177
:1017280011FA00F010431860704700BF4FF4E84307
:10173800C4F20003814022B91A6822EA0101196043
:1017480070471A6811431960704700BF4FF4E843A7
:10175800C4F2000381405B6B19420CBF00200120DA
:10176800704700BF4FF4E843C4F200038140596357
:10177800704700BF4FF4E843C4F2000381401A6881
:10178800586B084003D011420CBF0020012070475D
:101798004FF4E843C4F2000381405963704700BF27
:1017A800016846F21002002321F00101C4F202028E
:1017B8000160036043608360C3600361212390423A
:1017C80043616BD046F22803C4F2020398426CD0FE
:1017D80046F24003C4F2020398426ED046F2580320
:1017E800C4F20203984270D046F27003C4F20203B6
:1017F800984272D046F28803C4F20203984275D028
:1018080046F2A003C4F2020398423ED046F2B8035F
:10181800C4F20203984273D046F21043C4F20203A2
:10182800984275D046F22843C4F20203984276D013
:1018380046F24043C4F20203984278D046F2584335
:10184800C4F2020398427AD046F27043C4F202030B
:1018580098427CD046F28843C4F2020398427FD073
:1018680046F2A043C4F20203984200F0838046F295
:10187800B843C4F20203984201BF4FF4C843C4F20C
:1018880002034FF03D52DA6070474FF4C043C4F290
:1018980002030022C2F23D02DA6070474FF4C043EF
:1018A800C4F202033D229A6070474FF4C043C4F269
:1018B80002034FF474629A6070474FF4C043C4F255
:1018C80002034FF474129A6070474FF4C043C4F295
:1018D80002034FF074629A6070474FF4C043C4F239
:1018E80002033D22C2F20002DA6070474FF4C0439F
:1018F800C4F202034FF47462C2F20002DA60704765
:101908004FF4C043C4F202034FF03D52DA6070470F
:101918004FF4C843C4F202033D229A6070474FF463
:10192800C843C4F202034FF474629A6070474FF4DC
:10193800C843C4F202034FF474129A6070474FF41C
:10194800C843C4F202034FF074629A6070474FF4C0
:10195800C843C4F202033D22C2F20002DA607047B3
:101968004FF4C843C4F202034FF47462C2F2000297
:10197800DA6070474FF4C843C4F202030022C2F28F
:101988003D02DA60704700BF2DE9F00FD1F80CA0D6
:10199800D1F80090D1F81480D1F818C0CF69036845
:1019A8000E6A4D6A8C6A4A6BD1F838B04AEA09095E
:1019B80049EA080986B049EA0C0949EA0709019386
:1019C80049EA06090B6B49EA05052C430493CB6ADF
:1019D800049D0593224348F23F08019C0B69CFF20E
:1019E8001C0804EA080842EA0B02029342EA0802C9
:1019F8004B68896802600393059C436945EA0402C1
:101A080023F0070313434361029D039B45608360F2
:101A1800C16006B0BDE8F00F704700BF0023036047
:101A280043608360C360036143618361C361036290
:101A380043628362C362036343638363704700BF87
:101A4800036819B923F001030360704743F00103E9
:101A580003607047036819B923F4004303607047B3
:101A680043F4004303607047036819B923F0200367
:101A78000360704743F0200303607047416070477C
:101A8800406880B2704700BF036822B923F400237E
:101A980003600161704743F40023036001617047EC
:101AA800036819B923F480230360704743F4802343
:101AB800036070470AB9C16070470161704700BF91
:101AC8000068C0F3C0407047006800F0010070472C
:101AD800406900F03800704710B44FF4C84246F22D
:101AE8000F444FF4C043C4F20202C4F20204C4F229
:101AF8000203A04288BF13468A004CBF5B681B687C
:101B080021F0F02121F0821119420CBF00200120A0
:101B180010BC704710B44FF4C84246F20F444FF45B
:101B2800C043C4F20204C4F20202C4F20203A04297
:101B380088BF134611F0005F21F0F02121F08211D7
:101B480014BFD960996010BC704700BF0B0604D55C
:101B580043697AB143F080034361802906D0036862
:101B680001F01E011AB923EA010101607047194307
:101B78000160704723F080034361EEE770B44FF4CF
:101B8800C04246F20F454FF4C84421F0F023C4F296
:101B98000205C4F20204C4F2020223F0C316A842EA
:101BA80088BF2246AEB1006800F01E0000EAD120CE
:101BB80089004CBF5268126823F0821313420CBF8D
:101BC8000023012300280CBF002003F0010070BC93
:101BD8007047406900F08000EAE700BF10B44FF496
:101BE800C84246F20F444FF4C043C4F20204C4F2A0
:101BF8000202C4F20203A04288BF134611F0005F3C
:101C080021F0F02121F0821114BFD960996010BC35
:101C1800704700BFC847000800000020700400207B
:101C28007404002084A800204FF46D4340F0BF6086
:101C3800CEF2000340F40030D8607047C37830B467
:101C48007BB902784FF461435109CEF2000302F0E8
:101C58001F022031012010FA02F243F8212030BC83
:101C680070474FF46D43CEF200034578DA68847804
:101C78000378D243C2F30222C2F10401C9B215FAB1
:101C880001F10F2555FA02F2C9B222400A4303F1C5
:101C9800604303F561431201D2B283F8002302784E
:101CA8004FF461435109CEF2000302F01F020120F4
:101CB80010FA02F243F82120D1E700BF21F0604179
:101CC8004FF46D4321F07F01CEF200030143996088
:101CD800704700BF4FF46D43CEF200031A6919B97B
:101CE80022EA00001861704710431861704700BF6E
:101CF8004EF21003CEF2000304281A680CBF42F01B
:101D0800040222F004021A60704700BF4FF47053B7
:101D1800C4F201034FF6FF710022C0F27F011A607E
:101D28005A609A60DA605961704700BF837970B46D
:101D38003BB34FF47053C4F2010301681E68027983
:101D48004579CC4326401E605E6802F1804202F568
:101D58009E3234405C6014682143116002689868C0
:101D6800D14308409860D868102D01EA0001D96075
:101D780013D005F1804505F59E352B681A432A6076
:101D880009E00379016803F1804303F59E331A687B
:101D980022EA01021A6070BC704799681143996081
:101DA800D9680A43DA60F6E700230C22036003715E
:101DB80042718371704700BF4FF47053C4F201033E
:101DC8001A6902431A6170474FF47053C4F2010351
:101DD8005B6918420CBF0020012070474FF4705314
:101DE800C4F20103586170474FF47053C4F2010301
:101DF8001A685B69034004D010420CBF0020012020
:101E080070471846704700BF4FF47053C4F201037F
:101E18005861704708B50023C4F2020398423CD0C9
:101E28004FF48063C4F20203984240D04FF4006339
:101E3800C4F20203984244D04FF44063C4F2020350
:101E4800984248D04FF48053C4F2020398424CD0D1
:101E58004FF4A053C4F20203984250D04FF4C05339
:101E6800C4F20203984254D04FF4E053C4F2020380
:101E7800984258D04FF40053C4F20203984200D05D
:101E880008BD01214FF48070FFF73AF84FF48070D5
:101E98000021BDE80840FFF733B801200146FFF7ED
:101EA8002FF801200021BDE80840FFF729B80220DB
:101EB8000121FFF725F802200021BDE80840FFF7BF
:101EC8001FB804200121FFF71BF804200021BDE8FA
:101ED8000840FFF715B808200121FFF711F808207E
:101EE8000021BDE80840FFF70BB810200121FFF7DB
:101EF80007F810200021BDE80840FFF701B82020AE
:101F08000121FEF7FDFF20200021BDE80840FEF773
:101F1800F7BF40200121FEF7F3FF40200021BDE874
:101F28000840FEF7EDBF80200121FEF7E9FF802081
:101F38000021BDE80840FEF7E3BF00BF00232DE9FC
:101F4800F0070A681C4601274FF0030803E0013434
:101F58000233102C2BD017FA04F505EA0206AE421C
:101F6800F5D1D0F8009091F804C008FA03F5ED43D4
:101F780005EA0909C0F80090D0F800900CFA03FAB5
:101F88000CF1FF3C4AEA0909BCF1010FC0F80090C6
:101F980010D9C66891F807C03540C560C6680CFA04
:101FA80003F5013435430233102CC560D3D1BDE8A5
:101FB800F0077047D0F808A091F8059091F806C08E
:101FC80005EA0A0AC0F808A0D0F808A009FA03F937
:101FD80049EA0A09C0F80890D0F8049029EA0606E8
:101FE800466046680CFA04FC1FFA8CFC4CEA0606AC
:101FF8004660CEE700234FF6FF720260037143711B
:102008008371C371704700BF82B04FF4803301936E
:10201800019B0B430193019BC361C161019BC36198
:10202800C3690193C369019302B0704703691942F8
:102038000CBF002001207047006980B2704700BFC4
:10204800436919420CBF002001207047406980B2E3
:10205800704700BF01837047418370470AB94183C5
:1020680070470183704700BF4161704743694B4027
:1020780043617047CB08083301F0070130B4890089
:1020880050F823500F248C4025EA040440F82340DC
:1020980050F8234012FA01F10C4340F8234030BCB9
:1020A800704700BF08B501214FF48040FEF760FF7C
:1020B8004FF480400021BDE80840FEF759BF00BF3B
:1020C8004FF46053C4F20103186070478A084FF454
:1020D8006053C4F20103023201F0030130B48900F5
:1020E80053F822500F248C4025EA040443F8224078
:1020F80053F8224010FA01F10C4343F8224030BC57
:10210800704700BFDC23C4F227231860704700BF64
:102118004FF48063C4F22723186070474FF460536C
:10212800C4F20103186AC0F30020704781F000412F
:1021380002E000BF83F0004330B54FEA41044FEAA4
:10214800430594EA050F08BF90EA020F1FBF54EA3F
:10215800000C55EA020C7FEA645C7FEA655C00F0DB
:10216800E2804FEA5454D4EB5555B8BF6D420CDDAC
:102178002C4480EA020281EA030382EA000083EA2F
:10218800010180EA020281EA0303362D88BF30BDCF
:1021980011F0004F4FEA01314FF4801C4CEA113125
:1021A80002D0404261EB410113F0004F4FEA033384
:1021B8004CEA133302D0524263EB430394EA050F0F
:1021C80000F0A780A4F10104D5F1200E0DDB02FA7E
:1021D8000EFC22FA05F2801841F1000103FA0EF212
:1021E800801843FA05F359410EE0A5F120050EF1D8
:1021F800200E012A03FA0EFC28BF4CF0020C43FA09
:1022080005F3C01851EBE37101F0004507D54FF015
:10221800000EDCF1000C7EEB00006EEB0101B1F565
:10222800801F1BD3B1F5001F0CD349085FEA3000AB
:102238004FEA3C0C04F101044FEA445212F5800FB6
:1022480080F09A80BCF1004F08BF5FEA500C50F153
:10225800000041EB045141EA050130BD5FEA4C0C36
:10226800404141EB010111F4801FA4F10104E9D1BF
:1022780091F0000F04BF01460020B1FA81F308BFB6
:102288002033A3F10B03B3F120020CDA0C3208DD82
:1022980002F1140CC2F10C0201FA0CF021FA02F15D
:1022A8000CE002F11402D8BFC2F1200C01FA02F1CD
:1022B80020FA0CFCDCBF41EA0C019040E41AA2BFF2
:1022C80001EB0451294330BD6FEA04041F3C1CDABA
:1022D8000C340EDC04F11404C4F1200220FA04F0DA
:1022E80001FA02F340EA030021FA04F345EA030184
:1022F80030BDC4F10C04C4F1200220FA02F001FA46
:1023080004F340EA0300294630BD21FA04F02946C7
:1023180030BD94F0000F83F4801306BF81F4801160
:102328000134013D4EE77FEA645C18BF7FEA655CD3
:1023380029D094EA050F08BF90EA020F05D054EAA5
:10234800000C04BF1946104630BD91EA030F1EBFAA
:102358000021002030BD5FEA545C05D140004941AE
:1023680028BF41F0004130BD14F580043CBF01F5A1
:10237800801130BD01F0004545F0FE4141F4700187
:102388004FF0000030BD7FEA645C1ABF1946104662
:102398007FEA655C1CBF0B46024650EA013406BF63
:1023A80052EA033591EA030F41F4002130BD00BF22
:1023B80090F0000F04BF0021704730B54FF48064DF
:1023C80004F132044FF000054FF0000150E700BF60
:1023D80090F0000F04BF0021704730B54FF48064BF
:1023E80004F1320410F0004548BF40424FF00001AC
:1023F8003EE700BF42004FEAE2014FEA31014FEAEF
:1024080002701FBF12F07F4393F07F4F81F060513D
:10241800704792F0000F14BF93F07F4F704730B5AC
:102428004FF4607401F0004521F0004120E700BF3F
:1024380050EA010208BF704730B54FF000050AE0C6
:1024480050EA010208BF704730B511F0004502D5C7
:10245800404261EB41014FF4806404F132045FEAC9
:10246800915C3FF4DCAE4FF003025FEADC0C18BF6E
:1024780003325FEADC0C18BF033202EBDC02C2F164
:10248800200300FA03FC20FA02F001FA03FE40EAF6
:102498000E0021FA02F11444C1E600BF70B54FF0F6
:1024A800FF0C4CF4E06C1CEA11541DBF1CEA1355D8
:1024B80094EA0C0F95EA0C0F00F0DEF82C4481EA40
:1024C800030621EA4C5123EA4C5350EA013518BF60
:1024D80052EA033541F4801143F4801338D0A0FB4D
:1024E80002CE4FF00005E1FB02E506F00042E0FBFA
:1024F80003E54FF00006E1FB03569CF0000F18BF00
:102508004EF0010EA4F1FF04B6F5007F64F54074A7
:1025180004D25FEA4E0E6D4146EB060642EAC6213A
:1025280041EA55514FEAC52040EA5E504FEACE2EA7
:10253800B4F1FD0C88BFBCF5E06F1ED8BEF1004FAA
:1025480008BF5FEA500E50F1000041EB045170BD26
:1025580006F0004646EA010140EA020081EA03016A
:10256800B4EB5C04C2BFD4EB0C0541EA045170BD66
:1025780041F480114FF0000E013C00F3AB8014F1E0
:10258800360FDEBF002001F0004170BDC4F1000429
:10259800203C35DA0C341BDC04F11404C4F12005AA
:1025A80000FA05F320FA04F001FA05F240EA020005
:1025B80001F0004221F0004110EBD37021FA04F63B
:1025C80042EB06015EEA430E08BF20EAD37070BDF5
:1025D800C4F10C04C4F1200500FA04F320FA05F054
:1025E80001FA04F240EA020001F0004110EBD37056
:1025F80041F100015EEA430E08BF20EAD37070BDC6
:10260800C4F1200500FA05F24EEA020E20FA04F39E
:1026180001FA05F243EA020321FA04F001F000414D
:1026280021FA04F220EA020000EBD3705EEA430EBE
:1026380008BF20EAD37070BD94F0000F0FD101F0ED
:102648000046400041EB010111F4801F08BF013C26
:10265800F7D041EA060195F0000F18BF704703F064
:102668000046520043EB030313F4801F08BF013DEB
:10267800F7D043EA0603704794EA0C0F0CEA1355A7
:1026880018BF95EA0C0F0CD050EA410618BF52EA61
:102698004306D1D181EA030101F000414FF0000067
:1026A80070BD50EA410606BF1046194652EA430675
:1026B80019D094EA0C0F02D150EA013613D195EAE9
:1026C8000C0F05D152EA03361CBF104619460AD131
:1026D80081EA030101F0004141F0FE4141F470013B
:1026E8004FF0000070BD41F0FE4141F4780170BD2B
:1026F80070B54FF0FF0C4CF4E06C1CEA11541DBF90
:102708001CEA135594EA0C0F95EA0C0F00F0A7F891
:10271800A4EB050481EA030E52EA03354FEA0131BE
:1027280000F088804FEA03334FF0805545EA1313D1
:1027380043EA12634FEA022245EA111545EA106599
:102748004FEA00260EF000419D4208BF964244F130
:10275800FD0404F5407402D25B084FEA3202B61A4F
:1027680065EB03055B084FEA32024FF480104FF423
:10277800002CB6EB020E75EB030E22BFB61A754697
:1027880040EA0C005B084FEA3202B6EB020E75EB2A
:10279800030E22BFB61A754640EA5C005B084FEA92
:1027A8003202B6EB020E75EB030E22BFB61A75465F
:1027B80040EA9C005B084FEA3202B6EB020E75EB6A
:1027C800030E22BFB61A754640EADC0055EA060E2B
:1027D80018D04FEA051545EA16754FEA06164FEA6E
:1027E800C30343EA52734FEAC2025FEA1C1CC0D11A
:1027F80011F4801F0BD141EA00014FF000004FF0A7
:10280800004CB6E711F4801F04BF01430020B4F167
:10281800FD0C88BFBCF5E06F3FF6AFAEB5EB030C1F
:1028280004BFB6EB020C5FEA500C50F1000041EB1C
:10283800045170BD0EF0004E4EEA113114EB5C04E9
:10284800C2BFD4EB0C0541EA045170BD41F48011BC
:102858004FF0000E013C90E645EA060E8DE60CEAC4
:10286800135594EA0C0F08BF95EA0C0F3FF43BAFE1
:1028780094EA0C0F0AD150EA01347FF434AF95EA98
:102888000C0F7FF425AF104619462CE795EA0C0F7C
:1028980006D152EA03353FF4FDAE1046194622E749
:1028A80050EA410618BF52EA43067FF4C5AE50EA23
:1028B80041047FF40DAF52EA43057FF4EBAE12E713
:1028C8004FEA4102B2F1E04324BFB3F5001CDCF14A
:1028D800FE5C0DD901F0004C4FEAC0024CEA507082
:1028E800B2F1004F40EB830008BF20F001007047B1
:1028F80011F0804F21D113F13872BCBF01F00040B4
:10290800704741F480114FEA5252C2F11802C2F1E5
:10291800200C10FA0CF320FA02F018BF40F0010066
:102928004FEAC1234FEAD32303FA0CFC40EA0C0018
:1029380023FA02F34FEA4303CCE77FEA625307D155
:1029480050EA01331EBF4FF0FE4040F4400070478C
:1029580001F0004040F0FE4040F40000704700BF26
:10296800014600200246034600F096B808B500214B
:10297800044600F0E9F8044B1868C36B03B19847A4
:10298800204601F016EF00BFB845000838B5084DDD
:10299800084C641BA41006D005EB840555F8043DCB
:1029A8009847013CFAD1BDE8384001F0FBBE00BFB2
:1029B800C4470008C847000870B50E4D0E4E761B78
:1029C800B61007D0043D002455F8043F0134984759
:1029D800A642F9D1094D0A4E761B01F0DDFEB6106C
:1029E80007D0043D002455F8043F01349847A64217
:1029F800F9D170BDC0470008C0470008C0470008AB
:102A0800C447000810F0030F70B4034642D0002AF0
:102A18003ED0013ACDB203E0541E002A38D02246F7
:102A280003F8015B13F0030F1C46F5D1032A29D9DB
:102A3800CDB20F2A45EA052545EA054584BF234658
:102A4800164611D9103E1D605D609D60DD60103333
:102A58000F2EF7D8A2F1100323F00F0302F00F0294
:102A68001033032A1C440DD926461346043B032B76
:102A780046F8045BFAD8131F23F00303043302F06B
:102A88000302E418C9B21AB1013A04F8011BFBD1D8
:102A980070BC70470446C9E72DE9F041284C256809
:102AA800D5F8484184B00646002C43D060681F28FA
:102AB8001DDD244810B94FF0FF301FE04FF4C870F7
:102AC800039102920193AFF300800399029A019B4C
:102AD80004460028EFD0D5F84801002784E8810093
:102AE800C5F848413846C4F88871C4F88C7146B9AD
:102AF800831C013044F823106060002004B0BDE856
:102B0800F08104EB800801258540022ED4F888C1A5
:102B1800C8F8083108BFD4F88C31C8F888204CEAC6
:102B2800050C08BF1D434746C4F888C108BFC4F850
:102B38008C51DDE705F5A674C5F84841B6E700BF36
:102B4800B8450008000000002DE9F04F334B83B072
:102B58001B68019000930E464FF0010B009BD3F8C1
:102B68004871BFB103F5A4797D686C1E0CD407F1D8
:102B7800880A1F350AEB85057EB12B68B3420CD055
:102B8800013C043D631CF7D140F20003C0F200038E
:102B9800002B30D103B0BDE8F08F7968CAEB05028D
:102BA800BA180139A14252F8783C08BF7C6002D0BB
:102BB800002142F8781C002BE2D0D7F88811D7F80A
:102BC80004800BFA04F20A420FD0D7F88C110A429B
:102BD8000DD1019855F8801C98477B684345BDD1B5
:102BE800D9F80030BB42CBD0B8E79847F5E755F89D
:102BF800800C9847F1E77B685BB93B6853B138466E
:102C0800C9F80030AFF30080D9F80070002FABD1BD
:102C1800C0E73B68B9461F46F8E700BFB84500085B
:102C280000B5B0EE401AF0EE601A53EC102B42F2E9
:102C3800FB1223F00043C3F6E972934285B026DD08
:102C48004FF6FF72C7F6EF7293420BDDFFF772FA89
:102C580010EE100A10EE901A02460B4643EC102BA9
:102C680005B000BD684600F09BF800F0030001289D
:102C78009DED000B9DED021B1BD0022810D008BB58
:102C880000F042FB10EE100A10EE901AE4E79FEDF8
:102C9800121B00F039FB10EE100A10EE901ADBE759
:102CA80000F032FB10EE903A10EE100A03F10041EA
:102CB800D2E701F0F5F810EE903A10EE100A03F1A1
:102CC8000041C9E7012001F0EBF810EE100A10EE00
:102CD800901AC1E7AFF30080000000000000000078
:102CE80000B5B0EE401AF0EE601A53EC102B42F229
:102CF800FB1223F00043C3F6E972934285B027DD47
:102D08004FF6FF72C7F6EF7293420BDDFFF712FA28
:102D180010EE100A10EE901A02460B4643EC102BE8
:102D280005B000BD684600F03BF800F0030001283C
:102D38009DED000B9DED021B1ED0022812D010BB8A
:102D4800012001F0ADF810EE100A10EE901AE3E73A
:102D580000209FED111B01F0A3F810EE100A10EEF1
:102D6800901AD9E7012001F09BF810EE903A10EE86
:102D7800100A03F10041CFE700F0C6FA10EE100A7E
:102D880010EE901AC8E700F0BFFA10EE903A10EE75
:102D9800100A03F10041BFE7000000000000000036
:102DA8002DE9F043B0EE401AF0EE601A53EC102B08
:102DB8002DED088B42F2FB1223F00044C3F6E972B2
:102DC800944289B01F46054640F392804DF67B1326
:102DD800C4F202039C422DDC002F9FEDAB1B40F395
:102DE8003082FFF7A7F942F2FB13C3F6F9739C424E
:102DF800B0EE408AF0EE608A00F091809FEDA41B4F
:102E0800FFF798F9B0EE407AF0EE607AB0EE480A33
:102E1800F0EE680AB0EE471AF0EE671A85ED007B0F
:102E2800FFF788F99FED9A1BFFF784F9012685EDD6
:102E3800020B66E042F2FB13C4F239139C4240F3E2
:102E4800A9804FF6FF73C7F6EF739C425FDC261527
:102E580010EE102AA6F21646A4EB065343EC182BE4
:102E6800B0EE480AF0EE680A01F0E0FAFFF7B0FAAF
:102E7800B0EE480AF0EE680A41EC110BCDE9020108
:102E8800FFF758F99FED841BFFF708FBB0EE409A57
:102E9800F0EE609A01F0CAFAFFF79AFAB0EE490A22
:102EA800F0EE690A41EC110B41EC180BCDE9040175
:102EB800FFF740F99FED781BFFF7F0FA9FED781BBD
:102EC8008DED060B01F080FA032400284BD00DF19C
:102ED80010080324B0EE480AF0EE680A9FED701B54
:102EE800013C01F071FA00283DD038ED028BF1E782
:102EF8000022002343EC172B85ED000B80ED027BAD
:102F08000026304609B0BDEC088BBDE8F083FFF71A
:102F180011F9002685ED020B85ED000BF1E79FED19
:102F2800621BFFF707F99FED621BB0EE408AF0EED7
:102F3800608AFFF7FFF8B0EE407AF0EE607AB0EE04
:102F4800480AF0EE680AB0EE471AF0EE671A85ED07
:102F5800007BFFF7EFF89FED561BFFF7EBF8012614
:102F680085ED020BCDE7234602240094564C3246E9
:102F780002A82946019400F047FB002F0646C0DA54
:102F88006A68EB6802F1004203F100436A60EB6093
:102F98004642B6E701F07CF89FED471BB0EE408A49
:102FA800F0EE608AFFF77AFA9FED451BFFF7C4F849
:102FB80001F03CFA0646FFF70BFA9FED331B41EC94
:102FC800100B41EC1A0BFFF769FAB0EE401AF0EE5D
:102FD800601AB0EE480AF0EE680AFFF7ABF89FED0A
:102FE8002C1BB0EE409AF0EE609AB0EE4A0AF0EE72
:102FF8006A0AFFF753FA1F2EB0EE408AF0EE608A95
:10300800B0EE490AF0EE690AB0EE481AF0EE681A16
:103018005EDC721E2D4B53F82230A34258D0FFF7C6
:1030280089F810EE102A10EE903AC5E9002310EE48
:10303800109A10EE908A4A46434643EC112BB0EEA4
:10304800490AF0EE690AFFF775F8B0EE481AF0EE93
:10305800681AFFF76FF810EE100A10EE901A002F9A
:1030680010EE902AC5E90201BFF64BAF08F1004106
:1030780002F10042C5F80090696085ED020AEA6035
:1030880076423EE7AFF3008000004054FB21F93F51
:103098003163621A61B4D03D000000000000704145
:1030A80000000000000000000000601A61B4D03D7C
:1030B8007370032E8A19A33B83C8C96D305FE43F40
:1030C800000000000000E03F3C460008BC45000846
:1030D800FFF730F810EE908A2415C8F30A5110EE65
:1030E800102A10EE903A611A102910EE109AC5E9CC
:1030F8000023A0DD9FED7A1BB0EE4A0AF0EE6A0AC3
:10310800FFF7CCF9B0EE408AF0EE608AB0EE490ADB
:10311800F0EE690AB0EE481AF0EE681AFFF70AF8FE
:10312800B0EE40BAF0EE60BAB0EE490AF0EE690AC5
:10313800B0EE4B1AF0EE6B1AFEF7FCFFB0EE481A31
:10314800F0EE681AB0EE4B9AF0EE6B9AFEF7F2FFCB
:103158009FED651BB0EE408AF0EE608AB0EE4A0A39
:10316800F0EE6A0AFFF79AF9B0EE481AF0EE681A1C
:10317800FEF7E0FFB0EE408AF0EE608AB0EE4B0A50
:10318800F0EE6B0AB0EE481AF0EE681AFEF7D2FFBE
:1031980010EE908AC8F30A5110EE102A10EE903AF9
:1031A800641A312C10EE109AC5E900237FF743AF5B
:1031B8009FED4F1BB0EE4A0AF0EE6A0AFFF76EF970
:1031C800B0EE408AF0EE608AB0EE4B0AF0EE6B0A81
:1031D800B0EE481AF0EE681AFEF7ACFFB0EE409A6F
:1031E800F0EE609AB0EE4B0AF0EE6B0AB0EE491AB8
:1031F800F0EE691AFEF79EFFB0EE481AF0EE681A74
:10320800FEF798FF9FED3C1BB0EE408AF0EE608A17
:10321800B0EE4A0AF0EE6A0AFFF740F9B0EE481A33
:10322800F0EE681AFEF786FFB0EE408AF0EE608A8C
:10323800B0EE490AF0EE690AB0EE481AF0EE681AE4
:10324800EDE6FEF779FF42F2FB13C3F6F9739C42F1
:10325800B0EE408AF0EE608A1CD09FED291BFEF785
:103268006BFFB0EE407AF0EE607AB0EE480AF0EE0E
:10327800680AB0EE471AF0EE671A85ED007BFEF794
:1032880059FF9FED1F1BFEF757FF4FF0FF3685EDE7
:10329800020B36E69FED121BFEF74EFF9FED121B49
:1032A800B0EE408AF0EE608AFEF746FFB0EE407A54
:1032B800F0EE607AB0EE480AF0EE680AB0EE471A0F
:1032C800F0EE671A85ED007BFEF734FF9FED061BD5
:1032D800FEF732FF4FF0FF3685ED020B11E600BF17
:1032E8000000601A61B4D03D7370032E8A19A33BA5
:1032F8000000002E8A19A33BC14920259A837B39F7
:103308003163621A61B4D03D10B553EC102B23F031
:103318000044B4F1795F2DED0C8BB0EE409AF0EEDD
:10332800609AB0EE41BAF0EE61BA80F28E8001F098
:103338007DF8002800F03A81B0EE491AF0EE691ADB
:10334800B0EE490AF0EE690AFFF7A8F89FED9A1B5C
:10335800B0EE408AF0EE608AFFF7A0F89FED981B68
:10336800FEF7EAFEB0EE481AF0EE681AFFF796F894
:103378009FED951BFEF7DEFEB0EE481AF0EE681AD8
:10338800FFF78CF89FED921BFEF7D6FEB0EE481AB9
:10339800F0EE681AFFF782F89FED8F1BFEF7CAFE62
:1033A800B0EE481AF0EE681AFFF778F89FED8C1B1C
:1033B800FEF7C2FEB0EE481AF0EE681AFFF76EF894
:1033C800B0EE40AAF0EE60AAB0EE480AF0EE680A45
:1033D8009FED851BFFF762F8B0EE4A1AF0EE6A1A05
:1033E800B0EE40CAF0EE60CAB0EE480AF0EE680AE5
:1033F800FFF754F8B0EE4B1AF0EE6B1AB0EE408AB5
:10340800F0EE608AB0EE490AF0EE690AFFF746F876
:10341800B0EE401AF0EE601AB0EE480AF0EE680A14
:10342800FEF788FEB0EE401AF0EE601AB0EE4C0AD5
:10343800F0EE6C0AFEF77EFEB0EE401AF0EE601A6F
:103448009FED6B0BFEF776FEA8E0B0EE401AF0EEAB
:10345800601AFFF723F89FED581BB0EE408AF0EE94
:10346800608AFFF71BF89FED561BFEF765FEB0EE6E
:10347800481AF0EE681AFFF711F89FED531BFEF794
:1034880059FEB0EE481AF0EE681AFFF707F89FEDFC
:10349800501BFEF751FEB0EE481AF0EE681AFEF720
:1034A800FDFF9FED4D1BFEF745FEB0EE481AF0EE0E
:1034B800681AFEF7F3FF9FED4A1BFEF73DFEB0EEDC
:1034C800481AF0EE681AFEF7E9FF43F23233C3F602
:1034D800D3739C42B0EE40AAF0EE60AA7FF774AFB7
:1034E8000023C3F6E9739C425BDCA4F500130022B9
:1034F80043EC1C2B9FED3E0BB0EE4C1AF0EE6C1A11
:10350800FEF718FEB0EE40DAF0EE60DAB0EE480AE8
:10351800F0EE680A9FED341BFEF7C0FFB0EE4C1AC0
:10352800F0EE6C1AFEF706FEB0EE4A1AF0EE6A1AD2
:10353800B0EE40CAF0EE60CAB0EE480AF0EE680A93
:10354800FEF7ACFFB0EE4B1AF0EE6B1AB0EE408A05
:10355800F0EE608AB0EE490AF0EE690AFEF79EFFC7
:10356800B0EE401AF0EE601AB0EE480AF0EE680AC3
:10357800FEF7E0FDB0EE401AF0EE601AB0EE4C0A2D
:10358800F0EE6C0AFEF7D6FDB0EE401AF0EE601AC7
:10359800B0EE4D0AF0EE6D0AFEF7CCFDBDEC0C8BDB
:1035A80010BD9FED15DB9FED16CBAFE79FED100B20
:1035B800F4E700BFAFF30080D43888BEE9FAA8BDAD
:1035C800C4B1B4BD9EEE213EAD529C804F7E923E6A
:1035D8009015CB19A001FA3E7751C1166CC1563F20
:1035E8004C5555555555A53F000000000000E03FDB
:1035F800000000000000F03F000000000000E73F6E
:10360800000000000000D23F2DE9F04F4AF6AB253C
:103618002DED068BD41EC2F6AA2585FB0465E61798
:10362800ADF5177DC6EBA50525EAE5750995D04CDE
:10363800A69F099E54F8274002901D46F34303EBCA
:10364800430305F1FF3902EBC30319EB040A0691A2
:10365800059319D4A79AC9EB06060AA808AF00EB88
:10366800CA0A4FF0000802EB860B00200021002E4A
:1036780003DB5BF80800FEF7ABFEE7E90201013661
:10368800574508F10408F0D1002C36DB5AAF07EB98
:10369800C40303940DF5B07BAA461C46B9F1000F8C
:1036A800C0F2D481029A9FEDA88B0AABA2F1080858
:1036B80003EBCA07002608F1080837ED021B98ED4E
:1036C800000BFEF7EBFEB0EE401AF0EE601AB0EE1B
:1036D800480AF0EE680AFEF72FFD0136AE42B0EE5A
:1036E800408AF0EE608AE6D157EC186BEBE9026786
:1036F800A3450AF1010AD1D1039CDDF808B007946B
:1037080027464FEAC70A96AC04EB0A03002F13EDCD
:103718003C8B35DD81AC5AA800EB0A0604EB870820
:103728009FED8B1BB0EE480AF0EE680AFEF7B6FE76
:1037380000F07CFEFEF74CFE9FED871B41EC100B62
:1037480041EC190BFEF7AAFEB0EE401AF0EE601A33
:10375800B0EE480AF0EE680AFEF7ECFC00F066FEF0
:10376800B0EE491AF0EE691A44F8040F36ED020B70
:10377800FEF7E2FC4445B0EE408AF0EE608ACFD115
:103788000598B0EE480AF0EE680A00F025FD9FEDB6
:10379800741BB0EE408AF0EE608AFEF77FFE00F000
:1037A80083FC9FED711BFEF779FEB0EE401AF0EE38
:1037B800601AB0EE480AF0EE680AFEF7BBFCB0EEFD
:1037C800408AF0EE608A00F031FE0446FEF700FE03
:1037D800B0EE480AF0EE680A41EC110BFEF7AAFCBD
:1037E800059AB0EE408AF0EE608A002A40F3EA803B
:1037F80096AB7A1E03EB8202059E52F8503CC6F146
:10380800180053FA00F111FA00F01B1AC6F1170656
:10381800641842F8503C53FA06F6002E2DDD0134A8
:103828000023002F12DD82AA02EB870E002352F834
:10383800041BC1F1FF1000F57F4013B9C1F180707E
:1038480011B142F8040C01237245F0D1059A002AFF
:1038580010DD012A00F0E380022A0BD196A97A1E16
:1038680001EB820252F8501C21F07F4121F4400103
:1038780042F8501C022E00F0AD80B0EE480AF0EE7F
:10388800680A9FED311B00F09FFD002800F0E380DF
:10389800079A07F1FF3E72450EDC82A800EB87030A
:1038A80000EB8200002253F8041D834242EA010221
:1038B800F9D1002A40F01D81079B5A1E920096AC50
:1038C800A31853F8503C002B40F0C38082AEB218C6
:1038D800012352F8041D01330029FAD0FB187C1C7F
:1038E8009C4208936CDC099AA79ECDF810B0BF18CB
:1038F800089A09EB04035AA906EB8708013B0AA8B2
:1039080001EB0A0602F1010A00EBC307CDF80CA08F
:1039180058F8040FFEF75CFDB9F1000FE7E9020162
:103928009FED098B42DB0498029663190AA901EB03
:10393800C303A0F108020021A246BB460C462F464D
:103948001E46154616E000BF0000000000000000FB
:10395800000000000000703E000000000000704100
:10396800000000000000C03F0000000000002040F0
:1039780048470008083536ED021B95ED000BFEF7A9
:103988008DFDB0EE401AF0EE601AB0EE480AF0EE87
:10399800680AFEF7D1FB0134BC42B0EE408AF0EE73
:1039A800608AE7D1029E3D4654465F46039A013439
:1039B80051EC180B9442E6E90201A9D1DDF810B0E8
:1039C800089F9EE638D196A800EB870353F8546CFD
:1039D800F61522E7B0EE481AF0EE681A9FED8E0B46
:1039E8000193FEF7A7FB019BB0EE408AF0EE608AD8
:1039F800002B3FF442AF05989FED870B00F0ECFBDE
:103A0800B0EE401AF0EE601AB0EE480AF0EE680A1E
:103A1800FEF790FBB0EE408AF0EE608A2DE77A1E42
:103A280096A800EB820252F8501C21F07F4121F445
:103A3800000142F8501C1DE79FED791B00F0E2FCE5
:103A4800002600283FF419AF0226E8E69FED768BA2
:103A58004AE6012342E7039407F1FF3E079C00284A
:103A680049D1059AB0EE480AF0EE680A504200F0D3
:103A7800B3FB9FED6F1BB0EE408AF0EE608A00F05A
:103A8800C1FC002800F0FA819FED6B1BB0EE480ADC
:103A9800F0EE680AFEF702FD00F0C8FCFEF798FC9D
:103AA8009FED631B41EC100B41EC190BFEF7F6FC84
:103AB800B0EE401AF0EE601AB0EE480AF0EE680A6E
:103AC800FEF738FB00F0B2FCB0EE490AF0EE690AE6
:103AD80096AD05EB8703013743F8500C00F0A6FCC0
:103AE800059A96A901EB87031832059243F8500C02
:103AF80017E00394079C96AD4FEA8E03EA18059DDC
:103B080052F8502C183D0595774652B982AFFB18EC
:103B18002A46774653F8041D013F183A0029F9D080
:103B280005929FED3D0B059800F056FB002FB0EE77
:103B3800408AF0EE608A64DB07F101090DF5B4787C
:103B480082A800EB890A08EBC9055AF8040DFEF7AC
:103B58003FFCB0EE481AF0EE681A41EC100BFEF785
:103B68009DFC9FED351B25ED020BB0EE480AF0EEEB
:103B7800680AFEF793FC4545B0EE408AF0EE608A8D
:103B8800E3D132AD791E0023049705962F460291A2
:103B980026461D46002EC0F25881002DC0F25581E0
:103BA800029CC5EB040B08EBCB0B254C9FED1E8B41
:103BB8004FF0000A01E0AA451ADC08340BF1080BA3
:103BC8009BED001B94ED000BFEF768FCB0EE401A6D
:103BD800F0EE601AB0EE480AF0EE680AFEF7ACFAAA
:103BE8000AF1010A5645B0EE408AF0EE608AE2DA40
:103BF80007EBC50301354D4583ED008BCAD1049F02
:103C0800059EA69D032D00F2AC80DFE815F0FD00AF
:103C1800B300B3001B0000BF000000000000F03F2D
:103C2800000000000000E03F00000000000000006D
:103C38000000000000007041000000000000703E1D
:103C4800504700080021002F084632AD75DD32AD1F
:103C58007C1C05EBC4040DF1D009A04618ED029BAD
:103C680018ED048BB0EE491AF0EE691AB0EE480A66
:103C7800F0EE680AFEF760FAB0EE40AAF0EE60AA2D
:103C8800B0EE480AF0EE680AB0EE4A1AF0EE6A1A88
:103C9800FEF750FAB0EE401AF0EE601AB0EE490A9C
:103CA800F0EE690AFEF748FA28ED020BC84508ED60
:103CB80002ABD3D10021012F08463EDD05F11007E4
:103CC800A04618ED029B18ED048BB0EE491AF0EEF1
:103CD800691AB0EE480AF0EE680AFEF72DFAB0EE5F
:103CE80040AAF0EE60AAB0EE480AF0EE680AB0EE1C
:103CF8004A1AF0EE6A1AFEF71DFAB0EE401AF0EE14
:103D0800601AB0EE490AF0EE690AFEF715FA28EDD6
:103D1800020BB84508ED02ABD3D1002108460A468C
:103D2800034634ED021B43EC102BFEF705FABC42A8
:103D380010EE101A10EE900AF1D1002E00F09080CB
:103D48006C68EB682E68AA68069D04F1004403F1CC
:103D5800004300F100402E606C60AA60EB602961AE
:103D68006861039E06F007000DF5177DBDEC068B14
:103D7800BDE8F08F0023002F1A4632AD13DB32ADB9
:103D88007C1C002305EBC4041A461846114634ED82
:103D9800021B41EC100BFEF7CFF9AC4210EE103AC3
:103DA80010EE902AF1D102F1004406B914461146EA
:103DB800069A18469846A14641EC110BC2E90089BB
:103DC80095ED000BFEF7B6F9002F10EE100A10EE75
:103DD800901A10DD05EBC70702460B46083543EC81
:103DE800102B95ED001BFEF7A7F9BD4210EE100A47
:103DF80010EE901AF0D10EB101F10041069C024676
:103E08000B46C4E90223ACE70020002F014613DB70
:103E180032AD7C1C002005EBC404014602460B466B
:103E280034ED021B43EC102BFEF786F9AC4210EE82
:103E3800100A10EE901AF1D10EB101F10041069C62
:103E480002460B46C4E900238BE79FED138B07EB73
:103E5800C50301354D4583ED008B7FF49BAECEE65F
:103E680095ED007B069C84ED007B95ED027B0A4670
:103E7800034684ED027BC4E9042372E7B0EE480AE6
:103E8800F0EE680A00F0D2FA96AD05EB870343F826
:103E9800500C46E6AFF30080000000000000000070
:103EA80010B553EC102B23F00043B3F1795F2DEDDF
:103EB8000C8BB0EE408AF0EE608AB0EE41AAF0EECC
:103EC80061AA044604DA00F0B1FA002800F09880EC
:103ED800B0EE481AF0EE681AB0EE480AF0EE680A3A
:103EE800FEF7DCFAB0EE481AF0EE681AB0EE409A27
:103EF800F0EE609AFEF7D2FA9FED571BB0EE40BA8B
:103F0800F0EE60BAB0EE490AF0EE690AFEF7C6FABA
:103F18009FED531BFEF70EF9B0EE491AF0EE691A41
:103F2800FEF7BCFA9FED501BFEF706F9B0EE491AF2
:103F3800F0EE691AFEF7B2FA9FED4D1BFEF7FAF89C
:103F4800B0EE491AF0EE691AFEF7A8FA9FED4A1B7F
:103F5800FEF7F2F8B0EE40CAF0EE60CA002C56D078
:103F68009FED471BB0EE4A0AF0EE6A0AFEF796FA92
:103F7800B0EE4C1AF0EE6C1AB0EE40DAF0EE60DA01
:103F8800B0EE4B0AF0EE6B0AFEF788FAB0EE401A74
:103F9800F0EE601AB0EE4D0AF0EE6D0AFEF7CAF8C0
:103FA800B0EE491AF0EE691AFEF778FAB0EE4A1A3E
:103FB800F0EE6A1AFEF7BEF89FED331BB0EE409A9A
:103FC800F0EE609AB0EE4B0AF0EE6B0AFEF766FA76
:103FD800B0EE401AF0EE601AB0EE490AF0EE690A47
:103FE800FEF7AAF8B0EE401AF0EE601AB0EE480AF2
:103FF800F0EE680AFEF79EF8B0EE408AF0EE608AAE
:10400800B0EE480AF0EE680ABDEC0C8B10BDB0EEBD
:10401800401AF0EE601AB0EE490AF0EE690AFEF7AF
:104028003DFA9FED191BFEF785F8B0EE4B1AF0EE3E
:104038006B1AFEF733FAB0EE401AF0EE601AB0EEE3
:10404800480AF0EE680AFEF777F8B0EE408AF0EE1C
:10405800608AD5E7AFF300807CD5CF5A3AD9E53DE1
:10406800EB9C2B8AE6E55A3E7DFEB157E31DC73E21
:10407800D561C119A0012A3FA6F810111111813F7D
:10408800000000000000E03F495555555555C53F13
:1040980051EC100B53EC102B21F0004343EC102B88
:1040A800704700BF000000002DE9F047B0EE401A4D
:1040B800F0EE601A55EC104BC5F30A58A8F2FF361B
:1040C800132E2F46AA4610EE109A24DC002E47DB4A
:1040D8004FF6FF78C0F20F0848FA06F808EA050715
:1040E800274312D09FED381BFEF726F89FED381BAB
:1040F80000F092F900284FD0002D4FDB2AEA080A79
:1041080000245346224643EC112BB0EE410AF0EE50
:10411800610ABDE8F087332E09DDB6F5806FF4D16A
:10412800FEF70AF8B0EE401AF0EE601AEDE7A8F2D2
:1041380013434FF0FF37DF402742E6D09FED221BA5
:10414800FDF7FAFF9FED221B00F066F920B3002D62
:104158002BDB24EA07045346224643EC112BD4E711
:104168009FED191BFDF7E8FF9FED191B00F054F9AF
:104178000028F0D00024002DA246ECDA25F00044F7
:1041880044EA09044FF0000A5445CBF6F07A08BF18
:10419800AA4618BF0024DEE7AA46DCE74FF48013DE
:1041A80053FA06F605EB060AA8E7142E07D0C8F559
:1041B8008663033301249C4014EB0904C9D30AF134
:1041C800010AC6E7AFF300809C7500883CE4377E9F
:1041D800000000000000000038B5B0EE401AF0EE14
:1041E800601A53EC102B1946C3F30A5305466BBBF0
:1041F80021F00041114324D09FED371BFEF74EF903
:1042080043F6B041CFF6FF718D42B0EE401AF0EEA2
:10421800601A53EC102B3ADB1946C3F30A53363BAA
:104228005C1940F2FE739C4219DD9FED2D0B00F0E6
:1042380063F89FED2B1BFEF731F9B0EE401AF0EE54
:10424800601AB0EE410AF0EE610A38BD40F2FF7222
:10425800934225D05C1940F2FE739C42E5DC002CA9
:104268000ADD21F0FF4153EC112B21F4E00141EA72
:10427800045343EC112BE4E714F1350F17DA4CF231
:1042880050339D42D1DC9FED180B00F035F89FEDBF
:10429800161BFEF703F9B0EE401AF0EE601AD0E7ED
:1042A800FDF74AFFB0EE401AF0EE601AC9E721F0B8
:1042B800FF4153EC112B21F4E001363441EA045359
:1042C8009FED0B1B43EC102BFEF7E8F8B0EE401AFD
:1042D800F0EE601AB5E700BF000000000000504390
:1042E8009C7500883CE4377E59F3F8C21F6EA5011F
:1042F800000000000000903C51EC110B30B455EC6C
:10430800104B53EC102B01F0004025F0004140EA1F
:10431800010343EC102B30BC704700BF4FF0FF3C4B
:1043280006E000BF4FF0010C02E000BF4FF0010CA7
:104338004DF804CD4FEA410C7FEA6C5C4FEA430C20
:1043480018BF7FEA6C5C1BD001B050EA410C0CBF6F
:1043580052EA430C91EA030F02BF90EA020F0020D1
:10436800704710F1000F91EA030F58BF994208BF38
:1043780090422CBFD8176FEAE37040F001007047F5
:104388004FEA410C7FEA6C5C02D150EA013C07D14C
:104398004FEA430C7FEA6C5CD6D152EA033CD3D097
:1043A8005DF8040B704700BF8446104662468C4691
:1043B8001946634600E000BF01B5FFF7B7FF0028C4
:1043C80048BF10F1000F01BD4DF808EDFFF7F4FFED
:1043D8000CBF012000205DF808FB00BF4DF808ED78
:1043E800FFF7EAFF34BF012000205DF808FB00BF9B
:1043F8004DF808EDFFF7E0FF94BF012000205DF8BD
:1044080008FB00BF4DF808EDFFF7CEFF94BF012071
:1044180000205DF808FB00BF4DF808EDFFF7C4FF6A
:1044280034BF012000205DF808FB00BF4FEA4102BD
:1044380012F5001215D211D56FF47873B3EB6252EE
:1044480012D94FEAC12343F0004343EA505311F015
:10445800004F23FA02F018BF404270474FF00000A7
:10446800704750EA013005D111F0004008BF6FF0E5
:10447800004070474FF00000704700BF2DE9F84337
:104488004BF6C209294C2A4DFDF788F8C3F6B269E4
:10449800FBF79EFF4FF4A278FBF7B4FFFBF7CCFFC6
:1044A800FCF738F8FCF776F8FBF7D8FEFBF70EFFB9
:1044B800FBF732FFFBF75EFFFBF7DAFFFCF7ACF820
:1044C80000204FF0000E4FF07E5C08FB0E511E23BB
:1044D8001F2201EB82071A46013B9E1C3860C7F871
:1044E8008000F6D10EF1010EBEF1800FC1F82091C7
:1044F800C1F840C1E9D100204FF0FF33A361E0606B
:104508004FF4A27606FB0050FCF7A4F8E0680130EF
:104518007F28E060F6DD4FF40850C4F20100FCF794
:104528003DFFE3690133E361FBE700BF900400202E
:104538009C050020002103E00B4B5B5843500431DD
:104548000A480B4B42189A42F6D30A4A02E0002363
:1045580042F8043B084B9A42F9D3FCF751FAFEF7AC
:104568002BFAFFF78BFF7047C847000800000020B0
:10457800700400207404002084A80020FEE70000D6
:104588000800000008000000080000000800000003
:10459800001000200040008006000000000000001D
:1045A8000000000001000000010000000100000000
:1045B80048000020FB21F93FFB2109407CD912402B
:1045C800FB2119407A6A1F407CD92240BBFD254057
:1045D800FB2129403A462C407A6A2F405C473140FB
:1045E8007CD932409C6B3440BBFD3540DB8F374073
:1045F800FB2139401BB43A403A463C405AD83D402A
:104608007A6A3F404C7E40405C4741406C104240D3
:104618007CD942408CA243409C6B4440AC3445401A
:10462800BBFD4540CBC64640DB8F4740EB58484072
:10463800FB21494083F9A200444E6E00FC29150075
:10464800D1572700DD34F50062DBC0003C999500A6
:10465800419043006351FE00BBDEAB00B761C5006B
:104668003A6E2400D24D42004906E00009EA2E00C5
:104678001C92D100EB1DFE0029B11C00E83EA700EA
:10468800F535820044BB2E009CE98400B4267000F6
:10469800417E5F00D6913900538339009CF439007C
:1046A8008B5F840028F9BD00F81F3B00DEFF9700F0
:1046B8000F980500112FEF000A5A8B006D1F6D002F
:1046C800CF7E360009CB2700464FB7009E663F00D5
:1046D8002DEA5F00BA277500E5EBC7003D7BF100C6
:1046E800F739070092528A00FB6BEA001FB15F009E
:1046F800085D8D00300356007BFC4600F0AB6B0074
:1047080020BCCF0036F49A00E3A91D005E61910039
:10471800081BE60085996500A0145F008D406800BD
:1047280080D8FF0027734D0006063100CA561500D1
:10473800C9A873007BE260006B8CC0000000000019
:104748000200000003000000040000000600000052
:1047580000000040FB21F93F000000002D44743E9A
:10476800000000809846F83C0000006051CC783B7F
:1047780000000080831BF0390000004020257A38B3
:10478800000000802282E336000000001DF3693536
:104798004300000000000000F8B500BFF8BC08BCEA
:1047A8009E467047F8B500BFF8BC08BC9E467047E7
:0847B80024BAFF7F010000009C
:0447C000AD0100083F
:0447C400890100085F
:1047C80000000000040000000000000000000000DD
:1047D8000102030406070809007A030A0000000022
:1047E800010203040102030406070809000C024041
:1047F800000C0240000C0240000C02400000024085
:1048080048000020000000000000000034030020E1
:104818009C030020040400200000000000000000A9
:104828000000000000000000000000000000000080
:104838000000000000000000000000009847000889
:104848000000000000000000000000000000000060
:104858000000000000000000000000000000000050
:104868000000000000000000000000000000000040
:104878000000000000000000000000000000000030
:104888000000000000000000000000000000000020
:104898000000000000000000000000000000000010
:1048A8000000000000000000000000000000000000
:1048B80001000000000000000E33CDAB34126DE69D
:1048C800ECDE05000B000000000000000000000006
:1048D80000000000000000000000000000000000D0
:1048E80000000000000000000000000000000000C0
:1048F80000000000000000000000000000000000B0
:10490800000000000000000000000000000000009F
:044C38000000000078
:040000050800453D6D
:00000001FF
